:10000000C2C70000DEC70000DCC70000DAC700007E
:10001000D8C70000D6C70000D4C70000D2C7000070
:10002000D0C70000CEC700000C94350CCAC7000032
:10003000C8C70000C6C70000C4C70000C2C7000090
:10004000C0C70000BEC70000BCC70000BAC70000A0
:10005000B8C70000B6C70000B4C70000B2C70000B0
:10006000B0C70000AEC70000ACC70000AAC70000C0
:10007000A8C70000A6C70000A4C70000A2C70000D0
:10008000A0C700009EC700009CC700009AC70000E0
:1000900098C7000096C70000E712EB12EF12F312A8
:1000A000F712FB12FF12031307130B130F13131393
:1000B00017131B131F13231327132B132F13331380
:1000C00037133B133F13431347134B134F13531370
:1000D00057135B135F1363131B5B33366D537461EC
:1000E00062696C792076312E302072756E6E696E81
:1000F000672E0D0A1B5B33376D001B5B33316D447C
:10010000657620456E756D204572726F720D0A20FE
:100110002D2D204572726F7220436F646520256417
:100120000D0A202D2D20537562204572726F7220AA
:10013000436F64652025640D0A202D2D20496E2013
:1001400053746174652025640D0A1B5B33376D00A1
:100150001B5B33316D486F7374204D6F64652045B0
:1001600072726F720D0A202D2D2056425553207643
:100170006F6C746167652064726F70706564207560
:100180006E64657220342E35560D0A1B5B33376D55
:100190000043616D65726120446576696365204541
:1001A0006E756D6572617465642E0D0A004572721C
:1001B0006F722053657474696E6720446576696355
:1001C0006520436F6E66696775726174696F6E2E24
:1001D0000D0A004174746163686564204465766942
:1001E0006365204E6F7420612056616C69642053F2
:1001F00074696C6C20496D61676520436C61737331
:10020000204465766963652E0D0A004572726F722F
:100210002052657472696576696E6720436F6E66F9
:10022000696775726174696F6E2044657363726982
:1002300070746F722E0D0A000D0A4465766963654D
:1002400020556E61747461636865642E0D0A004404
:1002500065766963652041747461636865642E0D19
:100260000A00446576696365206E6F7420636F6E63
:100270006E65637465642E0D0A0044657669636576
:10028000206E6F7420636F6E6E65637465642E0DEF
:100290000A00446576696365206E6F7420636F6E33
:1002A0006E65637465642E0D0A0044657669636546
:1002B000206E6F7420636F6E6E65637465642E0DBF
:1002C0000A00556E7265636F676E697A65642065B2
:1002D00072726F722E0D0A004572726F7220636F18
:1002E000646520666F7220736F6D65205374696C4E
:1002F0006C20496D61676520486F73742066756E68
:100300006374696F6E732C20696E646963617469CC
:100310006E672061206C6F676963616C2028616E75
:1003200064206E6F74206861726477617265292041
:100330006572726F722E0D0A00496E646963617492
:1003400065732074686174207468652070697065D5
:100350002062616E6B20626563616D652066756CFD
:100360006C2F656D707479206265666F726520749C
:10037000686520636F6D706C65746520636F6E7463
:10038000656E7473206F662074686520737472657F
:10039000616D20636F756C64206265207472616E9C
:1003A000736665727265642E0D0A00546865206478
:1003B0006576696365206661696C656420746F2089
:1003C000616363657074206F722073656E6420745E
:1003D0006865206E657874207061636B6574207742
:1003E000697468696E2074686520736F66747761DC
:1003F00072652074696D656F757420706572696FC0
:1004000064207365742062792074686520555342B6
:100410005F53545245414D5F54494D454F55545FCC
:100420004D53206D6163726F2E0D0A00446576692D
:1004300063652077617320646973636F6E6E6563B3
:100440007465642066726F6D2074686520686F73D0
:100450007420647572696E672074686520747261B7
:100460006E736665722E0D0A0054686520646576A9
:10047000696365207374616C6C65642074686520C1
:100480007069706520647572696E67207468652094
:100490007472616E736665722E0D0A0050494D418B
:1004A000204572726F7220282564293A20001B5B58
:1004B00033316D556E646566696E6564206F7220B8
:1004C00056656E646F722053706563696669630D6B
:1004D0000A1B5B33376D001B5B33316D53706563F3
:1004E000696669636174696F6E206F662044657325
:1004F00074696E6174696F6E20556E737570706F7C
:10050000727465640D0A1B5B33376D001B5B3331FE
:100510006D5472616E73616374696F6E2043616EB6
:1005200063656C6C65640D0A1B5B33376D001B5B88
:1005300033316D53657373696F6E20416C72656101
:100540006479204F70656E0D0A1B5B33376D001B9D
:100550005B33316D496E76616C6964205061726104
:100560006D657465720D0A1B5B33376D001B5B3361
:10057000316D496E76616C696420446576696365A6
:1005800050726F702056616C75650D0A1B5B3337B6
:100590006D001B5B33316D496E76616C696420447C
:1005A000657669636550726F7020466F726D617415
:1005B0000D0A1B5B33376D001B5B33316D496E7663
:1005C000616C696420506172656E744F626A656324
:1005D000740D0A1B5B33376D001B5B33316D446553
:1005E0007669636520427573790D0A1B5B33376D3D
:1005F000001B5B33316D4361707475726520416C13
:100600007265616479205465726D696E61746564A8
:100610000D0A1B5B33376D001B5B33316D556E6B01
:100620006E6F776E2056656E646F7220436F6465DF
:100630000D0A1B5B33376D001B5B33316D496E76E2
:10064000616C696420436F646520466F726D6174EC
:100650000D0A1B5B33376D001B5B33316D4E6F2012
:1006600056616C6964204F626A656374496E666F97
:100670000D0A1B5B33376D001B5B33316D537065A7
:1006800063696669636174696F6E20427920466FA1
:10069000726D617420556E737570706F72746564DD
:1006A0000D0A1B5B33376D001B5B33316D53746F69
:1006B0007265204E6F7420417661696C61626C6571
:1006C0000D0A1B5B33376D001B5B33316D5061725C
:1006D0007469616C2044656C6574696F6E0D0A1BEA
:1006E0005B33376D001B5B33316D53656C6654654E
:1006F0007374204661696C65640D0A1B5B33376D4A
:10070000001B5B33316D4E6F205468756D626E61F6
:10071000696C2050726573656E740D0A1B5B33370C
:100720006D001B5B33316D416363657373204465FA
:100730006E6965640D0A1B5B33376D001B5B3331DB
:100740006D53746F726520526561642D4F6E6C79C4
:100750000D0A1B5B33376D001B5B33316D4F626AD3
:1007600065637420577269746550726F7465637441
:1007700065640D0A1B5B33376D001B5B33316D53B2
:10078000746F72652046756C6C0D0A1B5B33376D98
:10079000001B5B33316D496E76616C6964204F627A
:1007A0006A656374466F726D6174436F64650D0AA8
:1007B0001B5B33376D001B5B33316D4465766963BA
:1007C0006550726F70204E6F7420537570706F7229
:1007D0007465640D0A1B5B33376D001B5B33316D31
:1007E000496E76616C6964204F626A656374486122
:1007F0006E646C650D0A1B5B33376D001B5B333118
:100800006D496E76616C69642053746F72616765BF
:1008100049440D0A1B5B33376D001B5B33316D4957
:100820006E636F6D706C657465205472616E736673
:1008300065720D0A1B5B33376D001B5B33316D50E6
:100840006172616D65746572204E6F7420537570AE
:10085000706F727465640D0A1B5B33376D001B5B30
:1008600033316D4F7065726174696F6E204E6F74B5
:1008700020537570706F727465640D0A1B5B33379B
:100880006D001B5B33316D496E76616C6964205479
:1008900072616E73616374696F6E49440D0A1B5B0C
:1008A00033376D001B5B33316D53657373696F6E46
:1008B000204E6F74204F70656E0D0A1B5B33376DD1
:1008C000001B5B33316D47656E6572616C2045724C
:1008D000726F720D0A1B5B33376D001B5B33366D15
:1008E0004F4B0D0A1B5B33376D001B5B33316D09BA
:1008F000095B3078253034785D201B5B33376D0021
:100900001B5B33366D09095B3078253034785D2008
:100910001B5B33376D0053657269616C204E756DDA
:100920002E3A0925730D0A004465766963652076C1
:1009300065722E3A0925730D0A004D6F64656C3A95
:10094000090925730D0A000D0A4D616E7566616314
:1009500074757265723A0925730D0A0009282D29EC
:10096000203078253034780D0A000D0A496D616712
:100970006520466F726D6174733A0D0A0009282D67
:1009800029203078253034780D0A000D0A43617033
:100990007475726520666F726D6174733A0D0A002A
:1009A00009282D29203078253034780D0A000D0AC9
:1009B0004465766963652070726F706572746965ED
:1009C0007320737570706F727465643A0D0A000954
:1009D000282D29203078253034780D0A000D0A455D
:1009E00076656E747320737570706F727465643A97
:1009F0000D0A0009282D29203078253034780D0A79
:100A0000000D0A4F7065726174696F6E73207375A3
:100A100070706F727465643A0D0A0046756E632ECD
:100A20004D6F64653A0925640D0A000D0A56656E1E
:100A3000642E4578742E446573632E3A0925730D30
:100A40000A0056656E642E4578742E5665722E3AED
:100A50000925640D0A0056656E642E4578742E498A
:100A6000442E3A0925640D0A005374642E566572AB
:100A70002E3A0925640D0A004572726F7220726564
:100A80006164696E672064657669636520696E6676
:100A90006F0D0A00446576696365206E6F7420638C
:100AA0006F6E6E65637465642E0D0A001B5B3336D2
:100AB0006D09476F742064657669636520696E66A9
:100AC0006F206F662025642062797465732E0D0A8D
:100AD0001B5B33376D00446576696365206E6F7408
:100AE00020636F6E6E65637465642E0D0A000928BD
:100AF0002D29203078253034780D0A00092564200E
:100B000076616C7565732061727261790D0A0025DA
:100B10006300286C656E2E2564290009566F6C757C
:100B20006D65206C6162656C3A20272573270D0A7C
:100B3000000953746F72616765206465736372693D
:100B40007074696F6E3A20272573270D0A000946D5
:100B500072656520737061636520666F7220696DD0
:100B6000616765733A20307825580D0A000946728E
:100B700065652073706163653A20307825580D0AE9
:100B800000094D61782063617061636974793A206E
:100B9000307825580D0A000941636365737320633B
:100BA00061706162696C6974793A20307825580DFA
:100BB0000A000946696C652D73797374656D20743C
:100BC0007970653A20307825580D0A000953746F02
:100BD0007261676520747970653A20307825580D08
:100BE0000A0052657472696576696E672073746F66
:100BF0007261676520696E646578202564202849E4
:100C0000443D30782558290D0A00446576696365AE
:100C1000206E6F7420636F6E6E65637465642E0D55
:100C20000A001B5B33366D09476F742073746F7253
:100C300061676520696E666F206F6620256420629B
:100C4000797465732E0D0A1B5B33376D0045727224
:100C50006F722067657474696E672073746F726158
:100C6000676520696E666F202D2073746F726167EF
:100C70006520696E64657820256420697320626947
:100C800067676572207468656E206E756D206F668B
:100C90002073746F72616765732025642E0D0A00DE
:100CA000446576696365206E6F7420636F6E6E6550
:100CB000637465642E0D0A001B5B33366D09476F44
:100CC000742073746F7261676520494473206F6686
:100CD0002025642062797465732E0D0A1B5B3337FF
:100CE0006D00446576696365206E6F7420636F6E76
:100CF0006E65637465642E0D0A002530327820001D
:100D00001B5B33366D09476F742070726F706572AC
:100D1000747920696E666F206F6620256420627981
:100D20007465732E0D0A1B5B33376D00446576695D
:100D30006365206E6F7420636F6E6E6563746564A7
:100D40002E0D0A000D0A53746F72616765206E6F75
:100D50007420666F756E642E2052756E2067657400
:100D60005F73746F726167655F696E666F2E2E2E9A
:100D700000446576696365206E6F7420636F6E6EE4
:100D800065637465642E0D0A004556454E54205B1C
:100D90004E494B4F4E5D3A20436170747572652029
:100DA0006F766572666C6F772049443A20307825FB
:100DB000782E0D0A004556454E54205B4E494B4F48
:100DC0004E5D3A204F626A65637420726561647992
:100DD0002049443A20307825782E0D0A00455645A2
:100DE0004E543A204361707475726520636F6D7064
:100DF0006C657465205472616E7349443A20307892
:100E000025782E0D0A004556454E543A2053746FEE
:100E10007261676520696E666F206368616E6765E1
:100E2000642049443A20307825782E0D0A00455632
:100E3000454E543A2053746F726167652066756C35
:100E40006C2049443A20307825782E0D0A0045560A
:100E5000454E543A2044657620696E666F2063687B
:100E6000616E6765642E0D0A004556454E543A2062
:100E70004F626A65637420696E666F206368616E95
:100E80006765642049443A20307825782E0D0A00A1
:100E90004556454E543A2050726F706572747920F1
:100EA0006368616E67656420434F44453A2030783B
:100EB00025782E0D0A004556454E543A204F626A59
:100EC0006563742072656D6F7665642049443A20CD
:100ED000307825782E0D0A004556454E543A205359
:100EE000746F726167652061646465642049443A87
:100EF00020307825782E0D0A004556454E543A206C
:100F00004F626A6563742072656D6F76656420490F
:100F1000443A20307825782E0D0A004556454E5427
:100F20003A204F626A656374206164646564204995
:100F3000443A20307825782E0D0A004556454E5407
:100F40003A2043616E63656C207472616E736163F5
:100F500074696F6E2E0D0A004556454E543A205561
:100F60006E646566696E65642E0D0A000D0A4E6535
:100F700077206576656E743A006364696E6F70738E
:100F80007578585B000011241FBECFEFD0E2DEBFA2
:100F9000CDBF12E0A0E0B1E0E0EEF1E500E00BBF74
:100FA00002C007900D92AA34B107D9F715E0AAE460
:100FB000B2E001C01D92A330B107E1F72ED10C942D
:100FC000EE281EC80F93DF93CF93CDB7DEB760979F
:100FD0000FB6F894DEBF0FBECDBF002309F459C091
:100FE00029833A834B835C836D837E838F839887C9
:100FF000E0E2E01B2D813E814F8158851E16BCF03A
:101000001D861E861F86188A8E2F992787FD90952C
:10101000909581959F4F04C0569547953795279594
:101020008A95D2F729873A874B875C872AC0CA01FD
:10103000B901002E04C096958795779567950A9417
:10104000D2F76D877E878F87988BDA01C90104C03C
:10105000880F991FAA1FBB1FEA95D2F729813A81F1
:101060004B815C8104C056954795379527950A9525
:10107000D2F7822B932BA42BB52B89879A87AB872A
:10108000BC8729853A854B855C856D857E858F85F6
:10109000988960960FB6F894DEBF0FBECDBFCF9192
:1010A000DF910F9108950F93DF93CF93CDB7DEB704
:1010B00060970FB6F894DEBF0FBECDBF002309F4D2
:1010C00059C029833A834B835C836D837E838F83EE
:1010D0009887E0E2E01B29813A814B815C811E16F2
:1010E000BCF019861A861B861C868E2F992787FDD1
:1010F0009095909581959F4F04C0220F331F441FF8
:10110000551F8A95D2F72D873E874F87588B2AC067
:10111000CA01B901002E04C0660F771F881F991FEE
:101120000A94D2F769877A878B879C87DA01C9018D
:1011300004C0B695A79597958795EA95D2F72D8126
:101140003E814F81588504C0220F331F441F551F15
:101150000A95D2F7822B932BA42BB52B8D879E87D4
:10116000AF87B88B29853A854B855C856D857E85F3
:101170008F85988960960FB6F894DEBF0FBECDBFFD
:10118000CF91DF910F91089584B7877F84BF28E1C5
:101190000FB6F89420936000109260000FBE90E0AC
:1011A00080E80FB6F89480936100909361000FBEC1
:1011B00087E690E09093CD008093CC0086E080930A
:1011C000CA001092C8002093C900539A5A9A8AB153
:1011D000806F8AB98BB18F708BB931D3E7EFF3E0B1
:1011E000F093FE04E093FD04F0930005E093FF0408
:1011F0008EE0DF011D928A95E9F783E08093FA0380
:1012000080EE91E1909300048093FF0389EE91E1D9
:1012100090930204809301040895B6DF88ED90E076
:101220000E94E72278940E947F2180E091E00E9452
:101230002B1F73D6F8CF80919E0090E08170907044
:101240002091A0002D7F2093A00020919E0022607D
:1012500020939E0020919E0021FDFCCF20919E00B6
:10126000216020939E001092EC032091A00030E0BA
:10127000207230704091A0004F7D4093A0004091BB
:101280009F004F7D40939F004AE050919F0055FF83
:101290000BC040919F004F7D40939F0040919F0065
:1012A0004D7F40939F0008C0EFE9FFE03197F1F7D1
:1012B00000C00000415049F72115310529F0209167
:1012C000A00020622093A000009729F480919E0046
:1012D0008E7F80939E008091A00082608093A0000A
:1012E000089540919E0050E0417050702091A00000
:1012F00030E0207230709091A0009F7D9093A0000C
:1013000090919F009F7D90939F0090919E0091608F
:1013100090939E0026C090919F0095FF06C09091EB
:101320009F009F7D90939F0081509091F603913094
:10133000D9F09091A60094FF09C01092F500809119
:10134000A6008F7E8093A60082E00FC09091A60039
:1013500091FF07C08091A6008D7F8093A60083E057
:1013600004C08823C1F601C081E04115510529F46C
:1013700090919E009E7F90939E002115310529F04B
:101380009091A00090629093A0000895EF920F9327
:101390001F93DF93CF93CDB7DEB728970FB6F8949E
:1013A000DEBF0FBECDBF8091F603853009F499C032
:1013B000863068F48230C1F1833018F48823A1F0BC
:1013C00008C18330D9F1843009F003C162C087308D
:1013D00009F4A0C0873008F48FC0883009F4B8C081
:1013E000893009F0F6C0DCC000914B0210914C022C
:1013F0000115110509F4EDC081E073DF682F882322
:1014000031F080914A028093F60381E0DEC0015002
:10141000104010934C0200934B020115110509F086
:10142000D8C080914A0207C088EE93E090934C02A6
:1014300080934B0283E08093F603CBC080914B02F4
:1014400090914C029C012150304030934C022093EB
:101450004B02009739F08FE99FE00197F1F700C048
:101460000000B7C077988091D80080618093D80041
:101470008091DD008B7F8093DD008091D7008061BB
:101480008093D7008091DD0082608093DD0084E04E
:10149000D2CF80919F0080FF9CC080919F008E7F63
:1014A00080939F0080919F008D7F80939F0080910B
:1014B000DF008D7F8093DF008091DE00826080936B
:1014C000DE0080919E00816080939E00EBD01092A0
:1014D000F60384E690E090934C0280934B0285E003
:1014E0005CC0A9DE1092F60388EC90E090934C0269
:1014F00080934B0286E051C080E060E040E020E055
:1015000000E410E0EE2471D08091AC0087FF59C058
:1015100087E091CFAEEEB3E0EBE1F1E088E001903F
:101520000D928150E1F7CE010196BCD3682F88233C
:1015300009F04AC08885809323017DDE1092F6036E
:1015400088EC90E090934C0280934B0288E025C099
:101550000091230180E060E040E020E010E0EE2414
:1015600044D08091AC0087FF2CC0AEEEB3E0E3E145
:10157000F1E088E001900D928150E1F780E090E089
:1015800091D3682F882301F51092F60384E690E04A
:1015900090934C0280934B0289E080934A0219C0D9
:1015A00081E08093A1008AE08093F60337D711C0D1
:1015B000A6D78091DD0081608093DD0026D7EFD033
:1015C00008C060E084E001C083E09091F6039130B0
:1015D00079F728960FB6F894DEBF0FBECDBFCF9136
:1015E000DF911F910F91EF900895EF920F931F934A
:1015F0005E2D6295660F660F607C642B2F70622BE8
:10160000982F526043C09093A7009817A1F428E048
:1016100030E040E003C04F5F220F331F2017310737
:1016200010F44530C1F7242F2295207F252BE62F7B
:1016300040E070E008C0E091AA002091AB007091FA
:10164000AD004091AE0021FF20C03091A9003E7F47
:101650003093A9003091AB003D7F3093AB003091C7
:10166000A90031603093A900E093AA002093AB0059
:101670007093AD004093AE002091A90020622093AA
:10168000A9002091AC0027FF08C09F5F973008F4A5
:10169000BACF8093A70081E001C080E01F910F9135
:1016A000EF9008951092F80080E08093A7001092C8
:1016B000AE001092A6001092AB009091A9009E7F00
:1016C0009093A9008F5F873081F708954091A7001C
:1016D00090E09093A7002091AC0027FF0EC02091CE
:1016E000AA002F703091AA003073303111F430E825
:1016F00001C030E0232B281749F09F5F973049F74E
:10170000842F87708093A70080E0089581E008957A
:101710008091A2009091A30044E62091AA0020733A
:10172000203129F42091A60020FF05C018C0209187
:10173000A60022FD14C02091A60021FD12C0209118
:10174000F603213081F02091A2003091A3002817E8
:10175000390719F3442349F04150C901DECF80E035
:10176000089581E0089582E0089583E0089570D09F
:1017700077D0E0EEF0E0808181608083E8EDF0E0FA
:1017800080818F77808319BCA7EDB0E08C918E7F2C
:101790008C9380818F7E80831092ED03089558D0C2
:1017A0005FD08091D8008F778093D8008091D80047
:1017B00080688093D8008091D8008F7D8093D80076
:1017C0008091D7008F778093D70084E189BD86E12F
:1017D00089BD09B400FEFDCF81E08093F60310922D
:1017E000EC0380E4809323018091D800806480938F
:1017F000D8008091DD0081608093DD008091DD0064
:1018000084608093DD008091D7008F7E8093D70025
:101810006F9A779A8091DE0081608093DE008091DC
:10182000DE0084608093DE008091E0008E7F8093F4
:10183000E0008091D80080618093D8000895E7EDA2
:10184000F0E080818160808381E08093ED03A7CF09
:10185000E8EDF0E080818C7F80831092A0000895F5
:101860001092DA0010929F0008951F920F920FB607
:101870000F920BB60F9211242F933F934F935F93C8
:101880006F937F938F939F93AF93BF93EF93FF9348
:1018900080919F0085FF0AC08091A00085FF06C04F
:1018A00080919F008F7D80939F00D2D180919F0077
:1018B00081FF15C08091A00081FF11C080919F0021
:1018C0008D7F80939F0080919F008E7F80939F00EB
:1018D0008091A0008D7F8093A00097D560DF8091DC
:1018E000DF0081FF15C08091DE0081FF11C0809173
:1018F000DF008D7F8093DF0077988091DD0081602D
:101900008093DD0080E0D9D580D581E08093F60317
:101910008091DF0080FF17C08091DE0080FF13C040
:101920008091DF008E7F8093DF008091DE008E7FCC
:101930008093DE0061D58091A00082608093A0003A
:1019400082E08093F6038091DF0082FF0EC08091D9
:10195000DE0082FF0AC08091DF008B7F8093DF0072
:1019600082E060E0CCD551D51ADFFF91EF91BF91B5
:10197000AF919F918F917F916F915F914F913F9127
:101980002F910F900BBE0F900FBE0F901F901895C8
:101990008F929F92BF92CF92DF92EF92FF920F931E
:1019A0001F93DF93CF930F92CDB7DEB7E82E4B0195
:1019B0008A018091AA008F7C80628093AA0099831B
:1019C000A7DEB82E99818823C1F5F92E01151105DE
:1019D00039F0F80120813181821A930AE20EF31E58
:1019E000CC24DD2425C08091A60085FD16C0809101
:1019F000A6008B778093A6000115110551F0F80120
:101A0000808191818C0D9D1D9183808324E0B22E75
:101A100014C07EDE882361F00FC0F70181917F0141
:101A20008093AF000894810891080894C11CD11CD0
:101A300081149104C1F601C0B82E8B2D0F90CF9167
:101A4000DF911F910F91FF90EF90DF90CF90BF90AB
:101A50009F908F9008958F929F92BF92CF92DF9226
:101A6000EF92FF920F931F93DF93CF930F92CDB717
:101A7000DEB7E82E4B018A018091AA008F7C80613D
:101A80008093AA00998344DEB82E99818823C1F5FA
:101A9000F92E0115110539F0F80120813181821AE2
:101AA000930AE20EF31ECC24DD2425C08091A6000B
:101AB00085FD16C08091A6008E778093A600011543
:101AC000110551F0F801808191818C0D9D1D91834C
:101AD000808344E0B42E14C01BDE882361F00FC065
:101AE0008091AF00F70181937F01089481089108EC
:101AF0000894C11CD11C81149104C1F601C0B82EF8
:101B00008B2D0F90CF91DF911F910F91FF90EF9050
:101B1000DF90CF90BF909F908F900895CF92DF92EB
:101B2000EF92FF920F931F93DF93CF93CDB7DEB762
:101B300029970FB6F894DEBF0FBECDBF6B018A01A7
:101B4000790190E89093EE0396E09093EF0390E094
:101B5000019792609093F1038093F0031092F30346
:101B60001092F20389E090E09093F5038093F403E0
:101B70001092A700CE01019695D08823B9F48B81ED
:101B80009C81F60191838083E816F90670F09093AA
:101B9000F5038093F403C80185D0882339F4F80154
:101BA0009181923019F086E001C085E029960FB648
:101BB000F894DEBF0FBECDBFCF91DF911F910F9183
:101BC000FF90EF90DF90CF900895AF92BF92CF92A9
:101BD000DF92EF92FF920F931F93CF93DF938C01CD
:101BE000EB016A0123C0E881F9815F01208130E0C7
:101BF000C7012E153F0508F4C901E80FF91FF98345
:101C0000E883F80120813181281B390B318320833F
:101C100088819981F6010995823041F0813069F41B
:101C2000A882B982F801F182E08207C0F801E08061
:101C3000F180E114F104B9F682E0DF91CF911F91B8
:101C40000F91FF90EF90DF90CF90BF90AF900895ED
:101C500008951F93CF93DF93182FC8EED3E007C0EA
:101C600081E03FDB8823D1F42097B9F0219711233D
:101C700029F48091A60083FFF3CF0DC0113029F421
:101C80008091A60080FFECCF06C0123049F780910A
:101C9000A60082FFE5CF80E001C084E0DF91CF9114
:101CA0001F910895EF92FF920F931F93CF93DF93AD
:101CB0008C01E0909E00FF2481E0E822FF24C09187
:101CC000F403D091F50380919E00816080939E0083
:101CD00081E007DB882309F0CBC08091AA008F7CCC
:101CE0008093AA001092F5008091A6008F7E8093C9
:101CF000A6008091A9008F7B8093A900EEEEF3E00F
:101D000081918093AF0083E0E63FF807C9F78091A7
:101D1000A60087778093A60080E09BDF882309F0E8
:101D2000A7C08091A90080648093A90081E0D9DADE
:101D3000882309F09DC08091EE0387FF4FC08091FA
:101D4000AA008F7C80618093AA000115110561F5BE
:101D50002DC08091A9008F7B8093A90081E079DF5D
:101D6000882309F085C08091F6009091F7000097D4
:101D700049F4C0E0D0E006C08091AF00F801819343
:101D80008F0121978091F6009091F700009711F054
:101D9000209791F78091A90080648093A900809199
:101DA000A6008E778093A600209799F68091AA00CE
:101DB0008F7C80628093AA008091A9008F7B8093A2
:101DC000A90082E046DF882309F052C08091A60076
:101DD0008B778093A60082E03CDF4AC00115110595
:101DE00099F18091AA008F7C80628093AA008091F3
:101DF000A9008F7B8093A9001CC082E02ADF882382
:101E0000B9F5F80106C081918F018093AF00219749
:101E100059F08F012091F6003091F7008091230155
:101E200090E02817390778F38091A6008B7780938C
:101E3000A600209711F782E00CDF8823C9F4809177
:101E4000A90080648093A9008091AA008F7C8061A2
:101E50008093AA008091A9008F7B8093A90081E0E4
:101E6000F8DE882329F49091A6009E779093A6002F
:101E70009091A90090649093A900E114F10429F4D1
:101E800090919E009E7F90939E0091E09093A80079
:101E90001092A800DF91CF911F910F91FF90EF90CA
:101EA00008951F93182F1092EE0389E08093EF039B
:101EB0001093F0031092F1031092F3031092F203C7
:101EC0001092F5031092F4031092A70080E090E0C6
:101ED000E9DE882349F41093EC03112311F09BE011
:101EE00001C09AE09093F6031F91089592E09093B9
:101EF000EE0391E09093EF031092F1031092F00340
:101F00008093F2031092F3031092F5031092F403FE
:101F10001092A70080E090E0C5CE1F93CF93DF938F
:101F2000C7EAD0E018811770188230DA1883DF9181
:101F3000CF911F910895FC018181843049F48581FE
:101F4000863031F48681813019F48781813011F037
:101F500082E0089580E00895FC018181853051F48C
:101F6000838183708250823038F48281AFDB882392
:101F700019F404C0843021F082E0089580E00895CF
:101F800081E008954F925F926F927F928F929F921D
:101F9000AF92BF92CF92DF92EF92FF920F931F9377
:101FA000DF93CF9300D000D000D0CDB7DEB76C0167
:101FB0007A8369835C834B830696FC018DE0DF01A5
:101FC0001D928A95E9F7EB81FC818181823009F0CD
:101FD0009EC044245524AA24BB2488249924662422
:101FE000772483E0E82EF12CEC0EFD1E8E010F5FAE
:101FF0001F4F4114510439F0C801B7014CEA5FE0AA
:10200000E4DD882389F0C801B7014BE95FE0DDDD3D
:10201000882309F07EC04B805C80AA24BB248824DE
:10202000992466247724E5CFEB81FC81828187FFA8
:1020300006C083818370833021F45F0103C04F01A8
:1020400001C03F0161147104A1F28114910489F26D
:10205000A114B10471F291E0F6018081981771F436
:10206000D30114960D911C91159712962C911297ED
:1020700081811187008730E040E111C0F601828143
:10208000981779F4D40114960D911C911597129616
:102090002C91129783811387028730E040E262E03F
:1020A00014C0F6018481981711F5D50114960D918D
:1020B0001C91159712962C911297858116963C913A
:1020C00016971587048740E163E0882311F054E0F8
:1020D00001C050E0892FE52E3D839E8386DA3D8145
:1020E0009E818823C1F0332311F03093AD009F5FB0
:1020F000973009F0B1CFF2018281D60117968C9307
:10210000179781E016968C93169780E005C081E0C2
:1021100003C082E001C083E026960FB6F894DEBFCC
:102120000FBECDBFCF91DF911F910F91FF90EF9028
:10213000DF90CF90BF90AF909F908F907F906F90E7
:102140005F904F9008951F93CF93DF93FC01EB01B5
:102150008091F6038B3009F03DC086818823D1F150
:102160008685882381F0278530894189528928878F
:1021700039874A875B872F5F3F4F4F4F5F4F2787D6
:10218000308B418B528B82818093A7008091A90074
:102190008F7B8093A900CE016CE070E040E050E0BE
:1021A000F7DB182F8823C9F468816C5041F0CE0109
:1021B0000C9670E040E050E0EBDB882369F48091FE
:1021C000A6008B778093A6008091A90080648093FD
:1021D000A90003C012E001C0182F812FDF91CF9119
:1021E0001F910895CF93DF93FC01EB012091A20092
:1021F0003091A3008091F6038B3009F076C0868180
:10220000882309F472C080818093A7008091A9007F
:102210008F7B8093A90080E197E241C04091A200AA
:102220005091A3004217530729F0009709F45BC0AF
:1022300001979A014091A90040644093A90042810E
:102240004093A7004091A9004F7B4093A900409183
:10225000A60041FD11C04091A90040644093A9002F
:1022600040814093A7004091A9004F7B4093A90073
:102270004091A60041FF0FC08091AA008F709091FD
:10228000AA009073903111F490E801C090E0892B7E
:102290002DDE81E02BC04091F603413031F14091B9
:1022A000A60040FFBBCFCE016CE070E040E050E004
:1022B000D2DB8C819D818330910571F468816C50F3
:1022C00031F0CE010C9670E040E050E0C4DB80912C
:1022D000A6008E778093A6008091A90080648093E9
:1022E000A90080E003C083E001C082E0DF91CF91CC
:1022F0000895FC01CB012091F6032B30A9F426812F
:102300002223A1F020812093A7002091A9002F7BF8
:102310002093A900BA0140E050E09DDB9091A90014
:1023200090649093A900089582E0089582E0089552
:10233000FC018091F6038B30D1F486818823C9F0AB
:1023400084818093A7008091A9008F7B8093A9004E
:102350002091F6003091F70081E02115310509F454
:1023600080E09091A90090649093A900089580E086
:10237000089580E00895FC01CB012091F6032B30F5
:10238000D9F426812223D1F024812093A700209123
:10239000A9002F7B2093A90068E170E040E050E0A5
:1023A0005ADB9091A6009E779093A6009091A90089
:1023B00090649093A900089582E0089582E00895C2
:1023C0009091C80095FFFCCF8093CE0080E090E014
:1023D00008958091C80087FF08C08091C80087FFDA
:1023E00007C02091CE0030E005C02EEF3FEF02C0C5
:1023F0002FEF3FEFC901089580914D02882321F40A
:102400008FE492E00C94E722089580914D02882396
:1024100021F488E392E00C94E72208950F931F9330
:10242000DF93CF93CDB7DEB7C250D2400FB6F8944A
:10243000DEBF0FBECDBF8E010D5F1F4F81E0BE011D
:102440006F5F7F4FA80120E032E068DB882339F01E
:1024500080914D02882329F58BE092E020C06981AC
:102460007A8180E091E0A8018DDD882339F08091A8
:102470004D028823B1F483ED91E011C081E011DDBC
:10248000882339F080914D02882359F48DEA91E038
:1024900006C080914D02882321F481E991E00E94D9
:1024A000E722CE5FDD4F0FB6F894DEBF0FBECDBF83
:1024B000CF91DF911F910F910895DF93CF930F92EA
:1024C000CDB7DEB7898353D990914D028981992385
:1024D000A9F400D000D0EDB7FEB7319620E531E089
:1024E000ADB7BEB712963C932E9311978283138299
:1024F0000E9491220F900F900F900F90FFCF90911C
:102500004D02992339F59091F6032DB73EB7285027
:1025100030400FB6F8943EBF0FBE2DBFEDB7FEB7EB
:1025200031962AEF30E0ADB7BEB712963C932E93AA
:1025300011978283138264831582968317820E9487
:1025400091222DB73EB7285F3F4F0FB6F8943EBF9C
:102550000FBE2DBF0895CF93DF93EC0180914D0204
:10256000882309F0BFC080E2C130D80789F400D0C9
:1025700000D080E099E0EDB7FEB792838183D483E9
:10258000C3830E9491220F900F900F900F901FC055
:1025900000D000D08AEE98E0EDB7FEB79283818339
:1025A000D483C3830E9491220F900F900F900F90BD
:1025B000FE01E150F042E032F10508F088C0E45B32
:1025C000FF4FEE0FFF1F0590F491E02D099400D00E
:1025D0008BED98E07FC000D081EC98E07BC000D00C
:1025E00084EA98E077C000D082E898E073C000D019
:1025F0008EE598E06FC000D08AE398E06BC000D011
:102600008AE198E067C000D08CEF97E063C000D00B
:102610008BED97E05FC000D086EB97E05BC000D009
:1026200081E997E057C000D08AE797E053C000D017
:1026300088E597E04FC000D08CE397E04BC000D016
:1026400082E297E047C000D081E097E043C000D02D
:1026500085EE96E03FC000D088EC96E03BC000D00D
:1026600088EA96E037C000D088E796E033C000D013
:1026700088E596E02FC000D088E396E02BC000D01C
:1026800088E196E027C000D081EF95E023C000D01C
:1026900089ED95E01FC000D088EB95E01BC000D00D
:1026A00082E995E017C000D08DE695E013C000D018
:1026B0008FE495E00FC000D08EE295E00BC000D013
:1026C0008CE095E007C000D087ED94E003C000D017
:1026D0008EEA94E0EDB7FEB7928381830E94912247
:1026E0000F900F90DF91CF9108951F93182F809135
:1026F0004D02882309F048C000D000D0EDB7FEB7E6
:1027000031962CE934E0ADB7BEB712963C932E93C8
:102710001197128313820E9491220F900F900F90B5
:102720000F901330A1F0143028F4113041F0123022
:10273000F1F409C0143079F01038C9F410C000D099
:1027400089E694E00FC000D08CE294E013C000D082
:102750008BEA93E007C000D089E393E00BC000D080
:1027600088ED92E0EDB7FEB79283818309C000D077
:1027700082EC92E0ADB7BEB712969C938E93119700
:102780000E9491220F900F901F9108951F93CF9355
:10279000DF93EB012091F6032B3021F4FC0126811D
:1027A000222361F400D08AEA92E0EDB7FEB792836B
:1027B00081830E9491220F900F9017C013DD182F74
:1027C000882319F092DF103889F48C819D81833041
:1027D000910531F48E819F81F0E281309F0729F0CD
:1027E0008E819F81B8DE10E801C010E0812FDF915B
:1027F000CF911F9108950F931F93CF93DF93EC0117
:102800008B018091F6038B3019F48E81882361F45B
:1028100000D082E992E0EDB7FEB7928381830E94F7
:1028200091220F900F9015C08091F6038B3021F00C
:1028300082E05BDF02E010C0CE0185DC882359F422
:10284000CE01B801CFDC082F882331F04EDF0038ED
:1028500019F400E001C0082F802FDF91CF911F9164
:102860000F9108950F931F93DF93CF93CDB7DEB7EA
:1028700068970FB6F894DEBF0FBECDBF8C01809174
:10288000F6038B3021F4F8018681882369F400D0A7
:102890008AE792E0EDB7FEB7928381830E9491228E
:1028A0000F900F9080E02DC0F8011786108A118AD2
:1028B000128A1686BE016F5F7F4F88E1FB0111927D
:1028C0008A95E9F780E190E0A0E0B0E089839A83FF
:1028D000AB83BC8381E090E09E838D8382E090E1B6
:1028E00098878F8381E090E0A0E0B0E08D879E879D
:1028F000AF87B88BC8017FDF882319F491E0F80116
:10290000968768960FB6F894DEBF0FBECDBFCF9105
:10291000DF911F910F9108950F931F93DF93CF9332
:10292000CDB7DEB768970FB6F894DEBF0FBECDBF48
:102930008C018091F6038B3021F4F8018681882385
:1029400069F400D082E692E0EDB7FEB7928381830E
:102950000E9491220F900F9080E01EC0BE016F5F19
:102960007F4F88E1FB0111928A95E9F78CE090E0B6
:10297000A0E0B0E089839A83AB83BC8381E090E0E0
:102980009E838D8383E090E198878F83C80133DF36
:10299000882311F4F801168668960FB6F894DEBF06
:1029A0000FBECDBFCF91DF911F910F910895209160
:1029B000F6032B3019F4FC018681089580E0089518
:1029C000EF92FF920F931F93CF93DF93FC01DB01F4
:1029D000C081D1811991D183C0838D919C91119730
:1029E000019711969C938E937A0180E090E030E0FD
:1029F000215030401AC082179307D1F06081718155
:102A0000EB016881E70169937E0111506D917C9122
:102A100011976250704011967C936E936081718122
:102A20006E5F7F4F718360830196082F112319F722
:102A3000212F30E0B901660F771F8D919C9111977E
:102A4000861B970B11969C938E9380819181860FA4
:102A5000971F91838083400F511DFA01108281E0FE
:102A6000111180E0DF91CF911F910F91FF90EF90B6
:102A700008952F923F924F925F926F927F928F9222
:102A80009F92AF92BF92CF92DF92EF92FF920F93FD
:102A90001F93DF93CF9300D000D0CDB7DEB77C017A
:102AA0007A8369833C832B83DC012D913C91F9016E
:102AB00081919191A191B1919F01F701318320837F
:102AC000E981FA8120813181245030403183208393
:102AD000EB81FC8110821182128213821482158292
:102AE00016821782222433242101AA24BB246501E3
:102AF00021E0822E912C642E772443C0F70160815F
:102B00007181FB01208131812017310748F1201BA1
:102B1000310B2032310580F4A40102C0440F551F4F
:102B20002A95E2F79A01442737FD4095542F222A2F
:102B3000332A442A552A14C02034310588F42052FF
:102B40003040F40102C0EE0FFF1F2A95E2F79F010B
:102B5000442737FD4095542FA22AB32AC42AD52AE8
:102B60000197A109B1099B01260D371DF70131839A
:102B70002083E981FA812081318126193709318347
:102B800020830097A105B10509F0B8CF9501A601F2
:102B900060E070E080E090E000E20E945308822E46
:102BA000632EDA01920181018228EB81FC8180820F
:102BB000612A6182A22BA283B32BB38364837583C2
:102BC0008683978381E00F900F900F900F90CF91A5
:102BD000DF911F910F91FF90EF90DF90CF90BF900A
:102BE000AF909F908F907F906F905F904F903F90AD
:102BF0002F9008950F931F93DF93CF9300D000D0B1
:102C0000CDB7DEB7FB019A8389837C836B832091E8
:102C10004E02253009F48FC0263090F4223009F49A
:102C200056C0233030F4222309F1213009F0E8C0E6
:102C300040C0233009F45FC0243009F0E1C06BC00C
:102C4000283009F4A8C0293038F4263009F483C0AC
:102C5000273009F0D5C08FC02A3009F4B8C02A3017
:102C600008F4A7C02B3009F0CBC0BFC02081318150
:102C70003093510220935002228133814481558147
:102C800020935202309353024093540250935502C2
:102C90002681378130935702209356023896FC8361
:102CA000EB8308979A83898380914E028F5F80938C
:102CB0004E02CE010396BE016F5F7F4F48E552E0A2
:102CC00024E17EDE80914E028F5F80934E02EB8185
:102CD000FC818191919190936D0280936C02FC83B1
:102CE000EB8389819A8102979A83898380914E022E
:102CF0008F5F80934E02CE010396BE016F5F7F4FC0
:102D000042E02EE632E000E010E1B3DE80914E02B8
:102D10008F5F80934E02CE010396BE016F5F7F4F9F
:102D200042E026E732E000E010E4A3DE80914E02AC
:102D30008F5F80934E02CE010396BE016F5F7F4F7F
:102D400042E02EE732E000E010E593DE80914E0293
:102D50008F5F80934E02CE010396BE016F5F7F4F5F
:102D600042E026E832E000E010E383DE80914E028C
:102D70008F5F80934E02CE010396BE016F5F7F4F3F
:102D800042E02EE832E000E018E373DE80914E026C
:102D90008F5F80934E02CE010396BE016F5F7F4F1F
:102DA00046E952E024E10CDE80914E028F5F809371
:102DB0004E02CE010396BE016F5F7F4F4AEA52E09A
:102DC00024E1FEDD80914E028F5F80934E02CE01A2
:102DD0000396BE016F5F7F4F4EEB52E024E1F0DDC2
:102DE00080914E028F5F80934E02CE010396BE010A
:102DF0006F5F7F4F42ED52E024E1E2DD10924E0220
:102E00000F900F900F900F90CF91DF911F910F9126
:102E100008958F929F92AF92BF92CF92DF92EF92DE
:102E2000FF920F931F93DF93CF93CDB7DEB76897D1
:102E30000FB6F894DEBF0FBECDBF7C018DB69EB637
:102E40008091F6038B3021F4F7018681882369F4A1
:102E500000D086ED9AE0EDB7FEB7928381830E94A1
:102E600091220F900F9080E057C0F7011786108ACB
:102E7000118A128A6E010894C11CD11C88E1F601E6
:102E800011928A95E9F78CE090E0A0E0B0E08983A8
:102E90009A83AB83BC8381E090E09E838D8381E045
:102EA00090E198878F83C701B601A5DC09811A815B
:102EB0000C50104000D000D08CEA9AE0EDB7FEB77D
:102EC00092838183148303830E9491220F900F9039
:102ED0000F900F908DB79EB7801B910B0FB6F89493
:102EE0009EBF0FBE8DBFADB6BEB60894A11CB11C6F
:102EF000C701B501A801FDD98091A6008E77809306
:102F0000A60010924E02C801B50174DE81E08093E4
:102F10004F02C701B6013ADC0FB6F8949EBE0FBE51
:102F20008DBE68960FB6F894DEBF0FBECDBFCF91B1
:102F3000DF911F910F91FF90EF90DF90CF90BF90A6
:102F4000AF909F908F9008958F929F92AF92BF9273
:102F5000CF92DF92EF92FF920F931F93CF93DF9365
:102F60002091F6032B3021F4FC012681222361F409
:102F700000D084E99AE0EDB7FEB7928381830E9486
:102F800091220F900F90F2C120914F02222381F4E1
:102F900040DF182F882361F000D028E73AE0EDB732
:102FA000FEB7328321830E9491220F900F90DFC1E0
:102FB00000D000D089E69AE0EDB7FEB79283818316
:102FC0008091500290915102948383830E949122B8
:102FD00000D086E59AE0EDB7FEB7928381838091B9
:102FE000520290915302A0915402B09155028383F2
:102FF0009483A583B6830E9491220F900F9082E460
:103000009AE0EDB7FEB7928381838091560290914A
:103010005702948383830E9491228BE29AE0EDB75A
:10302000FEB79283818388E592E0948383830E9434
:1030300091228BE19AE0EDB7FEB792838183809174
:103040006C0290916D02948383830E949122A090E0
:103050006E02B0906F02C0907002D0907102E0904A
:103060007202F090730200917402109175020F9039
:103070000F9081E09AE0EDB7FEB7928381830E94C2
:1030800091220F900F90C0E0D0E1E3EF8E2EE9E0A7
:103090009E2EC50181709070009771F000D000D015
:1030A000EDB7FEB792828182D483C3830E949122BE
:1030B0000F900F900F900F902196F0E1C034DF0732
:1030C00061F09501A601B701C80101E00E94E20785
:1030D00059016A017B018C01DCCFA0907602B0908F
:1030E0007702C0907802D0907902E0907A02F09056
:1030F0007B0200917C0210917D0200D08DED99E061
:10310000EDB7FEB7928381830E9491220F900F90BA
:10311000C0E0D0E47FEC872E79E0972EC501817066
:103120009070009771F000D000D0EDB7FEB792829A
:103130008182D483C3830E9491220F900F900F90BD
:103140000F902196F0E4C034DF0761F09501A601ED
:10315000B701C80101E00E94E20759016A017B0141
:103160008C01DCCFA0907E02B0907F02C0908002E4
:10317000D0908102E0908202F0908302009184025C
:103180001091850200D08EEA99E0EDB7FEB79283E8
:1031900081830E9491220F900F90C0E0D0E560EAF9
:1031A000862E69E0962EC50181709070009771F0AF
:1031B00000D000D0EDB7FEB792828182D483C38362
:1031C0000E9491220F900F900F900F902196F0E5A2
:1031D000C034DF0761F09501A601B701C80101E025
:1031E0000E94E20759016A017B018C01DCCFA090AB
:1031F0008602B0908702C0908802D0908902E09049
:103200008A02F0908B0200918C0210918D0200D006
:103210008BE899E0EDB7FEB7928381830E949122FB
:103220000F900F90C0E0D0E35DE7852E59E0952E1A
:10323000C50181709070009771F000D000D0EDB79B
:10324000FEB792828182D483C3830E9491220F9021
:103250000F900F900F902196F0E3C034DF0761F0DC
:103260009501A601B701C80101E00E94E2075901DA
:103270006A017B018C01DCCFA0908E02B0908F029E
:10328000C0909002D0909102E0909202F090930250
:10329000009194021091950200D08AE699E0EDB772
:1032A000FEB7928381830E9491220F900F90C0E01D
:1032B000D8E34CE5842E49E0942EC50181709070CE
:1032C000009771F000D000D0EDB7FEB792828182F6
:1032D000D483C3830E9491220F900F900F900F9080
:1032E0002196F8E3C034DF0761F09501A601B7012C
:1032F000C80101E00E94E20759016A017B018C01CB
:10330000DCCF00D000D087E499E0EDB7FEB7928320
:103310008183C6E9D2E0D483C3830E9491228AE3E9
:1033200099E0EDB7FEB792838183CE0144969483F2
:1033300083830E94912288E299E0EDB7FEB79283E1
:103340008183CE018896948383830E94912286E1B3
:1033500099E0EDB7FEB792838183EC96D483C38363
:103360000E9491220F900F900F900F9010E0812FEC
:10337000DF91CF911F910F91FF90EF90DF90CF9051
:10338000BF90AF909F908F900895AF92BF92CF92D1
:10339000DF92EF92FF920F931F93DF93CF93CDB7FE
:1033A000DEB768970FB6F894DEBF0FBECDBF7C01C5
:1033B000ADB6BEB68091F6038B3021F4F70186815D
:1033C000882369F400D082EE9CE0EDB7FEB79283CB
:1033D00081830E9491220F900F9080E076C0BE0101
:1033E0006F5F7F4F88E1FB0111928A95E9F78CE0CE
:1033F00090E0A0E0B0E089839A83AB83BC8381E056
:1034000090E09E838D8384E090E198878F83C7014D
:10341000F2D9882309F059C009811A810C50104053
:1034200000D000D088EB9CE0EDB7FEB7928381839B
:10343000148303830E9491220F900F900F900F909E
:103440008DB79EB7801B910B0FB6F8949EBF0FBE31
:103450008DBFCDB6DEB60894C11CD11CC701B60124
:10346000A8010E9479118091A6008E778093A60012
:10347000F60180818093E60286010C5F1F4F8091E8
:10348000E602853018F46091E60201C064E020E0B5
:1034900030E014C0F80181919191A191B1918F0117
:1034A000A901440F551F440F551F4B5F5B4FFA0195
:1034B00080839183A283B3832F5F3F4F615050F786
:1034C000C701BE016F5F7F4F61D90FB6F894BEBED2
:1034D0000FBEADBE68960FB6F894DEBF0FBECDBF6F
:1034E000CF91DF911F910F91FF90EF90DF90CF90E0
:1034F000BF90AF900895AF92BF92CF92DF92EF92BC
:10350000FF920F931F93DF93CF93CDB7DEB76A97E8
:103510000FB6F894DEBF0FBECDBF6C01ADB6BEB620
:103520008091F6038B3031F4D60116968C91169764
:10353000882361F400D080EA9CE0EDB7FEB7928367
:103540008183EFD70F900F9080E074C18091E602E5
:103550006817F8F02091E60200D000D000D0EDB757
:10356000FEB731968DE49CE0ADB7BEB712969C9342
:103570008E9311976283138224831582D2D7EDB77D
:10358000FEB736960FB6F894FEBF0FBEEDBF80E8CB
:1035900051C1E62EFF24F701EE0FFF1FEE0FFF1FB4
:1035A000EB5FFB4F80819181A281B381BE016F5F90
:1035B0007F4F28E1FB0111922A95E9F720E130E0E5
:1035C00040E050E029833A834B835C8321E030E084
:1035D0003E832D8325E030E138872F838D879E87BA
:1035E000AF87B88BC60107D9882309F023C1498169
:1035F0005A814C50504000D000D082E29CE0ADB7E0
:10360000BEB712969C938E93119714965C934E932B
:103610001397498F5A8F85D70F900F900F900F9067
:10362000498D5A8DEDB7FEB7E41BF50B0FB6F89434
:10363000FEBF0FBEEDBF0DB71EB70F5F1F4FC60118
:10364000B8010E9479118091A6008E778093A60020
:10365000D8018D919C9111972AE330E0E29EF00110
:10366000E39EF00DF29EF00D1124EB5EFB4F918373
:10367000808312968D919C911397938382831496E5
:103680008D919C9115979583848316967C911697BE
:1036900017966C91179718965C91189719964C91FC
:1036A00019971A963C911A971B962C911B971C966A
:1036B0009C911C971D968C91DF011696768311962E
:1036C0006C93119712965C93129713964C931397E1
:1036D00014963C93149715962C93159716969C93D5
:1036E000169717968C93D8011E967C911E971F965D
:1036F0006C911F9750965C91509751964C915197B1
:1037000052963C91529753962C91539754969C9174
:10371000549755968C91DF011E96768711966C937F
:10372000119712965C93129713964C9313971496D5
:103730003C93149715962C93159716969C93169771
:1037400017968C93D80156962D913D914D915C9191
:103750005997268B378B408F518FA801455E5F4F5D
:103760005A960C915A97003108F00FE0FA01102F89
:1037700020E030E06AE370E0E69EC001E79E900D35
:10378000F69E900D11248B5E9B4F0AC06081DC0178
:10379000A20FB31F5A966C935A9732962F5F3F4FE2
:1037A0001150A0F7802F90E0DC01AA0FBB1FA40FDF
:1037B000B51F2AE330E0E29EF001E39EF00DF29E99
:1037C000F00D1124EB5EFB4FE80FF91F128E6C9188
:1037D000603108F06FE0762F20E030E04AE350E0FF
:1037E000E49EC001E59E900DF49E900D11248B5E29
:1037F0009B4F0AC011964C911197FC01E20FF31FE9
:1038000042A72F5F3F4F12967150A0F78AE390E0D6
:10381000E89EF001E99EF00DF89EF00D1124EB5E9C
:10382000FB4FE60FF11D12A6C601BE016F5F7F4F71
:103830000E94C6130FB6F894BEBE0FBEADBE6A9608
:103840000FB6F894DEBF0FBECDBFCF91DF911F91B1
:103850000F91FF90EF90DF90CF90BF90AF900895C1
:103860002F923F924F925F926F927F928F929F9290
:10387000AF92BF92CF92DF92EF92FF920F931F937E
:10388000DF93CF9300D000D0CDB7DEB78C0180910D
:10389000F6038B3031F4D80116968C911697882355
:1038A00061F400D08AE09CE0EDB7FEB7928381839B
:1038B00038D60F900F90AA240DC1C80166DDA82E3E
:1038C000882309F007C1BB2442EEC42E4BE0D42E5E
:1038D0003AE3832E912C2CEC622E2BE0722E92EB8D
:1038E000492E9BE0592E87E9282E8BE0382E1A832B
:1038F0000983E9C00B2D10E0F801EE0FFF1FEE0F5A
:10390000FF1FEB5FFB4F80819181A281B3812DB7B7
:103910003EB7285030400FB6F8943EBF0FBE2DBFC3
:103920002F5F3F4FEDB7FEB7D282C182F9011383FB
:10393000028384839583A683B783F3D52DB73EB7DF
:10394000285F3F4F0FB6F8943EBF0FBE2DBF898151
:103950009A816B2DD0DD882309F0BBC0089D7001D2
:10396000099DF00C189DF00C1124C7018B5E9B4F34
:103970009C838B83DC018D919C9100D000D0EDB7AE
:10398000FEB77282618294838383CBD5AB81BC8185
:1039900012968D919C911397EDB7FEB7528241829A
:1039A00094838383BED5AB81BC8114968D919C9109
:1039B0001597EDB7FEB73282218294838383B1D508
:1039C000EB81FC813696AB81BC8116966C9151815E
:1039D00042813381248195818681778100D000D016
:1039E00000D0EDB7FEB7319601E81BE0ADB7BEB72A
:1039F00012961C930E9311976283538344833583ED
:103A000026839783808771878CD5EB81FC813E96D6
:103A1000AB81BC811E966C9151814281338124819E
:103A2000958186817781EDB7FEB731960DE61BE073
:103A3000ADB7BEB712961C930E9311976283538352
:103A40004483358326839783808771876AD5EB818A
:103A5000FC8186899789A08DB18D0F900F900F9072
:103A60000F900EE41BE0EDB7FEB712830183838352
:103A70009483A583B68355D5C701815D9B4F0F9075
:103A80000F90E1E3FBE0ADB7BEB71296FC93EE9367
:103A9000119714969C938E93139743D5C701815C1D
:103AA0009B4FEBE1FBE0ADB7BEB71296FC93EE93F4
:103AB000119714969C938E93139733D5B3940F90CC
:103AC0000F900F900F908091E602B81608F412CF75
:103AD00001C0A82E8A2D0F900F900F900F90CF91BC
:103AE000DF911F910F91FF90EF90DF90CF90BF90EB
:103AF000AF909F908F907F906F905F904F903F908E
:103B00002F9008951F9310E02AE330E090E025C045
:103B1000E12FF0E0E29FD001E39FB00DF29FB00DE6
:103B20001124AB5EBB4F4D915C911197481759071B
:103B300099F461157105B9F0EE0FFF1FEE0FFF1F2D
:103B4000EB5FFB4F80819181A281B381FB01808378
:103B50009183A283B38307C01F5F4091E6021417CD
:103B6000B8F28FEF01C080E01F910895EF92FF92AD
:103B70000F931F93DF93CF93CDB7DEB76D970FB63B
:103B8000F894DEBF0FBECDBF8C017A0119821A8274
:103B90001B821C828091F6038B3021F4F801868110
:103BA000882359F400D081E79DE0EDB7FEB79283FA
:103BB0008183B7D40F900F9048C0C8016D8F0E94C9
:103BC00032146D8D882309F03DC0862F90E0BE0130
:103BD0006F5F7F4F97DF009759F000D084E49DE03E
:103BE000EDB7FEB7928381839CD40F900F902AC0CB
:103BF00089819A81AB81BC81BE016B5F7F4F28E1D7
:103C0000FB0111922A95E9F724E130E040E050E011
:103C10002D833E834F83588721E030E03A87298700
:103C20002EE030E13C872B87898B9A8BAB8BBC8B4A
:103C3000C701A0E0B0E08D8B9E8BAF8BB88FC80121
:103C40000E94FB13C8010E948C1480E090E06D96E6
:103C50000FB6F894DEBF0FBECDBFCF91DF911F919D
:103C60000F91FF90EF9008956F927F929F92AF9285
:103C7000BF92CF92DF92EF92FF920F931F93DF9349
:103C8000CF93CDB7DEB768970FB6F894DEBF0FBEFF
:103C9000CDBF8C017B016DB67EB68091F6038B3073
:103CA00031F4D80116968C911697882359F400D0D8
:103CB0008CE29DE0EDB7FEB79283818332D40F9002
:103CC0000F90A7C0C8010E943214882309F0A4C035
:103CD000BE016F5F7F4F88E1DB011D928A95E9F796
:103CE00080E190E0A0E0B0E089839A83AB83BC835D
:103CF00081E090E09E838D8384E190E198878F83BB
:103D0000C701A0E0B0E08D879E87AF87B88BC80160
:103D10000E94FB13882309F082C0E980FA80E4EF57
:103D2000FFEFEE0EFF1EE114F10409F478C000D09D
:103D300000D080E09DE0ADB7BEB712969C938E9305
:103D400011971496FC92EE921397EBD30F900F906D
:103D50000F900F90EDB7FEB7EE19FF090FB6F8946C
:103D6000FEBF0FBEEDBFCDB6DEB60894C11CD11CA0
:103D7000C801B601A7010E9479118091A6008E7733
:103D80008093A6009C2C8AEFA82E8CE0B82E26C02B
:103D90008F7071F46091FF04709100058DE090E0E8
:103DA00083D36091FF04709100058AE090E07CD39A
:103DB00000D000D0EDB7FEB73196ADB7BEB71296C2
:103DC000BC92AE921197D6018D916D0182831382C0
:103DD000A8D3EA940F900F900F900F908C2D891913
:103DE000EE20B1F66091FF04709100058DE090E047
:103DF0005BD36091FF04709100058AE090E054D39A
:103E0000C801BE016F5F7F4F0E94C613C8010E94A8
:103E10008C1420E030E005C02FEF30E002C02FEF1F
:103E20003FEFC9010FB6F8947EBE0FBE6DBE689617
:103E30000FB6F894DEBF0FBECDBFCF91DF911F91BB
:103E40000F91FF90EF90DF90CF90BF90AF909F9039
:103E50007F906F9008950F931F93DF93CF93CDB70B
:103E6000DEB768970FB6F894DEBF0FBECDBF8C01EA
:103E70008091F6038B3009F0EDC0F801868188232C
:103E800009F4E8C0C8010E949811882309F4E2C02F
:103E900000D08CE69FE0EDB7FEB79283818341D3DB
:103EA0000F900F90C801BE016F5F7F4F0E94BB1142
:103EB000082F882309F0D1C08D819E81843091051F
:103EC00009F0CAC08F819885F0E486309F0709F415
:103ED00077C020E487309207F0F4E0E482309E0758
:103EE00009F44AC0F0E483309F0750F420E48030A6
:103EF0009207D1F1E0E481309E0709F0AEC038C0EE
:103F0000F0E484309F0709F443C020E48530920731
:103F100008F050C037C0E0E48C309E0709F46DC053
:103F2000F0E48D309F0780F420E48830920709F494
:103F300053C0E0E488309E0708F448C0F0E48A30BB
:103F40009F0709F08AC053C021EC8130920709F421
:103F500060C0E1EC82309E0709F461C0F0E48D306E
:103F60009F0709F07AC04FC000D088E59FE037C0B6
:103F700000D08BE39FE033C000D000D000D08BE1B5
:103F80009FE00BC000D000D000D089EF9EE005C0BC
:103F900000D000D000D088ED9EE0EDB7FEB7928350
:103FA00081838D859E85AF85B88983839483A5831E
:103FB000B68346C000D000D000D086EB9EE0EDCFA7
:103FC00000D000D000D080E99EE0E7CF00D000D044
:103FD00000D089E69EE0E1CF00D08EE49EE0EDB710
:103FE000FEB7928381839DD20F900F9036C000D090
:103FF00000D000D08EE29EE0D0CF00D000D000D024
:1040000086E09EE0CACF00D000D000D08DED9DE0CC
:104010000BC000D000D000D085EB9DE005C000D0E3
:1040200000D000D089E89DE0EDB7FEB79283818390
:104030002D853E854F855889238334834583568358
:1040400070D28DB79EB706960FB6F8949EBF0FBE7E
:104050008DBF03C000E001C00FEF802F68960FB640
:10406000F894DEBF0FBECDBFCF91DF911F910F91AE
:1040700008958DB79EB708970FB6F8949EBF0FBEF0
:104080008DBFEDB7FEB7319684E291E0ADB7BEB714
:1040900012969C938E93119781E090E09383828394
:1040A0001582148280E190E09783868329D28DB7B0
:1040B0009EB708960FB6F8949EBF0FBE8DBF0895A9
:1040C000823058F400D08EE491E0EDB7FEB79283D1
:1040D000818316D20F900F900895FB018281938106
:1040E00084D121E0009709F420E020934D02089547
:1040F000DF93CF9300D0CDB7DEB7823068F400D025
:104100008BE591E0ADB7BEB712969C938E93119755
:10411000F7D10F900F9027C000D000D000D0EDB79E
:10412000FEB73196DB0112968D919C911397ADB736
:10413000BEB712969C938E9311978EE691E093836F
:104140008283CE0101969583848379D2EDB7FEB741
:1041500036960FB6F894FEBF0FBEEDBF69817A8127
:1041600080E091E081DD0F900F90CF91DF91089575
:1041700080E091E064E070E041E058E3F7CCCF9359
:10418000DF93C0E0D1E0CE010E943214CE0168DBA3
:10419000CE010E948C14DF91CF91089580E091E0D0
:1041A0000C94A41780E091E00E94D71400D000D0B6
:1041B000EDB7FEB7319621E731E0ADB7BEB7129645
:1041C0003C932E931197828313829AD10F900F9074
:1041D0000F900F90089581E08093B90187E891E0F6
:1041E000BFC11092B90187E891E0BAC18091E7029E
:1041F000882389F48091B901813069F48BE891E0DA
:10420000AFD100D08DE891E0EDB7FEB79283818306
:1042100077D10F900F900895CF92DF92EF92FF9297
:104220000F931F93DF93CF93CDB7DEB7C055D04028
:104230000FB6F894DEBF0FBECDBF7C0169E971E017
:10424000F1D09A8389838E010D5F1F4FDD24D394B3
:1042500080E090E069E971E0E5D0D8018D939D930D
:104260008D01BD2DB83211F4CC2414C0009779F71C
:10427000FBCF89819A81D9D0009759F4D801129641
:10428000ED91FC9113978D2DBE016F5F7F4F0995C6
:1042900025C0C3948C2D90E08C01000F111F080FD6
:1042A000191F000F111F035F1D4FF80160817181FD
:1042B00061157105F1F600D000D08BE991E0ADB742
:1042C000BEB712969C938E9311971496FC92EE9221
:1042D000139716D10F900F900F900F9087DFC05B50
:1042E000DF4F0FB6F894DEBF0FBECDBFCF91DF9189
:1042F0001F910F91FF90EF90DF90CF9008950F9353
:104300001F93CF93DF93CAE6D3E018E000E264C0C6
:104310008091C80087FF03C08091CE0002C08FEF5C
:104320009FEF8D3031F08A3321F0883009F041C0A1
:104330001FC0E091E802F091E90210828091B9017A
:10434000882319F08BE891E00BD18AEE92E06AE6BF
:1043500073E074D080916A03882321F08AE693E0A9
:104360005BDF01C043DFD093E902C093E80234C0B1
:104370008091E8029091E90223E08A36920761F188
:1043800058F101979093E9028093E8028091C80068
:1043900085FFFCCF1093CE008091C80085FFFCCF35
:1043A0000093CE008091C80085FFFCCF1093CE0013
:1043B00013C09091B901992331F09091C80095FFF5
:1043C000FCCF8093CE00E091E802F091E902819366
:1043D000F093E902E093E8028091C80087FD98CF4E
:1043E000DF91CF911F910F910895FC0188279927A4
:1043F000E89421912032E9F3293010F02E30C8F3EF
:104400002B3239F02D3231F4689403C045D0820F3D
:10441000911D219120532A30C8F31EF49095819567
:104420009F4F08954AEE53E010C0FB01DC018D91CF
:10443000019080190110D9F3990B0895FB01DC015B
:1044400001900D920020E1F70895FA01A191B08149
:10445000009719F41097E1F0CD01DC01CD010D902A
:10446000002011F4C00113C0FB012191222319F097
:104470002015D9F7F3CFFB012191201519F41E92D5
:10448000119606C02223C1F70D900020A1F7D0019C
:10449000FA01A193B08308957AE0979F902D879FAA
:1044A000802D910D112408950F931F93CF93DF93C7
:1044B0008C01EB018B8181FF1BC082FF0DC02E811F
:1044C0003F818C819D812817390764F4E881F98147
:1044D0000193F983E88306C0E885F985802F099563
:1044E000009731F48E819F8101969F838E8302C055
:1044F0000FEF1FEFC801DF91CF911F910F9108952A
:10450000DF93CF93CDB7DEB7FE0135966191719100
:104510008091FF0490910005AF01B3D0CF91DF915E
:104520000895DF93CF93CDB7DEB7FE013596619145
:1045300071918091FF0490910005DC0113962C91FC
:104540001397286013962C93AF019BD0E091FF0442
:10455000F09100052381277F2383CF91DF91089578
:10456000EF92FF920F931F93CF93DF938C01E09113
:10457000FF04F0910005838181FF1FC0C0E0D0E0FF
:104580000AC0DB011896ED91FC91199709950097E7
:1045900011F0CFEFDFEFF80181918F016091FF04FF
:1045A00070910005882369F7DB011896ED91FC9165
:1045B00019978AE00995009711F0CFEFDFEFCE0150
:1045C000DF91CF911F910F91FF90EF900895EF929F
:1045D000FF920F931F93CF93DF938C01E091FF0421
:1045E000F0910005838181FF20C0C0E0D0E00CC0C5
:1045F000DB011896ED91FC9119970995009711F040
:10460000CFEFDFEF0F5F1F4FF80184916091FF0440
:1046100070910005882361F7DB011896ED91FC91FC
:1046200019978AE00995009711F0CFEFDFEFCE01DF
:10463000DF91CF911F910F91FF90EF900895DF933D
:10464000CF93CDB7DEB72E970FB6F894DEBF0FBE6F
:10465000CDBF85E08C838B899C899A8389839E0159
:10466000295E3F4FCE0101966D897E89A901B6D39F
:104670002E960FB6F894DEBF0FBECDBFCF91DF915F
:1046800008952F923F924F925F926F927F928F92F6
:104690009F92AF92BF92CF92DF92EF92FF920F93D1
:1046A0001F93DF93CF93CDB7DEB72C970FB6F89457
:1046B000DEBF0FBECDBF6C011B018A01FC0117825A
:1046C0001682838181FFC4C12E010894411C511CB4
:1046D000F6019381F10193FD859193FF81911F0173
:1046E000882309F4B1C1853239F493FD859193FF94
:1046F00081911F01853221F490E0B601D5DEE8CF2B
:10470000EE24FF2420E02032B0F48B3269F08C32AA
:1047100028F4803251F0833271F40BC08D3239F0BD
:10472000803349F421602CC02260246029C02860B5
:1047300027C0206125C027FD2CC0382F30533A30C8
:1047400098F426FF08C08E2D880FE82EEE0CEE0C94
:10475000E80EE30E15C08F2D880FF82EFF0CFF0C0E
:10476000F80EF30E20620CC08E3221F426FD6CC1CF
:10477000206406C08C3611F4206802C0883649F4E3
:10478000F10193FD859193FF81911F01882309F029
:10479000BACF982F9554933018F09052933028F454
:1047A0000C5F1F4FFFE3F9830DC0833631F0833771
:1047B00071F0833509F05CC021C0F80180818983E4
:1047C0000E5F1F4F420171E0A72EB12C15C062E0B1
:1047D000662E712C600E711EF8018080918026FF7C
:1047E00003C06E2D70E002C06FEF7FEFC4012C8715
:1047F0002CD45C0183012C852F7716C052E0652EE6
:10480000712C600E711EF8018080918026FF03C01C
:104810006E2D70E002C06FEF7FEFC4012C870AD4C9
:104820005C012C852068830123FD1EC007C080E247
:1048300090E0B6012C8738DEFA942C858F2D90E01D
:10484000A816B906A0F310C0F40127FD859127FF33
:1048500081914F0190E0B6012C8726DE2C85F11066
:10486000FA940894A108B108A114B10469F7E9C049
:10487000843611F0893641F527FF08C0F8016081C0
:104880007181828193810C5F1F4F09C0F8016081A3
:104890007181882777FD8095982F0E5F1F4F4FE617
:1048A000B42EB22297FF09C09095809570956195BE
:1048B0007F4F8F4F9F4FF0E8BF2AA2012AE030E0E0
:1048C0002CD4782E741844C0853731F43FEEB32EC3
:1048D000B2222AE030E025C099EFB92EB2228F36FD
:1048E000C1F0803720F4883509F0AEC00DC08037A4
:1048F00021F0883709F0A8C002C020E1B22AB4FE36
:104900000BC084E0B82A08C0B4FE09C0E6E0BE2AA5
:1049100006C028E030E005C020E130E002C020E120
:1049200032E0B7FE08C0F801608171818281938115
:104930000C5F1F4F07C0F8016081718180E090E03B
:104940000E5F1F4FA201E9D3782E7418FFE7BF2234
:10495000B6FE0BC02EEFB2227E1438F4B4FE07C0B0
:10496000B2FC05C08FEEB82202C0A72C01C0AE2C4D
:104970008B2D90E0B4FE0DC0FE01E70DF11D2081EE
:10498000203319F4E9EEBE2209C0A394B2FE06C09A
:1049900004C086789070009709F0A3948B2C99241A
:1049A000B3FC13C0B0FE0EC0AF1428F4E72CEF0C1C
:1049B000EA18AF2C07C0E72C05C080E290E0B601F2
:1049C00073DDA394AF14C8F304C0AF1410F4FA1845
:1049D00001C0FF2484FE0EC080E390E0B60164DDD8
:1049E00082FE1DC081FE03C088E590E010C088E70C
:1049F00090E00DC0C40186789070009781F081FC32
:104A000002C080E201C08BE2B7FC8DE290E0B6010B
:104A10004BDD05C080E390E0B60146DDEA947E14EC
:104A2000C8F37A94F201E70DF11D808190E0B601A0
:104A30003BDD7720B1F705C080E290E0B60134DDC0
:104A4000FA94FF20C9F744CEF6012681378102C0CF
:104A50002FEF3FEFC9012C960FB6F894DEBF0FBEC3
:104A6000CDBFCF91DF911F910F91FF90EF90DF901D
:104A7000CF90BF90AF909F908F907F906F905F90FE
:104A80004F903F902F90089520FD09C0FC0123FD19
:104A900005C022FF02C0738362835183408308955F
:104AA000EF92FF920F931F9344FD10C046FD10C07C
:104AB000DB01FC01AA0FBB1FEE1FFF1F1094D1F7F3
:104AC0006A0F7B1F8E1F9F1F31E003C033E001C0C0
:104AD00034E0660F771F881F991F3150D1F77B0193
:104AE0008C01E20EF11C011D111DA8019701B701F7
:104AF000CA011F910F91FF90EF900895EF92FF92DE
:104B00000F931F93CF93DF938C01C801A9D2EC01BF
:104B100097FD06C07CD20097C1F7CE01B801E2D262
:104B2000CE01DF91CF911F910F91FF90EF900895EB
:104B30008F929F92AF92BF92DF92EF92FF920F936C
:104B40001F93DF93CF930F92CDB7DEB74C01D62ED4
:104B50005A01122F85D28B3219F08D3241F4106830
:104B6000DA9409F465C0C4017BD297FD61C0312F8E
:104B70003D7F232F2073E1F48033D1F4DA9409F4DC
:104B800043C0C40139836CD2398197FD3DC0326086
:104B9000883711F0883551F43064DA94A9F1C401F2
:104BA00039835ED2398197FF03C02EC036FF306152
:104BB000EE24FF248701282F2053283088F034FD6D
:104BC00009C02A3068F036FF05C02F7D422F4151C1
:104BD000463028F0B401398385D2398112C027507C
:104BE000C801B701432F39835BDF7B018C01398119
:104BF0003260DA9461F0C401398332D2398197FF8F
:104C0000DACF31FD04C014C0EE24FF24870137FF42
:104C100008C010950095F094E094E11CF11C011D72
:104C2000111DC501B801A701232F2EDF81E001C0AE
:104C300080E00F90CF91DF911F910F91FF90EF9047
:104C4000DF90BF90AF909F908F9008956F927F926A
:104C50008F929F92AF92BF92CF92DF92EF92FF928C
:104C60000F931F93DF93CF93CDB7DEB7A1970FB606
:104C7000F894DEBF0FBECDBF6C018A0179019E01A1
:104C80002F5F3F4F80E2F90111928A95E9F7F60113
:104C9000838080E090E0BB24992470E0A1E0B0E044
:104CA000F70183FCA59083FEA1907F01AA2009F45F
:104CB0007DC0FA2DFE3511F4009751F1472F50E0D9
:104CC0004817590744F44A2D4D3551F14D3219F426
:104CD000992001F103C0992009F4BA2C4A2D469578
:104CE00046954695F901E40FF11D4A2D47703D01A7
:104CF00002C0660C771C4A95E2F790809628908255
:104D0000AB1459F0AB1410F4A394E8CFAA94E6CFF7
:104D100071E004C09924939401C099240196C0CFF6
:104D2000992019F08E8180628E83772351F0CE0115
:104D30008196FE013196208120952193E817F9078D
:104D4000D1F7BB24B3944E010894811C911C01C07F
:104D5000BB24C60169A384D169A197FD1FC0282F78
:104D6000269526952695F401E20FF11D208130E06D
:104D7000AC014770507002C0359527954A95E2F70F
:104D800020FD03C0B601AED109C00115110519F00F
:104D9000F80181938F016150D9F602C0BB2031F434
:104DA0000115110529F0F801108202C0EE24FF243C
:104DB000C701A1960FB6F894DEBF0FBECDBFCF914D
:104DC000DF911F910F91FF90EF90DF90CF90BF90F8
:104DD000AF909F908F907F906F9008954F925F92C9
:104DE0006F927F929F92AF92BF92CF92DF92EF929B
:104DF000FF920F931F93DF93CF930F92CDB7DEB740
:104E00007C016B013A01FC011782168200E0DBC0D5
:104E1000812F90E0FCD0009719F0C7016FDED3C05E
:104E2000153241F4F601A3FC3591A3FE31916F01D7
:104E3000353251F4C70114D197FDD1C0181709F4C8
:104E4000C2C0B7014FD1CDC03A3239F4A3FC35917D
:104E5000A3FE31916F0111E001C010E099240EC052
:104E60001260692D70E080E090E040E219DE962E3D
:104E7000F601A3FC3591A3FE31916F01232F20533E
:104E80002A3070F311FF03C0992019F4AAC09924A5
:104E90009A94383619F03C3689F409C0F601A3FC1F
:104EA0003591A3FE31916F01383641F418601460DA
:104EB000F601A3FC3591A3FE31916F01332309F470
:104EC00090C089E79FE0632F70E03983A8D03981D3
:104ED000009709F486C0812F10FD08C0F3014080BF
:104EE000518042E050E0640E751E02C044245524F7
:104EF0003E3649F4F7014681578160E070E0C20117
:104F0000212FC2DD60C0333689F481FD02C09924AF
:104F10009394C701A5D097FD62C04114510419F0C4
:104F2000F20181932F019A94A1F74BC03B3551F4C4
:104F3000C701692DA201960189DE6C01009709F075
:104F400040C03AC0C7013983D9DD398197FD47C0D8
:104F50003F3641F1303728F4343611F1393621F536
:104F600024C0333719F03537F9F41AC0C70178D0A7
:104F70005C0197FD0FC04BD0009721F0C501B70130
:104F8000B1D008C04114510419F0F201A1922F01CF
:104F90009A9461F741145104A1F0F201108211C0FA
:104FA000106203C0106101C01064C701692DA20125
:104FB000212FBEDD882329F4F7018381807379F4E2
:104FC00010C010FF0F5FF701A380F601A3FC15913D
:104FD000A3FE11916F01112309F01ACF02C0002323
:104FE00011F010E002C00FEF1FEFC8010F90CF913A
:104FF000DF911F910F91FF90EF90DF90CF90BF90C6
:10500000AF909F907F906F905F904F900895911117
:10501000E2C0803219F089508550D0F70895FC0124
:105020000590061621F00020D9F7C00108953197A8
:10503000CF010895FC010590615070400110D8F730
:10504000809590958E0F9F1F0895FC0161507040D0
:1050500001900110D8F7809590958E0F9F1F0895AD
:10506000CF93DF93EC013B8130FF36C036FF09C0A0
:105070003F7B3B838E819F8101969F838E832A8114
:1050800029C032FF0FC0E881F9818081992787FD0F
:105090009095009719F430623B831EC03196F983D6
:1050A000E88311C0EA85FB85CE01099597FF0BC007
:1050B0002B813FEF8F3F930711F480E101C080E225
:1050C000822B8B8309C02E813F812F5F3F4F3F830F
:1050D0002E83282F30E002C02FEF3FEFC901DF9170
:1050E000CF910895FB01238120FF13C026FD11C03D
:1050F0003FEF8F3F930769F0828320642F7D2383E6
:10510000268137812150304037832683282F30E095
:1051100002C02FEF3FEFC9010895FA01AA272830F6
:1051200051F1203181F1E8946F936E7F6E5F7F4F74
:105130008F4F9F4FAF4FB1E03ED0B4E03CD0670FF0
:10514000781F891F9A1FA11D680F791F8A1F911D43
:10515000A11D6A0F711D811D911DA11D20D009F493
:1051600068943F912AE0269F11243019305D3193D5
:10517000DEF6CF010895462F4770405D4193B3E0BE
:105180000FD0C9F7F6CF462F4F70405D4A3318F065
:10519000495D31FD4052419302D0A9F7EACFB4E016
:1051A000A6959795879577956795BA95C9F70097CE
:1051B0006105710508959B01AC010A2E069457956F
:1051C000479537952795BA95C9F7620F731F841FC6
:1051D000951FA01D0895992788270895F894FFCF5B
:1051E00001000200030000000000000000000000B9
:1051F0000000000005010000000000800600010022
:105200000008004053544142494C592056455253DE
:10521000494F4E3A253033642E25643B434C4F436F
:105220004B3A25303364204D485A3B0D0A004E65F9
:10523000656420696E7420617267004E6F7420652A
:105240006E6F75676820706172616D732E002578CE
:105250000043616D65726120636F6E6E6563746596
:10526000643A25640D0A004F4B0D000D0053544164
:1052700042494C59203E3E2000200025733A2043ED
:105280006F6D6D616E64206E6F74207265636F6701
:105290006E697A65642E0D0A000169646E3F000034
:1052A00073746174757300656F6600656F6E006777
:1052B00065745F6465765F696E666F006765745FCD
:1052C00073746F726167655F696E666F00636170AA
:1052D000747572650070726F705F646573630073DC
:1052E00065745F717569746500302F3100BA0139DA
:1052F00020BF01C001D220BF01C701F120BF01CBF7
:1053000001EB20BF01CF01CE20BF01DC01BF20BFD8
:1053100001ED01B820BF01F5017820BF01FF016058
:0A5320002009020000000000000058
:00000001FF
