:1000000064C1000080C100007EC100007CC100000E
:100010007AC1000078C1000076C1000074C1000000
:1000200072C1000070C10000A0C500006CC10000DA
:100030006AC1000068C1000066C1000064C1000020
:1000400062C1000060C100005EC100005CC1000030
:100050005AC1000058C1000056C1000054C1000040
:1000600052C1000050C100004EC100004CC1000050
:100070004AC1000048C1000046C1000044C1000060
:1000800042C1000040C100003EC100003CC1000070
:100090003AC1000038C100001B5B33316D44657606
:1000A00020456E756D204572726F720D0A202D2DE0
:1000B000204572726F7220436F64652025640D0ABB
:1000C000202D2D20537562204572726F7220436F70
:1000D00064652025640D0A202D2D20496E2053745F
:1000E0006174652025640D0A1B5B33376D001B5B53
:1000F00033316D486F7374204D6F646520457272A3
:100100006F720D0A202D2D204572726F7220436F81
:1001100064652025640D0A1B5B33376D00537469D9
:100120006C6C20496D616765204465766963652064
:10013000456E756D6572617465642E0D0A004572B9
:10014000726F722053657474696E672044657669B6
:10015000636520436F6E66696775726174696F6E5F
:100160002E0D0A00417474616368656420446576ED
:10017000696365204E6F7420612056616C6964204C
:100180005374696C6C20496D61676520436C6173C1
:1001900073204465766963652E0D0A004572726F9F
:1001A000722052657472696576696E6720436F6E5E
:1001B00066696775726174696F6E204465736372F6
:1001C0006970746F722E0D0A000D0A4465766963BA
:1001D0006520556E61747461636865642E0D0A0054
:1001E0004465766963652041747461636865642E53
:1001F0000D0A00436F756C64206E6F7420636C6F22
:1002000073652050494D412073657373696F6E2E7D
:100210000D0A00436C6F73696E67205365737369D1
:100220006F6E2E2E2E0D0A00446576696365204F91
:1002300066662E0D0A00436F756C64206E6F742025
:100240007475726E206F6666206465766963652ECC
:100250000D0A005475726E696E67206F66662044E1
:1002600065766963652E2E2E0D0A00436F756C64EA
:10027000206E6F74206F70656E2050494D41207361
:10028000657373696F6E2E0D0A004F70656E696E2F
:10029000672053657373696F6E2E2E2E0D0A001B37
:1002A0005B33366D5374696C6C20496D61676520F2
:1002B000486F73742044656D6F2072756E6E696E41
:1002C000672E0D0A1B5B33376D0011241FBECFEF65
:1002D000D0E2DEBFCDBF11E0A0E0B1E0EEEDFEE187
:1002E00000E00BBF02C007900D92A432B107D9F70E
:1002F00011E0A4E2B1E001C01D92A634B107E1F71C
:1003000084D00C946D0F7CCE84B7877F84BF28E1A6
:100310000FB6F89420936000109260000FBE90E03A
:1003200080E80FB6F89480936100909361000FBE4F
:1003300087E690E09093CD008093CC0086E0809398
:10034000CA001092C8002093C900539A5A9AF7D352
:10035000E2E3F1E0F0934101E0934001F0934301C7
:10036000E09342018EE0DF011D928A95E9F783E078
:10037000809335018EE49CE090933B0180933A0199
:1003800087E59CE090933D0180933C010895809126
:1003900031018B30C9F58AE892E00E94920C80E02E
:1003A00091E00E94F90A882319F08BE692E026C0BA
:1003B00083E592E00E94920C80E091E060EC70E9AD
:1003C00040E020E030E00E94C20B80E091E00E941B
:1003D0001E0C882319F086E392E010C088E292E0B8
:1003E0000E94920C83E192E00E94920C80E091E0E6
:1003F0000E94610B882331F083EF91E00E94920C00
:1004000080E0CFC680E0CDC608957EDF8FE992E020
:100410000E94920C7894BBDF00D7FDCF80EE91E074
:100420000C94920C89EC91E00C94920C0F931F9316
:10043000DF93CF93CDB7DEB7C250D2400FB6F8945A
:10044000DEBF0FBECDBF8E010D5F1F4F81E0BE012D
:100450006F5F7F4FA80120E032E0E0D4882319F0DD
:100460008CE991E014C069817A8180E091E0A80173
:1004700009D7882319F084E691E009C081E091D67C
:10048000882319F08EE391E002C08DE191E00E9493
:10049000920CCE5FDD4F0FB6F894DEBF0FBECDBF1E
:1004A000CF91DF911F910F910895DF93CF930F921A
:1004B000CDB7DEB78983DBD200D000D0EDB7FEB771
:1004C00031962EEE30E0ADB7BEB712963C932E9328
:1004D00011978981828313820E94730C0F900F9071
:1004E0000F900F90FFCF909131012DB73EB728505C
:1004F00030400FB6F8943EBF0FBE2DBFEDB7FEB72C
:10050000319628E930E0ADB7BEB712963C932E93F2
:1005100011978283138264831582968317820E94C7
:10052000730C2DB73EB7285F3F4F0FB6F8943EBF10
:100530000FBE2DBF089580919E0090E08170907055
:100540002091A0002D7F2093A00020919E0022608A
:1005500020939E0020919E0021FDFCCF20919E00C3
:10056000216020939E00109227012091A00030E08E
:10057000207230704091A0004F7D4093A0004091C8
:100580009F004F7D40939F004AE050919F0055FF90
:100590000BC040919F004F7D40939F0040919F0072
:1005A0004D7F40939F0008C0EFE9FFE03197F1F7DE
:1005B00000C00000415049F72115310529F0209174
:1005C000A00020622093A000009729F480919E0053
:1005D0008E7F80939E008091A00082608093A00017
:1005E000089540919E0050E0417050702091A0000D
:1005F00030E0207230709091A0009F7D9093A00019
:1006000090919F009F7D90939F0090919E0091609C
:1006100090939E0026C090919F0095FF06C09091F8
:100620009F009F7D90939F00815090913101913068
:10063000D9F09091A60094FF09C01092F500809126
:10064000A6008F7E8093A60082E00FC09091A60046
:1006500091FF07C08091A6008D7F8093A60083E064
:1006600004C08823C1F601C081E04115510529F479
:1006700090919E009E7F90939E002115310529F058
:100680009091A00090629093A0000895EF920F9334
:100690001F93DF93CF93CDB7DEB728970FB6F894AB
:1006A000DEBF0FBECDBF80913101853009F499C006
:1006B000863068F48230C1F1833018F48823A1F0C9
:1006C00008C18330D9F1843009F003C162C087309A
:1006D00009F4A0C0873008F48FC0883009F4B8C08E
:1006E000893009F0F6C0DCC0009125011091260187
:1006F0000115110509F4EDC081E073DF682F88232F
:1007000031F0809124018093310181E0DEC00150FD
:10071000104010932601009325010115110509F0E1
:10072000D8C08091240107C088EE93E09093260101
:100730008093250183E080933101CBC08091250116
:10074000909126019C012150304030932601209346
:100750002501009739F08FE99FE00197F1F700C07C
:100760000000B7C077988091D80080618093D8004E
:100770008091DD008B7F8093DD008091D7008061C8
:100780008093D7008091DD0082608093DD0084E05B
:10079000D2CF80919F0080FF9CC080919F008E7F70
:1007A00080939F0080919F008D7F80939F00809118
:1007B000DF008D7F8093DF008091DE008260809378
:1007C000DE0080919E00816080939E00EBD01092AD
:1007D000310184E690E0909326018093250185E025
:1007E0005CC0A9DE1092310188EC90E09093260164
:1007F0008093250186E051C080E060E040E020E089
:1008000000E410E0EE2471D08091AC0087FF59C065
:1008100087E091CFA9E2B1E0EBE1F1E088E001905F
:100820000D928150E1F7CE010196BCD3682F882349
:1008300009F04AC08885809323017DDE1092310142
:1008400088EC90E0909326018093250188E025C0F4
:100850000091230180E060E040E020E010E0EE2421
:1008600044D08091AC0087FF2CC0A9E2B1E0E3E165
:10087000F1E088E001900D928150E1F780E090E096
:1008800091D3682F882301F51092310184E690E01E
:10089000909326018093250189E08093240119C05B
:1008A00081E08093A1008AE080933101BFDD11C017
:1008B0001ADE8091DD0081608093DD00B3DDEFD032
:1008C00008C060E084E001C083E090913101913084
:1008D00079F728960FB6F894DEBF0FBECDBFCF9143
:1008E000DF911F910F91EF900895EF920F931F9357
:1008F0005E2D6295660F660F607C642B2F70622BF5
:10090000982F526043C09093A7009817A1F428E055
:1009100030E040E003C04F5F220F331F2017310744
:1009200010F44530C1F7242F2295207F252BE62F88
:1009300040E070E008C0E091AA002091AB00709107
:10094000AD004091AE0021FF20C03091A9003E7F54
:100950003093A9003091AB003D7F3093AB003091D4
:10096000A90031603093A900E093AA002093AB0066
:100970007093AD004093AE002091A90020622093B7
:10098000A9002091AC0027FF08C09F5F973008F4B2
:10099000BACF8093A70081E001C080E01F910F9142
:1009A000EF9008951092F80080E08093A7001092D5
:1009B000AE001092A6001092AB009091A9009E7F0D
:1009C0009093A9008F5F873081F708954091A70029
:1009D00090E09093A7002091AC0027FF0EC02091DB
:1009E000AA002F703091AA003073303111F430E832
:1009F00001C030E0232B281749F09F5F973049F75B
:100A0000842F87708093A70080E0089581E0089587
:100A10008091A2009091A30044E62091AA00207347
:100A2000203129F42091A60020FF05C018C0209194
:100A3000A60022FD14C02091A60021FD12C0209125
:100A40003101213081F02091A2003091A3002817BC
:100A5000390719F3442349F04150C901DECF80E042
:100A6000089581E0089582E0089583E0089570D0AC
:100A700077D0E0EEF0E0808181608083E8EDF0E007
:100A800080818F77808319BCA7EDB0E08C918E7F39
:100A90008C9380818F7E808310922801089558D096
:100AA0005FD08091D8008F778093D8008091D80054
:100AB00080688093D8008091D8008F7D8093D80083
:100AC0008091D7008F778093D70084E189BD86E13C
:100AD00089BD09B400FEFDCF81E080933101109201
:100AE000270180E4809323018091D8008064809363
:100AF000D8008091DD0081608093DD008091DD0071
:100B000084608093DD008091D7008F7E8093D70032
:100B10006F9A779A8091DE0081608093DE008091E9
:100B2000DE0084608093DE008091E0008E7F809301
:100B3000E0008091D80080618093D8000895E7EDAF
:100B4000F0E080818160808381E080932801A7CFDD
:100B5000E8EDF0E080818C7F80831092A000089502
:100B60001092DA0010929F0008951F920F920FB614
:100B70000F920BB60F9211242F933F934F935F93D5
:100B80006F937F938F939F93AF93BF93EF93FF9355
:100B900080919F0085FF0AC08091A00085FF06C05C
:100BA00080919F008F7D80939F00D2D180919F0084
:100BB00081FF15C08091A00081FF11C080919F002E
:100BC0008D7F80939F0080919F008E7F80939F00F8
:100BD0008091A0008D7F8093A00024DC60DF809155
:100BE000DF0081FF15C08091DE0081FF11C0809180
:100BF000DF008D7F8093DF0077988091DD0081603A
:100C00008093DD0080E051DC0DDC81E080933101D8
:100C10008091DF0080FF17C08091DE0080FF13C04D
:100C20008091DF008E7F8093DF008091DE008E7FD9
:100C30008093DE00F3DB8091A00082608093A000AF
:100C400082E0809331018091DF0082FF0EC08091AD
:100C5000DE0082FF0AC08091DF008B7F8093DF007F
:100C600082E060E040DCDEDB1ADFFF91EF91BF91B4
:100C7000AF919F918F917F916F915F914F913F9134
:100C80002F910F900BBE0F900FBE0F901F901895D5
:100C90008F929F92BF92CF92DF92EF92FF920F932B
:100CA0001F93DF93CF930F92CDB7DEB7E82E4B01A2
:100CB0008A018091AA008F7C80628093AA00998328
:100CC000A7DEB82E99818823C1F5F92E01151105EB
:100CD00039F0F80120813181821A930AE20EF31E65
:100CE000CC24DD2425C08091A60085FD16C080910E
:100CF000A6008B778093A6000115110551F0F8012D
:100D0000808191818C0D9D1D9183808324E0B22E82
:100D100014C07EDE882361F00FC0F70181917F014E
:100D20008093AF000894810891080894C11CD11CDD
:100D300081149104C1F601C0B82E8B2D0F90CF9174
:100D4000DF911F910F91FF90EF90DF90CF90BF90B8
:100D50009F908F9008958F929F92BF92CF92DF9233
:100D6000EF92FF920F931F93DF93CF930F92CDB724
:100D7000DEB7E82E4B018A018091AA008F7C80614A
:100D80008093AA00998344DEB82E99818823C1F507
:100D9000F92E0115110539F0F80120813181821AEF
:100DA000930AE20EF31ECC24DD2425C08091A60018
:100DB00085FD16C08091A6008E778093A600011550
:100DC000110551F0F801808191818C0D9D1D918359
:100DD000808344E0B42E14C01BDE882361F00FC072
:100DE0008091AF00F70181937F01089481089108F9
:100DF0000894C11CD11C81149104C1F601C0B82E05
:100E00008B2D0F90CF91DF911F910F91FF90EF905D
:100E1000DF90CF90BF909F908F900895CF92DF92F8
:100E2000EF92FF920F931F93DF93CF93CDB7DEB76F
:100E300029970FB6F894DEBF0FBECDBF6B018A01B4
:100E4000790190E89093290196E090932A0190E02F
:100E50000197926090932C0180932B0110922E01A8
:100E600010922D0189E090E09093300180932F0142
:100E70001092A700CE01019695D08823B9F48B81FA
:100E80009C81F60191838083E816F90670F09093B7
:100E9000300180932F01C80185D0882339F4F801EF
:100EA0009181923019F086E001C085E029960FB655
:100EB000F894DEBF0FBECDBFCF91DF911F910F9190
:100EC000FF90EF90DF90CF900895AF92BF92CF92B6
:100ED000DF92EF92FF920F931F93CF93DF938C01DA
:100EE000EB016A0123C0E881F9815F01208130E0D4
:100EF000C7012E153F0508F4C901E80FF91FF98352
:100F0000E883F80120813181281B390B318320834C
:100F100088819981F6010995823041F0813069F428
:100F2000A882B982F801F182E08207C0F801E0806E
:100F3000F180E114F104B9F682E0DF91CF911F91C5
:100F40000F91FF90EF90DF90CF90BF90AF900895FA
:100F500008951F93CF93DF93182FC8EED3E007C0F7
:100F600081E03FDB8823D1F42097B9F0219711234A
:100F700029F48091A60083FFF3CF0DC0113029F42E
:100F80008091A60080FFECCF06C0123049F7809117
:100F9000A60082FFE5CF80E001C084E0DF91CF9121
:100FA0001F910895EF92FF920F931F93CF93DF93BA
:100FB0008C01E0909E00FF2481E0E822FF24C09194
:100FC0002F01D091300180919E00816080939E001E
:100FD00081E007DB882309F0CBC08091AA008F7CD9
:100FE0008093AA001092F5008091A6008F7E8093D6
:100FF000A6008091A9008F7B8093A900E9E2F1E02F
:1010000081918093AF0081E0E133F807C9F78091C7
:10101000A60087778093A60080E09BDF882309F0F5
:10102000A7C08091A90080648093A90081E0D9DAEB
:10103000882309F09DC08091290187FF4FC08091CE
:10104000AA008F7C80618093AA000115110561F5CB
:101050002DC08091A9008F7B8093A90081E079DF6A
:10106000882309F085C08091F6009091F7000097E1
:1010700049F4C0E0D0E006C08091AF00F801819350
:101080008F0121978091F6009091F700009711F061
:10109000209791F78091A90080648093A9008091A6
:1010A000A6008E778093A600209799F68091AA00DB
:1010B0008F7C80628093AA008091A9008F7B8093AF
:1010C000A90082E046DF882309F052C08091A60083
:1010D0008B778093A60082E03CDF4AC001151105A2
:1010E00099F18091AA008F7C80628093AA00809100
:1010F000A9008F7B8093A9001CC082E02ADF88238F
:10110000B9F5F80106C081918F018093AF00219756
:1011100059F08F012091F6003091F7008091230162
:1011200090E02817390778F38091A6008B77809399
:10113000A600209711F782E00CDF8823C9F4809184
:10114000A90080648093A9008091AA008F7C8061AF
:101150008093AA008091A9008F7B8093A90081E0F1
:10116000F8DE882329F49091A6009E779093A6003C
:101170009091A90090649093A900E114F10429F4DE
:1011800090919E009E7F90939E0091E09093A80086
:101190001092A800DF91CF911F910F91FF90EF90D7
:1011A00008951F93182F1092290189E080932A0136
:1011B00010932B0110922C0110922E0110922D01F0
:1011C0001092300110922F011092A70080E090E061
:1011D000E9DE882349F410932701112311F09BE0E5
:1011E00001C09AE0909331011F91089592E090938D
:1011F000290191E090932A0110922C0110922B0169
:1012000080932D0110922E011092300110922F0127
:101210001092A70080E090E0C5CE1F93CF93DF939C
:10122000C7EAD0E018811770188230DA1883DF918E
:10123000CF911F910895FC018181843049F485810B
:10124000863031F48681813019F48781813011F044
:1012500082E0089580E00895FC018181853051F499
:10126000838183708250823038F48281AFDB88239F
:1012700019F404C0843021F082E0089580E00895DC
:1012800081E008954F925F926F927F928F929F922A
:10129000AF92BF92CF92DF92EF92FF920F931F9384
:1012A000DF93CF9300D000D000D0CDB7DEB76C0174
:1012B0007A8369835C834B830696FC018DE0DF01B2
:1012C0001D928A95E9F7EB81FC818181823009F0DA
:1012D0009EC044245524AA24BB248824992466242F
:1012E000772483E0E82EF12CEC0EFD1E8E010F5FBB
:1012F0001F4F4114510439F0C801B7014CE259E0C5
:10130000E4DD882389F0C801B7014BE159E0DDDD58
:10131000882309F07EC04B805C80AA24BB248824EB
:10132000992466247724E5CFEB81FC81828187FFB5
:1013300006C083818370833021F45F0103C04F01B5
:1013400001C03F0161147104A1F28114910489F27A
:10135000A114B10471F291E0F6018081981771F443
:10136000D30114960D911C91159712962C911297FA
:1013700081811187008730E040E111C0F601828150
:10138000981779F4D40114960D911C911597129623
:101390002C91129783811387028730E040E262E04C
:1013A00014C0F6018481981711F5D50114960D919A
:1013B0001C91159712962C911297858116963C9147
:1013C00016971587048740E163E0882311F054E005
:1013D00001C050E0892FE52E3D839E8386DA3D8152
:1013E0009E818823C1F0332311F03093AD009F5FBD
:1013F000973009F0B1CFF2018281D60117968C9314
:10140000179781E016968C93169780E005C081E0CF
:1014100003C082E001C083E026960FB6F894DEBFD9
:101420000FBECDBFCF91DF911F910F91FF90EF9035
:10143000DF90CF90BF90AF909F908F907F906F90F4
:101440005F904F9008951F93CF93DF93FC01EB01C2
:10145000809131018B3009F03DC086818823D1F124
:101460008685882381F0278530894189528928879C
:1014700039874A875B872F5F3F4F4F4F5F4F2787E3
:10148000308B418B528B82818093A7008091A90081
:101490008F7B8093A900CE016CE070E040E050E0CB
:1014A000F7DB182F8823C9F468816C5041F0CE0116
:1014B0000C9670E040E050E0EBDB882369F480910B
:1014C000A6008B778093A6008091A900806480930A
:1014D000A90003C012E001C0182F812FDF91CF9126
:1014E0001F910895CF93DF93FC01EB012091A2009F
:1014F0003091A300809131018B3009F076C0868154
:10150000882309F472C080818093A7008091A9008C
:101510008F7B8093A90080E197E241C04091A200B7
:101520005091A3004217530729F0009709F45BC0BC
:1015300001979A014091A90040644093A90042811B
:101540004093A7004091A9004F7B4093A900409190
:10155000A60041FD11C04091A90040644093A9003C
:1015600040814093A7004091A9004F7B4093A90080
:101570004091A60041FF0FC08091AA008F7090910A
:10158000AA009073903111F490E801C090E0892B8B
:101590002DDE81E02BC040913101413031F140918D
:1015A000A60040FFBBCFCE016CE070E040E050E011
:1015B000D2DB8C819D818330910571F468816C5000
:1015C00031F0CE010C9670E040E050E0C4DB809139
:1015D000A6008E778093A6008091A90080648093F6
:1015E000A90080E003C083E001C082E0DF91CF91D9
:1015F0000895EF92FF920F931F93DF93CF93CDB790
:10160000DEB768970FB6F894DEBF0FBECDBF8C0172
:10161000809131018B3009F044C0F8018681882324
:1016200009F43FC01786108A118A128A16867E0135
:101630000894E11CF11C88E1F70111928A95E9F701
:1016400080E190E0A0E0B0E089839A83AB83BC8323
:1016500081E090E09E838D8382E090E198878F8384
:1016600081E090E0A0E0B0E08D879E87AF87B88BE7
:10167000C801B701E8DE8823B9F4C801B70132DF39
:10168000882391F42D813E812330310561F42F812F
:101690003885F0E221303F0731F491E0F801968778
:1016A00003C082E001C080E868960FB6F894DEBF00
:1016B0000FBECDBFCF91DF911F910F91FF90EF90A3
:1016C0000895EF92FF920F931F93DF93CF93CDB7BF
:1016D000DEB768970FB6F894DEBF0FBECDBF8C01A2
:1016E000809131018B3009F03DC0F801868188235B
:1016F000C9F17E010894E11CF11C88E1F701119207
:101700008A95E9F780E190E0A0E0B0E089839A83D0
:10171000AB83BC8381E090E09E838D8383E090E186
:1017200098878F8381E090E0A0E0B0E08D879E876E
:10173000AF87B88BC801B70186DE8823B1F4C80132
:10174000B701D0DE882389F4F80116862D813E8109
:101750002330310549F42F813885F0E221303F07ED
:1017600019F403C082E001C080E868960FB6F894CF
:10177000DEBF0FBECDBFCF91DF911F910F91FF90C4
:10178000EF900895AF92BF92CF92DF92EF92FF92C7
:101790000F931F93DF93CF93CDB7DEB768970FB644
:1017A000F894DEBF0FBECDBF7C01CB01509131015B
:1017B0005B3091F5D70116965C911697552361F130
:1017C000E42FF0E08E010F5F1F4F48E1D8011D921A
:1017D0004A95E9F7AF014D5F5F4F440F551F440F26
:1017E000551F5A01CC24DD24A982BA82CB82DC8227
:1017F00041E050E05E834D8398878F83DE011D9624
:10180000EE0FFF1FEE0FFF1FCD01B901AF0162D038
:10181000C701B80118DE01C082E068960FB6F894DF
:10182000DEBF0FBECDBFCF91DF911F910F91FF9013
:10183000EF90DF90CF90BF90AF900895DF93CF935C
:10184000CDB7DEB768970FB6F894DEBF0FBECDBF39
:10185000209131012B30B1F4FC012681222391F03B
:10186000BE016F5F7F4F3EDE882379F42D813E817C
:101870002330310549F42F813885F0E221303F07CC
:1018800019F403C082E001C080E868960FB6F894AE
:10189000DEBF0FBECDBFCF91DF9108959091C800FC
:1018A00095FFFCCF8093CE0080E090E0089580917A
:1018B000C80087FF08C08091C80087FF07C020913B
:1018C000CE0030E005C02EEF3FEF02C02FEF3FEF1C
:1018D000C9010895FB01DC0102C001900D92415045
:1018E0005040D8F70895DF93CF93CDB7DEB7FE0110
:1018F0003596619171918091420190914301DC0193
:1019000013962C911397286013962C93AF0142D015
:10191000E0914201F09143012381277F2383CF91FE
:10192000DF910895EF92FF920F931F93CF93DF9370
:101930008C01E0914201F0914301838181FF20C03D
:10194000C0E0D0E00CC0DB011896ED91FC91199736
:101950000995009711F0CFEFDFEF0F5F1F4FF801F0
:1019600084916091420170914301882361F7DB010A
:101970001896ED91FC9119978AE00995009711F05E
:10198000CFEFDFEFCE01DF91CF911F910F91FF904D
:10199000EF9008952F923F924F925F926F927F92B5
:1019A0008F929F92AF92BF92CF92DF92EF92FF926F
:1019B0000F931F93DF93CF93CDB7DEB72C970FB65E
:1019C000F894DEBF0FBECDBF6C011B018A01FC0184
:1019D00017821682838181FFC4C12E010894411CA5
:1019E000511CF6019381F10193FD859193FF819143
:1019F0001F01882309F4B1C1853239F493FD859123
:101A000093FF81911F01853221F490E0B601DBD173
:101A1000E8CFEE24FF2420E02032B0F48B3269F0CE
:101A20008C3228F4803251F0833271F40BC08D3245
:101A300039F0803349F421602CC02260246029C031
:101A4000286027C0206125C027FD2CC0382F3053C7
:101A50003A3098F426FF08C08E2D880FE82EEE0C41
:101A6000EE0CE80EE30E15C08F2D880FF82EFF0C3C
:101A7000FF0CF80EF30E20620CC08E3221F426FD0E
:101A80006CC1206406C08C3611F4206802C0883610
:101A900049F4F10193FD859193FF81911F01882302
:101AA00009F0BACF982F9554933018F09052933094
:101AB00028F40C5F1F4FFFE3F9830DC0833631F02C
:101AC000833771F0833509F05CC021C0F801808153
:101AD00089830E5F1F4F420171E0A72EB12C15C004
:101AE00062E0662E712C600E711EF801808091807C
:101AF00026FF03C06E2D70E002C06FEF7FEFC401C0
:101B00002C8756D15C0183012C852F7716C052E0BB
:101B1000652E712C600E711EF8018080918026FF69
:101B200003C06E2D70E002C06FEF7FEFC4012C8701
:101B300034D15C012C852068830123FD1EC007C0C1
:101B400080E290E0B6012C873ED1FA942C858F2D4F
:101B500090E0A816B906A0F310C0F40127FD859106
:101B600027FF81914F0190E0B6012C872CD12C8565
:101B7000F110FA940894A108B108A114B10469F70E
:101B8000E9C0843611F0893641F527FF08C0F80115
:101B900060817181828193810C5F1F4F09C0F801C0
:101BA00060817181882777FD8095982F0E5F1F4F88
:101BB0004FE6B42EB22297FF09C09095809570959C
:101BC00061957F4F8F4F9F4FF0E8BF2AA2012AE017
:101BD00030E025D1782E741844C0853731F43FEEBB
:101BE000B32EB2222AE030E025C099EFB92EB222FE
:101BF0008F36C1F0803720F4883509F0AEC00DC0B3
:101C0000803721F0883709F0A8C002C020E1B22A4D
:101C1000B4FE0BC084E0B82A08C0B4FE09C0E6E0F8
:101C2000BE2A06C028E030E005C020E130E002C056
:101C300020E132E0B7FE08C0F80160817181828145
:101C400093810C5F1F4F07C0F8016081718180E0B4
:101C500090E00E5F1F4FA201E2D0782E7418FFE7CC
:101C6000BF22B6FE0BC02EEFB2227E1438F4B4FEB3
:101C700007C0B2FC05C08FEEB82202C0A72C01C07D
:101C8000AE2C8B2D90E0B4FE0DC0FE01E70DF11DD2
:101C90002081203319F4E9EEBE2209C0A394B2FEDC
:101CA00006C004C086789070009709F0A3948B2C2E
:101CB0009924B3FC13C0B0FE0EC0AF1428F4E72C77
:101CC000EF0CEA18AF2C07C0E72C05C080E290E0CB
:101CD000B60179D0A394AF14C8F304C0AF1410F4C4
:101CE000FA1801C0FF2484FE0EC080E390E0B60124
:101CF0006AD082FE1DC081FE03C088E590E010C05E
:101D000088E790E00DC0C40186789070009781F05C
:101D100081FC02C080E201C08BE2B7FC8DE290E062
:101D2000B60151D005C080E390E0B6014CD0EA94F2
:101D30007E14C8F37A94F201E70DF11D808190E0E2
:101D4000B60141D07720B1F705C080E290E0B6013E
:101D50003AD0FA94FF20C9F744CEF60126813781A4
:101D600002C02FEF3FEFC9012C960FB6F894DEBFEB
:101D70000FBECDBFCF91DF911F910F91FF90EF90DC
:101D8000DF90CF90BF90AF909F908F907F906F909B
:101D90005F904F903F902F900895FC010590615007
:101DA00070400110D8F7809590958E0F9F1F089571
:101DB000FC016150704001900110D8F7809590951A
:101DC0008E0F9F1F08950F931F93CF93DF938C0166
:101DD000EB018B8181FF1BC082FF0DC02E813F81F3
:101DE0008C819D812817390764F4E881F98101937A
:101DF000F983E88306C0E885F985802F0995009767
:101E000031F48E819F8101969F838E8302C00FEFF4
:101E10001FEFC801DF91CF911F910F910895FA0133
:101E2000AA27283051F1203181F1E8946F936E7F19
:101E30006E5F7F4F8F4F9F4FAF4FB1E03ED0B4E00A
:101E40003CD0670F781F891F9A1FA11D680F791F4B
:101E50008A1F911DA11D6A0F711D811D911DA11D5C
:101E600020D009F468943F912AE0269F112430196C
:101E7000305D3193DEF6CF010895462F4770405D07
:101E80004193B3E00FD0C9F7F6CF462F4F70405DB6
:101E90004A3318F0495D31FD4052419302D0A9F711
:101EA000EACFB4E0A6959795879577956795BA950B
:101EB000C9F700976105710508959B01AC010A2ED1
:101EC00006945795479537952795BA95C9F7620FA8
:0E1ED000731F841F951FA01D0895F894FFCF67
:101EDE0001000200030000000000000000000000EE
:101EEE000000000005010000000000800600010057
:041EFE000008004098
:00000001FF
