:10000000AEC10000CAC10000C8C10000C6C10000E6
:10001000C4C10000C2C10000C0C10000BEC10000D8
:10002000BCC10000BAC100000C945709B6C1000061
:10003000B4C10000B2C10000B0C10000AEC10000F8
:10004000ACC10000AAC10000A8C10000A6C1000008
:10005000A4C10000A2C10000A0C100009EC1000018
:100060009CC100009AC1000098C1000096C1000028
:1000700094C1000092C1000090C100008EC1000038
:100080008CC100008AC1000088C1000086C1000048
:1000900084C1000082C100001B5B33316D436F6D72
:1000A0006D616E64204572726F7220282553292E6F
:1000B0000D0A202D2D204572726F7220436F6465EA
:1000C0002025640D0A1B5B33376D005472616E731B
:1000D000616374696F6E204661696C00526573706C
:1000E0006F6E736520436F646520213D204F4B0088
:1000F000446F6E652E0D0A00436C6F73696E672046
:1001000053657373696F6E2E2E2E0D0A004F706546
:100110006E696E672053657373696F6E2E2E2E0D98
:100120000A004572726F72206174202832290D0A0C
:10013000004572726F72206174202831290D0A0007
:100140002020204465766963652056657273696F67
:100150006E3A2025730D0A002020204D6F64656CD7
:100160003A2025730D0A002020204D616E756661CE
:100170006374757265723A2025730D0A00526574B6
:1001800072696576696E67204465766963652049A2
:100190006E666F2E2E2E0D0A001B5B33316D44658B
:1001A0007620456E756D204572726F720D0A202D96
:1001B0002D204572726F7220436F64652025640D97
:1001C0000A202D2D20537562204572726F722043D4
:1001D0006F64652025640D0A202D2D20496E205363
:1001E000746174652025640D0A1B5B33376D001B39
:1001F0005B33316D486F7374204D6F6465204572B9
:10020000726F720D0A202D2D204572726F7220437D
:100210006F64652025640D0A1B5B33376D005374D2
:10022000696C6C20496D616765204465766963651A
:1002300020456E756D6572617465642E0D0A001B34
:100240005B33316D436F6E74726F6C204572726FE9
:1002500072202853657420436F6E666967757261FA
:1002600074696F6E292E0D0A202D2D204572726F34
:100270007220436F64653A2025640D0A1B5B333797
:100280006D00202D2D204572726F7220436F6465C2
:100290003A2025640D0A1B5B33376D001B5B33313D
:1002A0006D496E76616C6964204465766963652E7C
:1002B0000D0A001B5B33316D436F6E74726F6C20DF
:1002C0004572726F72202847657420436F6E6669AD
:1002D0006775726174696F6E292E0D0A0047657427
:1002E00074696E6720436F6E66696720446174614C
:1002F0002E0D0A001B5B33326D0D0A44657669636F
:100300006520556E61747461636865642E0D0A1B07
:100310005B33376D001B5B33326D44657669636513
:100320002041747461636865642E0D0A1B5B33376A
:100330006D001B5B33366D5374696C6C20496D61C5
:10034000676520486F73742044656D6F2072756E09
:100350006E696E672E0D0A1B5B33376D000011242A
:100360001FBECFEFD0E2DEBFCDBF11E0A0E0B1E015
:10037000EAEAFFE100E00BBF02C007900D92A23154
:10038000B107D9F711E0A2E1B1E001C01D92AC378D
:10039000B107E1F7FCD20C94D30F32CE84B7877F3C
:1003A00084BF28E10FB6F89420936000109260009B
:1003B0000FBEE1E6F0E080E88083108287E690E0FF
:1003C0009093CD008093CC0086E08093CA00109279
:1003D000C8002093C900539A5A9A53D7E8E6F1E02F
:1003E000F0937701E0937601F0937901E09378013F
:1003F0008EE0DF011D928A95E9F783E080936B011F
:100400008DEB9CE0909371018093700186EC9CE0F1
:100410009093730180937201089585E193E00C94A9
:10042000F80C84EF92E00C94F80C1F938DED92E0A1
:100430000E94F80CDBD2182F8823C1F0813019F408
:1004400083EB92E002C08CE992E00E94F80C00D0AD
:1004500000D0EDB7FEB7319622E832E0ADB7BEB7B7
:1004600012963C932E931197128313C081E00E9441
:10047000730C8823B1F000D000D0EDB7FEB73196F1
:100480002FE332E0ADB7BEB712963C932E9311978F
:10049000828313820E94D90C0F900F900F900F90BF
:1004A00004C08EE192E00E94F80C1F910895DF9342
:1004B000CF930F92CDB7DEB789837BD600D000D023
:1004C000EDB7FEB731962FEE31E0ADB7BEB712965D
:1004D0003C932E9311978981828313820E94D90CB9
:1004E0000F900F900F900F90FFCF909167012DB755
:1004F0003EB7285030400FB6F8943EBF0FBE2DBF18
:10050000EDB7FEB7319629E931E0ADB7BEB7129627
:100510003C932E9311978283138264831582968372
:1005200017820E94D90C2DB73EB7285F3F4F0FB6F8
:10053000F8943EBF0FBE2DBF0895DC013C91232FE0
:10054000FB0107C0DC0111964C911197419321509A
:1005500002962223B9F7630F711DFB0110820895E3
:10056000662319F02CED30E002C02BEC30E000D017
:1005700000D000D0EDB7FEB7319648E950E0ADB7F6
:10058000BEB712965C934E93119733832283848374
:1005900015820E94D90C8DB79EB706960FB6F894B7
:1005A0009EBF0FBE8DBF08953F924F925F926F9294
:1005B0007F928F929F92AF92BF92CF92DF92EF92F3
:1005C000FF920F931F93DF93CF9300D0CDB7DEB789
:1005D000EDB6FEB6FA82E9824DB63F2C80916701F6
:1005E0008B3009F0B2C18DE791E00E94F80C28E150
:1005F000522E9DE2692E91E0792ED301E52D1D92B8
:10060000EA95E9F78CE090E0A0E0B0E080932D015E
:1006100090932E01A0932F01B093300181E090E0E0
:10062000909332018093310181E090E19093340105
:10063000809333018BD2B5D2882309F06BC16091CE
:100640004501709146016C507040EDB6FEB6E61A59
:10065000F70A0FB6F894FEBE0FBEEDBE0DB71EB77B
:100660000F5F1F4FC80118D38091A6008E7780932B
:10067000A600D8011896EC91F0E0EE0FFF1FE00FF6
:10068000F11F3996A281B381AA0FBB1FAE0FBF1F06
:100690001696ED91FC911197EE0FFF1F3496EA0F1D
:1006A000FB1FA081B181AA0FBB1F1496AE0FBF1F05
:1006B000ED91FC911197EE0FFF1F3496EA0FFB1F8F
:1006C00000811181000F111F0C5F1F4F0E0F1F1FA4
:1006D000F8018081EDB6FEB6E81AF1080FB6F8947D
:1006E000FEBE0FBEEDBE0894E11CF11CC801B701AF
:1006F00024DF00D000D0EDB7FEB7319687E691E059
:10070000ADB7BEB712969C938E931197E282F38297
:100710000E94D90CF801E080FF24EE0CFF1C089425
:10072000E11CF11CE00EF11ED7018C910F900F908F
:100730000F900F90EDB7FEB7E81BF1090FB6F894D4
:10074000FEBF0FBEEDBF0DB71EB70F5F1F4FC70136
:10075000B801F3DE00D000D0EDB7FEB7319688E5E2
:1007600091E0ADB7BEB712969C938E93119702831A
:1007700013830E94D90CF701808190E0880F991FA4
:1007800001968E0D9F1DDC012C910F900F900F9004
:100790000F90EDB7FEB7E21BF1090FB6F894FEBF5C
:1007A0000FBEEDBF0DB71EB70F5F1F4FB801C5DEFF
:1007B00000D000D0EDB7FEB7319680E491E0ADB740
:1007C000BEB712969C938E931197028313830E9457
:1007D000D90C0F900F900F900F90E3D1882351F018
:1007E00060E0BEDE00D081E391E0EDB7FEB792831A
:1007F00081831BC08091490190914A01833091050A
:1008000039F400914B0110914C010130110591F028
:1008100080914B0161E0A4DE00D082E291E0ADB7AF
:10082000BEB712969C938E9311970E94D90C0F908D
:100830000F9089C08DE091E00E94F80CF301E52C47
:100840001192EA94E9F790E1892E912CA12CB12C18
:1008500080922D0190922E01A0922F01B092300132
:10086000109332010093310182E090E190933401C2
:100870008093330181E0C82ED12CE12CF12CC09261
:100880003901D0923A01E0923B01F0923C015ED1F5
:1008900088D1882309F03EC08091490190914A0196
:1008A0008330910509F046C000914B0110914C0135
:1008B0000130110509F03EC088EF90E00E94F80C6D
:1008C000D3011D925A94E9F780922D0190922E0146
:1008D000A0922F01B09230011093320100933101A8
:1008E00083E090E19093340180933301C09235010D
:1008F000D0923601E0923701F0923801C09239016E
:10090000D0923A01E0923B01F0923C011FD149D1D3
:10091000882311F060E011C08091490190914A0153
:100920008330910539F480914B0190914C018130D5
:10093000910529F080914B0161E012DE04C080EF47
:1009400090E00E94F80C80E0CED7842D932D0FB656
:10095000F8949EBF0FBE8DBFE981FA810FB6F8945F
:10096000FEBF0FBEEDBF0F900F90CF91DF911F9193
:100970000F91FF90EF90DF90CF90BF90AF909F903E
:100980008F907F906F905F904F903F90089506DD1D
:1009900082E393E00E94F80C789406DEE0D7FDCF66
:1009A000FC018181843049F48581863031F486816F
:1009B000813019F48781813011F082E0089580E060
:1009C0000895FC018181853049F4838190E0837032
:1009D000907002978230910518F404C0843021F0A1
:1009E00082E0089580E0089581E008956F927F92FB
:1009F0008F929F92AF92BF92CF92DF92EF92FF922F
:100A00000F931F93DF93CF93CDB7DEB7C450D2407F
:100A10000FB6F894DEBF0FBECDBFAE014B5F5F4F88
:100A20005A83498383E0E82EF12CEC0EFD1E81E011
:100A3000B70120E032E094D5853009F46EC08630ED
:100A400089F0882389F4AA24BB24CC24DD2400E087
:100A500010E0662477249E2C8F2C7E010894E11CE4
:100A6000F11C04C083E05CC081E05AC061147104D1
:100A700041F0892D982DB70141EE54E0C8D5882367
:100A800091F0892D982DB70140ED54E0C0D5882311
:100A900009F045C069807A80AA24BB24CC24DD24D7
:100AA00000E010E0E3CFE981FA81828187FF06C090
:100AB00083818370833021F45F0103C06F0101C023
:100AC0008F010115110591F2C114D10479F2D801F9
:100AD0001496ED91FC91159781E062E040E1129649
:100AE0002C918F01EE24C5D2F6010481158182E09C
:100AF00062E040E22281BDD2D50114960D911C9195
:100B0000159783E063E040E112962C91B2D2F50193
:100B100086818093AD0080E003C082E001C084E064
:100B2000CC5FDD4F0FB6F894DEBF0FBECDBFCF91C7
:100B3000DF911F910F91FF90EF90DF90CF90BF90CA
:100B4000AF909F908F907F906F90089582E08093F8
:100B5000A7008091A9008F7B8093A9008DE291E08E
:100B60006CE070E040E050E035D48091310190912C
:100B700032018130910579F460912D016C5031F092
:100B800089E391E070E040E050E024D48091A60039
:100B90008B778093A6008091A90080648093A90040
:100BA00008952091A2003091A30081E08093A700D6
:100BB0008091A9008F7B8093A90080E197E272E089
:100BC00061E03EC04091A2005091A300421753073C
:100BD00021F0019709F45CC09A014091A90040649A
:100BE0004093A9007093A7004091A9004F7B4093C8
:100BF000A9004091A60041FD10C04091A9004064A9
:100C00004093A9006093A7004091A9004F7B4093B7
:100C1000A9004091A60041FF0FC08091AA008F70EB
:100C20009091AA009073903111F490E801C090E087
:100C3000892B7ED681E0089540916701413051F1C2
:100C40004091A60040FFBECF85E491E06CE070E0EB
:100C500040E050E022D48091490190914A018330D4
:100C6000910579F4609145016C5031F081E591E096
:100C700070E040E050E011D48091A6008E77809320
:100C8000A6008091A90080648093A90080E0089567
:100C900083E0089582E00895CF93DF9321E02093CD
:100CA000A700C9EAD0E028812F7B288340E050E0EC
:100CB000F4D3988190649883DF91CF9108958091C7
:100CC0009E0090E0817090702091A0002D7F209375
:100CD000A00020919E00226020939E0020919E0003
:100CE00021FDFCCF20919E00216020939E00109258
:100CF0005D012091A00030E0207230704091A00092
:100D00004F7D4093A00040919F004F7D40939F00F6
:100D10004AE050919F0055FF0BC040919F004F7DCE
:100D200040939F0040919F004D7F40939F0008C0DB
:100D3000EFE9FFE03197F1F700C00000415049F7BB
:100D40002115310529F02091A00020622093A000F8
:100D5000009729F480919E008E7F80939E00809161
:100D6000A00082608093A000089540919E0050E012
:100D7000417050702091A00030E02072307090914E
:100D8000A0009F7D9093A00090919F009F7D9093E5
:100D90009F0090919E00916090939E0026C090913C
:100DA0009F0095FF06C090919F009F7D90939F00AC
:100DB0008150909167019130D9F09091A60094FFF5
:100DC00009C01092F5008091A6008F7E8093A60046
:100DD00082E00FC09091A60091FF07C08091A6000D
:100DE0008D7F8093A60083E004C08823C1F601C0F4
:100DF00081E04115510529F490919E009E7F9093CA
:100E00009E002115310529F09091A00090629093E9
:100E1000A0000895EF920F931F93DF93CF93CDB768
:100E2000DEB728970FB6F894DEBF0FBECDBF809116
:100E30006701853009F499C0863068F48230C1F1C9
:100E4000833018F48823A1F008C18330D9F18430AD
:100E500009F003C162C0873009F4A0C0873008F4EC
:100E60008FC0883009F4B8C0893009F0F6C0DCC002
:100E700000911301109114010115110509F4EDC041
:100E800081E073DF682F882331F080911201809315
:100E9000670181E0DEC001501040109314010093FF
:100EA00013010115110509F0D8C08091120107C086
:100EB00088EE93E0909314018093130183E0809374
:100EC0006701CBC080911301909114019C012150C6
:100ED00030403093140120931301009739F08FE9CB
:100EE0009FE00197F1F700C00000B7C077988091AC
:100EF000D80080618093D8008091DD008B7F809343
:100F0000DD008091D70080618093D7008091DD0063
:100F100082608093DD0084E0D2CF80919F0080FFCB
:100F20009CC080919F008E7F80939F0080919F0046
:100F30008D7F80939F008091DF008D7F8093DF0005
:100F40008091DE0082608093DE0080919E0081604F
:100F500080939E00EBD01092670184E690E090931E
:100F600014018093130185E05CC0A9DE1092670133
:100F700088EC90E0909314018093130186E051C0B7
:100F800080E060E040E020E000E410E0EE2471D07A
:100F90008091AC0087FF59C087E091CFAFE5B1E009
:100FA000E8E0F1E088E001900D928150E1F7CE0198
:100FB00001969AD3682F882309F04AC088858093C8
:100FC00010017DDE1092670188EC90E0909314018F
:100FD0008093130188E025C00091100180E060E05B
:100FE00040E020E010E0EE2444D08091AC0087FF88
:100FF0002CC0AFE5B1E0E0E0F1E088E001900D92B7
:101000008150E1F780E090E06FD3682F882301F5ED
:101010001092670184E690E090931401809313018D
:1010200089E08093120119C081E08093A1008AE0D9
:1010300080936701FAD911C058DA8091DD00816090
:101040008093DD00EED9CDD008C060E084E001C01F
:1010500083E090916701913079F728960FB6F89464
:10106000DEBF0FBECDBFCF91DF911F910F91EF90EB
:101070000895EF920F931F935E2D6295660F660F92
:10108000607C642B2F70622B982F526043C090932A
:10109000A7009817A1F428E030E040E003C04F5FBC
:1010A000220F331F2017310710F44530C1F7242FCA
:1010B0002295207F252BE62F40E070E008C0E091CC
:1010C000AA002091AB007091AD004091AE0021FFCD
:1010D00020C03091A9003E7F3093A9003091AB0031
:1010E0003D7F3093AB003091A90031603093A9006F
:1010F000E093AA002093AB007093AD004093AE0044
:101100002091A90020622093A9002091AC0027FF24
:1011100008C09F5F973008F4BACF8093A70081E0A2
:1011200001C080E01F910F91EF9008951092F80098
:1011300080E08093A7001092AE001092A60010925B
:10114000AB009091A9009E7F9093A9008F5F87309C
:1011500081F708958091A2009091A30044E6209128
:10116000AA002073203129F42091A60020FF05C099
:1011700018C02091A60022FD14C02091A60021FDD8
:1011800012C020916701213081F02091A20030919E
:10119000A3002817390719F3442349F04150C90126
:1011A000DECF80E0089581E0089582E0089583E035
:1011B000089570D077D0E0EEF0E080818160808388
:1011C000E8EDF0E080818F77808319BCA7EDB0E077
:1011D0008C918E7F8C9380818F7E808310925E01B4
:1011E000089558D05FD08091D8008F778093D80031
:1011F0008091D80080688093D8008091D8008F7D3E
:101200008093D8008091D7008F778093D70084E1B6
:1012100089BD86E189BD09B400FEFDCF81E08093E0
:10122000670110925D0180E4809310018091D800E5
:1012300080648093D8008091DD0081608093DD0020
:101240008091DD0084608093DD008091D7008F7EE7
:101250008093D7006F9A779A8091DE0081608093A7
:10126000DE008091DE0084608093DE008091E000EB
:101270008E7F8093E0008091D80080618093D800B9
:101280000895E7EDF0E080818160808381E08093C4
:101290005E01A7CFE8EDF0E080818C7F8083109223
:1012A000A00008951092DA0010929F0008951F92F6
:1012B0000F920FB60F920BB60F9211242F933F93FC
:1012C0004F935F936F937F938F939F93AF93BF934E
:1012D000EF93FF9380919F0085FF0AC08091A0004B
:1012E00085FF06C080919F008F7D80939F00D2D1A3
:1012F00080919F0081FF15C08091A00081FF11C0E7
:1013000080919F008D7F80939F0080919F008E7FB2
:1013100080939F008091A0008D7F8093A00081D852
:1013200060DF8091DF0081FF15C08091DE0081FFCA
:1013300011C08091DF008D7F8093DF0077988091CE
:10134000DD0081608093DD0080E0B1D86AD881E063
:10135000809367018091DF0080FF17C08091DE00DD
:1013600080FF13C08091DF008E7F8093DF0080912B
:10137000DE008E7F8093DE0050D88091A0008260D6
:101380008093A00082E0809367018091DF0082FF5C
:101390000EC08091DE0082FF0AC08091DF008B7F4B
:1013A0008093DF0082E060E0A0D83BD81ADFFF9195
:1013B000EF91BF91AF919F918F917F916F915F91CD
:1013C0004F913F912F910F900BBE0F900FBE0F903A
:1013D0001F9018958F929F92BF92CF92DF92EF92BB
:1013E000FF920F931F93DF93CF930F92CDB7DEB78A
:1013F000E82E4B018A018091AA008F7C8062809345
:10140000AA009983A7DEB82E99818823C1F5F92E09
:101410000115110539F0F80120813181821A930AF2
:10142000E20EF31ECC24DD2425C08091A60085FDAC
:1014300016C08091A6008B778093A6000115110538
:1014400051F0F801808191818C0D9D1D91838083E5
:1014500024E0B22E14C07EDE882361F00FC0F701B5
:1014600081917F018093AF000894810891080894CE
:10147000C11CD11C81149104C1F601C0B82E8B2D62
:101480000F90CF91DF911F910F91FF90EF90DF9020
:10149000CF90BF909F908F9008958F929F92BF9210
:1014A000CF92DF92EF92FF920F931F93DF93CF9330
:1014B0000F92CDB7DEB7E82E4B018A018091AA00CA
:1014C0008F7C80618093AA00998344DEB82E998135
:1014D0008823C1F5F92E0115110539F0F801208195
:1014E0003181821A930AE20EF31ECC24DD2425C03A
:1014F0008091A60085FD16C08091A6008E7780930E
:10150000A6000115110551F0F801808191818C0D23
:101510009D1D9183808344E0B42E14C01BDE88237C
:1015200061F00FC08091AF00F70181937F010894B3
:10153000810891080894C11CD11C81149104C1F642
:1015400001C0B82E8B2D0F90CF91DF911F910F917D
:10155000FF90EF90DF90CF90BF909F908F90089575
:10156000CF92DF92EF92FF920F931F93DF93CF936F
:10157000CDB7DEB729970FB6F894DEBF0FBECDBF4B
:101580006B018A01790190E890935F0196E0909356
:10159000600190E0019792609093620180936101F5
:1015A000109264011092630189E090E090936601CB
:1015B000809365011092A700CE01019695D08823F3
:1015C000B9F48B819C81F60191838083E816F9063A
:1015D00070F09093660180936501C80185D08823DF
:1015E00039F4F8019181923019F086E001C085E06C
:1015F00029960FB6F894DEBF0FBECDBFCF91DF9115
:101600001F910F91FF90EF90DF90CF900895AF92D0
:10161000BF92CF92DF92EF92FF920F931F93CF93DF
:10162000DF938C01EB016A0123C0E881F9815F013E
:10163000208130E0C7012E153F0508F4C901E80FED
:10164000F91FF983E883F80120813181281B390BC8
:101650003183208388819981F6010995823041F098
:10166000813069F4A882B982F801F182E08207C072
:10167000F801E080F180E114F104B9F682E0DF9135
:10168000CF911F910F91FF90EF90DF90CF90BF907F
:10169000AF90089508951F93CF93DF93182FC8EE4E
:1016A000D3E007C081E061DB8823D1F42097B9F053
:1016B0002197112329F48091A60083FFF3CF0DC059
:1016C000113029F48091A60080FFECCF06C01230C3
:1016D00049F78091A60082FFE5CF80E001C084E059
:1016E000DF91CF911F910895EF92FF920F931F9377
:1016F000CF93DF938C01E0909E00FF2481E0E822ED
:10170000FF24C0916501D091660180919E008160A7
:1017100080939E0081E029DB882309F0CBC0809173
:10172000AA008F7C8093AA001092F5008091A600F9
:101730008F7E8093A6008091A9008F7B8093A90063
:10174000EFE5F1E081918093AF0081E0E736F807A3
:10175000C9F78091A60087778093A60080E09BDF81
:10176000882309F0A7C08091A90080648093A90014
:1017700081E0FBDA882309F09DC080915F0187FF3B
:101780004FC08091AA008F7C80618093AA000115D0
:10179000110561F52DC08091A9008F7B8093A90070
:1017A00081E079DF882309F085C08091F60090916F
:1017B000F700009749F4C0E0D0E006C08091AF0088
:1017C000F80181938F0121978091F6009091F700A5
:1017D000009711F0209791F78091A9008064809381
:1017E000A9008091A6008E778093A600209799F695
:1017F0008091AA008F7C80628093AA008091A900CA
:101800008F7B8093A90082E046DF882309F052C0D5
:101810008091A6008B778093A60082E03CDF4AC0CF
:101820000115110599F18091AA008F7C8062809347
:10183000AA008091A9008F7B8093A9001CC082E040
:101840002ADF8823B9F5F80106C081918F018093C2
:10185000AF00219759F08F012091F6003091F700E9
:101860008091100190E02817390778F38091A60045
:101870008B778093A600209711F782E00CDF8823F6
:10188000C9F48091A90080648093A9008091AA0086
:101890008F7C80618093AA008091A9008F7B8093C8
:1018A000A90081E0F8DE882329F49091A6009E77B4
:1018B0009093A6009091A90090649093A900E114E0
:1018C000F10429F490919E009E7F90939E0091E0F8
:1018D0009093A8001092A800DF91CF911F910F91D3
:1018E000FF90EF9008951F93182F10925F0189E0E9
:1018F0008093600110936101109262011092640163
:101900001092630110926601109265011092A70077
:1019100080E090E0E9DE882349F410935D01112313
:1019200011F09BE001C09AE0909367011F91089528
:1019300092E090935F0191E09093600110926201B8
:10194000109261018093630110926401109266010C
:10195000109265011092A70080E090E0C5CE1F9321
:10196000CF93DF93C7EAD0E018811770188252DA5C
:101970001883DF91CF911F9108959091C80095FF32
:10198000FCCF8093CE0080E090E008958091C80065
:1019900087FF08C08091C80087FF07C02091CE0054
:1019A00030E005C02EEF3FEF02C02FEF3FEFC9013F
:1019B0000895DF93CF93CDB7DEB7FE0135966191E1
:1019C00071918091780190917901DC0113962C91AD
:1019D0001397286013962C93AF0142D0E0917801C1
:1019E000F09179012381277F2383CF91DF9108959F
:1019F000EF92FF920F931F93CF93DF938C01E091AF
:101A00007801F0917901838181FF20C0C0E0D0E0AE
:101A10000CC0DB011896ED91FC9119970995009780
:101A200011F0CFEFDFEF0F5F1F4FF801849160914E
:101A3000780170917901882361F7DB011896ED91A7
:101A4000FC9119978AE00995009711F0CFEFDFEF2D
:101A5000CE01DF91CF911F910F91FF90EF900895EC
:101A60002F923F924F925F926F927F928F929F92AE
:101A7000AF92BF92CF92DF92EF92FF920F931F939C
:101A8000DF93CF93CDB7DEB72C970FB6F894DEBFB8
:101A90000FBECDBF6C011B018A01FC0117821682AB
:101AA000838181FFC4C12E010894411C511CF601A1
:101AB0009381F10193FD859193FF81911F0188230B
:101AC00009F4B1C1853239F493FD859193FF819179
:101AD0001F01853221F490E0B601DBD1E8CFEE247E
:101AE000FF2420E02032B0F48B3269F08C3228F4ED
:101AF000803251F0833271F40BC08D3239F0803373
:101B000049F421602CC02260246029C0286027C0CD
:101B1000206125C027FD2CC0382F30533A3098F46F
:101B200026FF08C08E2D880FE82EEE0CEE0CE80E76
:101B3000E30E15C08F2D880FF82EFF0CFF0CF80E4A
:101B4000F30E20620CC08E3221F426FD6CC120649D
:101B500006C08C3611F4206802C0883649F4F101C1
:101B600093FD859193FF81911F01882309F0BACFDE
:101B7000982F9554933018F09052933028F40C5FBE
:101B80001F4FFFE3F9830DC0833631F0833771F0C7
:101B9000833509F05CC021C0F801808189830E5F24
:101BA0001F4F420171E0A72EB12C15C062E0662ED6
:101BB000712C600E711EF8018080918026FF03C099
:101BC0006E2D70E002C06FEF7FEFC4012C8756D1FD
:101BD0005C0183012C852F7716C052E0652E712C95
:101BE000600E711EF8018080918026FF03C06E2D6B
:101BF00070E002C06FEF7FEFC4012C8734D15C012D
:101C00002C852068830123FD1EC007C080E290E080
:101C1000B6012C873ED1FA942C858F2D90E0A81622
:101C2000B906A0F310C0F40127FD859127FF81912B
:101C30004F0190E0B6012C872CD12C85F110FA943D
:101C40000894A108B108A114B10469F7E9C0843669
:101C500011F0893641F527FF08C0F80160817181D4
:101C6000828193810C5F1F4F09C0F80160817181EF
:101C7000882777FD8095982F0E5F1F4F4FE6B42E73
:101C8000B22297FF09C090958095709561957F4F1E
:101C90008F4F9F4FF0E8BF2AA2012AE030E025D104
:101CA000782E741844C0853731F43FEEB32EB2223B
:101CB0002AE030E025C099EFB92EB2228F36C1F06C
:101CC000803720F4883509F0AEC00DC0803721F090
:101CD000883709F0A8C002C020E1B22AB4FE0BC0C8
:101CE00084E0B82A08C0B4FE09C0E6E0BE2A06C0F7
:101CF00028E030E005C020E130E002C020E132E021
:101D0000B7FE08C0F80160817181828193810C5F08
:101D10001F4F07C0F8016081718180E090E00E5F85
:101D20001F4FA201E2D0782E7418FFE7BF22B6FE43
:101D30000BC02EEFB2227E1438F4B4FE07C0B2FC02
:101D400005C08FEEB82202C0A72C01C0AE2C8B2D8F
:101D500090E0B4FE0DC0FE01E70DF11D208120339F
:101D600019F4E9EEBE2209C0A394B2FE06C004C075
:101D700086789070009709F0A3948B2C9924B3FC7B
:101D800013C0B0FE0EC0AF1428F4E72CEF0CEA1815
:101D9000AF2C07C0E72C05C080E290E0B60179D0F7
:101DA000A394AF14C8F304C0AF1410F4FA1801C020
:101DB000FF2484FE0EC080E390E0B6016AD082FE6C
:101DC0001DC081FE03C088E590E010C088E790E068
:101DD0000DC0C40186789070009781F081FC02C02C
:101DE00080E201C08BE2B7FC8DE290E0B60151D0F9
:101DF00005C080E390E0B6014CD0EA947E14C8F3AD
:101E00007A94F201E70DF11D808190E0B60141D096
:101E10007720B1F705C080E290E0B6013AD0FA949D
:101E2000FF20C9F744CEF6012681378102C02FEF8B
:101E30003FEFC9012C960FB6F894DEBF0FBECDBFA1
:101E4000CF91DF911F910F91FF90EF90DF90CF9096
:101E5000BF90AF909F908F907F906F905F904F90CA
:101E60003F902F900895FC01059061507040011043
:101E7000D8F7809590958E0F9F1F0895FC016150B3
:101E8000704001900110D8F7809590958E0F9F1F9C
:101E900008950F931F93CF93DF938C01EB018B81F8
:101EA00081FF1BC082FF0DC02E813F818C819D81EF
:101EB0002817390764F4E881F9810193F983E883ED
:101EC00006C0E885F985802F0995009731F48E8149
:101ED0009F8101969F838E8302C00FEF1FEFC80181
:101EE000DF91CF911F910F910895FA01AA27283011
:101EF00051F1203181F1E8946F936E7F6E5F7F4FD7
:101F00008F4F9F4FAF4FB1E03ED0B4E03CD0670F52
:101F1000781F891F9A1FA11D680F791F8A1F911DA5
:101F2000A11D6A0F711D811D911DA11D20D009F4F5
:101F300068943F912AE0269F11243019305D319337
:101F4000DEF6CF010895462F4770405D4193B3E020
:101F50000FD0C9F7F6CF462F4F70405D4A3318F0C7
:101F6000495D31FD4052419302D0A9F7EACFB4E078
:101F7000A6959795879577956795BA95C9F7009730
:101F80006105710508959B01AC010A2E06945795D1
:101F9000479537952795BA95C9F7620F731F841F28
:0A1FA000951FA01D0895F894FFCFCF
:101FAA000005010000000000800600010000080092
:021FBA004000E5
:00000001FF
