:100000000CC4000028C4000026C4000024C4000062
:1000100022C4000020C400001EC400001CC4000054
:100020001AC4000018C400000C948B0914C400000A
:1000300012C4000010C400000EC400000CC4000074
:100040000AC4000008C4000006C4000004C4000084
:1000500002C4000000C40000FEC30000FCC3000096
:10006000FAC300000C9406200C943520F4C3000061
:10007000F2C30000F0C30000EEC30000ECC30000B8
:10008000EAC30000E8C30000E6C30000E4C30000C8
:10009000E2C30000E0C30000E01110121C12F811CE
:1000A00004122812341240124C12581264127012A8
:1000B0007C1288129412A012AC12B812C412D01280
:1000C000DC12E812F41200130C131813241330136B
:1000D0003C1348135413EC11446576696365206E34
:1000E0006F7420636F6E6E65637465642E0D0A0015
:1000F000446576696365206E6F7420636F6E6E650C
:10010000637465642E0D0A00446576696365206E2C
:100110006F7420636F6E6E65637465642E0D0A00E4
:10012000446576696365206E6F7420636F6E6E65DB
:10013000637465642E0D0A00446576696365206EFC
:100140006F7420636F6E6E65637465642E0D0A00B4
:10015000556E7265636F676E697A65642065727249
:100160006F722E0D0A004572726F7220636F6465A4
:1001700020666F7220736F6D65205374696C6C20FC
:10018000496D61676520486F73742066756E63748E
:10019000696F6E732C20696E6469636174696E6740
:1001A0002061206C6F676963616C2028616E642038
:1001B0006E6F742068617264776172652920657260
:1001C000726F722E0D0A00496E6469636174657303
:1001D000207468617420746865207069706520629D
:1001E000616E6B20626563616D652066756C6C2F56
:1001F000656D707479206265666F726520746865DC
:1002000020636F6D706C65746520636F6E74656ECE
:100210007473206F66207468652073747265616DF5
:1002200020636F756C64206265207472616E736602
:1002300065727265642E0D0A0054686520646576E7
:10024000696365206661696C656420746F20616311
:1002500063657074206F722073656E6420746865C6
:10026000206E657874207061636B657420776974A3
:1002700068696E2074686520736F66747761726553
:100280002074696D656F757420706572696F642084
:1002900073657420627920746865205553425F53FA
:1002A000545245414D5F54494D454F55545F4D5350
:1002B000206D6163726F2E0D0A0044657669636577
:1002C0002077617320646973636F6E6E6563746514
:1002D000642066726F6D2074686520686F73742087
:1002E000647572696E6720746865207472616E73DC
:1002F0006665722E0D0A0054686520646576696330
:1003000065207374616C6C65642074686520706925
:10031000706520647572696E6720746865207472F8
:10032000616E736665722E0D0A0050494D4120457D
:1003300072726F7220282564293A20001B5B3331CA
:100340006D556E646566696E6564206F72205665D2
:100350006E646F722053706563696669630D0A1B72
:100360005B33376D001B5B33316D537065636966BA
:1003700069636174696F6E206F6620446573746988
:100380006E6174696F6E20556E737570706F7274E4
:1003900065640D0A1B5B33376D001B5B33316D5495
:1003A00072616E73616374696F6E2043616E636521
:1003B0006C6C65640D0A1B5B33376D001B5B33315E
:1003C0006D53657373696F6E20416C7265616479FA
:1003D000204F70656E0D0A1B5B33376D001B5B335E
:1003E000316D496E76616C696420506172616D6532
:1003F0007465720D0A1B5B33376D001B5B33316D07
:10040000496E76616C6964204465766963655072F3
:100410006F702056616C75650D0A1B5B33376D007C
:100420001B5B33316D496E76616C6964204465767F
:1004300069636550726F7020466F726D61740D0A4A
:100440001B5B33376D001B5B33316D496E76616C1E
:10045000696420506172656E744F626A6563740DE1
:100460000A1B5B33376D001B5B33316D4465766966
:10047000636520427573790D0A1B5B33376D001B72
:100480005B33316D4361707475726520416C7265C8
:10049000616479205465726D696E617465640D0ADA
:1004A0001B5B33376D001B5B33316D556E6B6E6FAD
:1004B000776E2056656E646F7220436F64650D0A17
:1004C0001B5B33376D001B5B33316D496E76616C9E
:1004D000696420436F646520466F726D61740D0A14
:1004E0001B5B33376D001B5B33316D4E6F205661E4
:1004F0006C6964204F626A656374496E666F0D0AA9
:100500001B5B33376D001B5B33316D537065636963
:100510006669636174696F6E20427920466F726DFF
:10052000617420556E737570706F727465640D0A16
:100530001B5B33376D001B5B33316D53746F72651A
:10054000204E6F7420417661696C61626C650D0AA2
:100550001B5B33376D001B5B33316D506172746907
:10056000616C2044656C6574696F6E0D0A1B5B33AA
:10057000376D001B5B33316D53656C665465737466
:10058000204661696C65640D0A1B5B33376D001B87
:100590005B33316D4E6F205468756D626E61696CAE
:1005A0002050726573656E740D0A1B5B33376D00E6
:1005B0001B5B33316D4163636573732044656E6902
:1005C00065640D0A1B5B33376D001B5B33316D5364
:1005D000746F726520526561642D4F6E6C790D0ADF
:1005E0001B5B33376D001B5B33316D4F626A656394
:1005F0007420577269746550726F746563746564B2
:100600000D0A1B5B33376D001B5B33316D53746F09
:1006100072652046756C6C0D0A1B5B33376D001BD1
:100620005B33316D496E76616C6964204F626A6537
:100630006374466F726D6174436F64650D0A1B5B72
:1006400033376D001B5B33316D44657669636550EC
:10065000726F70204E6F7420537570706F72746576
:10066000640D0A1B5B33376D001B5B33316D496EC4
:1006700076616C6964204F626A65637448616E6478
:100680006C650D0A1B5B33376D001B5B33316D49A5
:100690006E76616C69642053746F7261676549445A
:1006A0000D0A1B5B33376D001B5B33316D496E6385
:1006B0006F6D706C657465205472616E73666572DF
:1006C0000D0A1B5B33376D001B5B33316D5061725C
:1006D000616D65746572204E6F7420537570706F14
:1006E000727465640D0A1B5B33376D001B5B33311D
:1006F0006D4F7065726174696F6E204E6F74205318
:100700007570706F727465640D0A1B5B33376D0012
:100710001B5B33316D496E76616C69642054726184
:100720006E73616374696F6E49440D0A1B5B3337E6
:100730006D001B5B33316D53657373696F6E204EB3
:100740006F74204F70656E0D0A1B5B33376D001B95
:100750005B33316D47656E6572616C204572726FF7
:10076000720D0A1B5B33376D001B5B33366D4F4BCD
:100770000D0A1B5B33376D001B5B33316D09095B61
:100780003078253034785D201B5B33376D001B5B80
:1007900033366D09095B3078253034785D201B5B7A
:1007A00033376D00446576696365206E6F7420632E
:1007B0006F6E6E65637465642E0D0A00446576691C
:1007C0006365206E6F7420636F6E6E65637465641D
:1007D0002E0D0A000D0A53746F72616765206E6FEB
:1007E0007420666F756E642E2052756E2067657476
:1007F0005F73746F726167655F696E666F2E2E2E10
:1008000000446576696365206E6F7420636F6E6E59
:1008100065637465642E0D0A000011241FBECFEFBE
:10082000D0E2DEBFCDBF11E0A0E0B1E0E8EAF6E43F
:1008300000E00BBF02C007900D92A234B107D9F7B8
:1008400015E0A2E4B1E001C01D92A43DB107E1F7BB
:1008500076D00C945223D4CB84B7877F84BF88E1B1
:100860000FB6F89480936000109260000FBE90E085
:1008700080E80FB6F89480936100909361000FBEFA
:1008800088E090E00E94622030D5109244011092DE
:10089000450110924601109247010895809144014C
:1008A00090914501A0914601B09147010196A11D8B
:1008B000B11D8093440190934501A0934601B093EC
:1008C00047018091440190914501A0914601B0916A
:1008D0004701803828E3920721E0A20720E0B20711
:1008E00029F0109219021092180208950E94B51F63
:1008F0001092440110924501109246011092470156
:10090000809143018F5F8093430180914301833045
:1009100051F08091160290911702909319028093E2
:1009200018020C94581B109243018091120290916E
:10093000130290931902809318020C94581B8CDFB9
:1009400078940E944B0D0E94E31A0E94471880E0A1
:1009500091E00E9499170E94191BA0DFF2CF8091AD
:100960009E0090E0817090702091A0002D7F2093D8
:10097000A00020919E00226020939E0020919E0066
:1009800021FDFCCF20919E00216020939E001092BB
:100990005F042091A00030E0207230704091A000F0
:1009A0004F7D4093A00040919F004F7D40939F005A
:1009B00040919F0045FD75C0EFE9FFE03197F1F7E9
:1009C00000C0000040919F0045FD6BC0EFE9FFE0D3
:1009D0003197F1F700C0000040919F0045FD61C0D4
:1009E000EFE9FFE03197F1F700C0000040919F0070
:1009F00045FD57C0EFE9FFE03197F1F700C0000077
:100A000040919F0045FD4DC0EFE9FFE03197F1F7C0
:100A100000C0000040919F0045FD43C0EFE9FFE0AA
:100A20003197F1F700C0000040919F0045FD39C0AB
:100A3000EFE9FFE03197F1F700C0000040919F001F
:100A400045FD2FC0EFE9FFE03197F1F700C000004E
:100A500040919F0045FD25C0EFE9FFE03197F1F798
:100A600000C0000040919F0045FD1BC0EFE9FFE082
:100A70003197F1F700C000002115310529F02091D0
:100A8000A00020622093A000009729F480919E008E
:100A90008E7F80939E008091A00082608093A00052
:100AA000089540919F004F7D40939F0040919F008B
:100AB0004D7F40939F00E0CFEF920F931F93DF9302
:100AC000CF93CDB7DEB728970FB6F894DEBF0FBE31
:100AD000CDBF80916904853009F432C1863020F1A0
:100AE000873009F412C1873008F053C080E060E01D
:100AF00040E020E000E410E0EE24C5D18091AC009D
:100B000087FD44C160E084E090916904913009F46C
:100B10004DC00E9498118091DD0081608093DD00BE
:100B20000E945A1192D342C0823009F4FFC0833030
:100B300008F448C0833009F499C08430B9F5809135
:100B40009F0080FF33C080919F008E7F80939F0025
:100B500080919F008D7F80939F008091DF008D7F2B
:100B60008093DF008091DE0082608093DE008091C0
:100B70009E00816080939E00FBD11092690484E600
:100B800090E090934A018093490185E08093480169
:100B90000DC0883009F491C0893041F481E0809320
:100BA000A1008AE0809369040E94641128960FB620
:100BB000F894DEBF0FBECDBFCF91DF911F910F9193
:100BC000EF900895882391F72091490130914A01CF
:100BD0002115310559F3E0919E00F0E0E170F070CD
:100BE0004091A00050E0407250708091A0008F7D35
:100BF0008093A00080919F008F7D80939F008091C3
:100C00009E00816080939E0080919F0085FFB5C00B
:100C100080919F008F7D80939F0090E08091690478
:100C2000813009F4D6C08091A60084FDC9C08091AE
:100C3000A60081FDAFC0992339F760E0309729F411
:100C400080919E008E7F80939E004115510529F072
:100C50008091A00080628093A000662309F4A1C067
:100C6000809148018093690481E04ECF80914901D1
:100C700090914A019C012150304030934A012093C9
:100C80004901009709F07BC077988091D800806176
:100C90008093D8008091DD008B7F8093DD00809170
:100CA000D70080618093D7008091DD0082608093BF
:100CB000DD0084E08093690479CF0091240180E015
:100CC00060E040E020E010E0EE24DDD08091AC0058
:100CD00087FF18CFA1E6B4E0E4E1F1E088E00190FD
:100CE0000D928150E1F780E090E069D5682F88236C
:100CF000D9F41092690484E690E090934A018093BD
:100D0000490189E08093480151CFA1E6B4E0ECE1CC
:100D1000F1E088E001900D928150E1F7CE0101965B
:100D20004ED5682F8823C9F083E0EECE88EE93E09D
:100D300090934A018093490183E08093690436CF00
:100D40000EDE1092690488EC90E090934A01809343
:100D5000490186E08093480129CF8885809324014A
:100D6000FEDD1092690488EC90E090934A01809334
:100D7000490188E08093480119CF91E04FCF8FE976
:100D80009FE00197F1F700C0000010CF87E080934B
:100D900069040CCF8091A6008D7F8093A60063E04C
:100DA0004DCF2150304030934A0120934901211505
:100DB000310509F0FBCE8091480180936904F6CE9D
:100DC0001092F5008091A6008F7E8093A60062E0CD
:100DD00035CF61E033CF40919E0050E041705070BC
:100DE0002091A00030E0207230709091A0009F7D93
:100DF0009093A00090919F009F7D90939F00909171
:100E00009E00916090939E00882319F43AC0882335
:100E1000E1F090919F0095FF06C090919F009F7D0B
:100E200090939F008150909169049130F9F09091D6
:100E3000A60094FD1DC09091A60091FFE8CF80917F
:100E4000A6008D7F8093A60083E04115510529F40B
:100E500090919E009E7F90939E002115310529F070
:100E60009091A00090629093A000089581E0EDCF52
:100E70001092F5008091A6008F7E8093A60082E0FC
:100E8000E4CF80E0E2CFEF920F931F93873008F01A
:100E900055C06295660F660F607C642B2F70622BC5
:100EA000982FEE2DE2602DC07091AA002091AB002A
:100EB0005091AD004091AE0021FF20C03091A900BB
:100EC0003E7F3093A9003091AB003D7F3093AB0063
:100ED0003091A90031603093A9007093AA0020934B
:100EE000AB005093AD004093AE002091A90020626A
:100EF0002093A9002091AC0027FF27C09F5F973067
:100F0000E8F49093A700981779F60930110510F1CD
:100F10000131110508F10132110510F101341105FB
:100F200008F10138110500F121E001301207F0F05D
:100F300020E52E2B762F40E050E0BECF8093A70017
:100F400081E01F910F91EF90089580E01F910F9124
:100F5000EF90089520E0EDCF21E02295207FE9CFAA
:100F600022E0FBCF23E0F9CF24E0F7CF25E0F5CF57
:100F7000CF93DF931092F80027EA30E0D9011C925A
:100F80008EEA90E0FC011082C6EAD0E018826BEA9B
:100F900070E0DB011C92E9EAF0E040814E7F408383
:100FA00041E0D9014C93DC011C921882DB011C92B8
:100FB00040814E7F408342E0D9014C93DC011C927A
:100FC0001882DB011C9240814E7F408343E0D901AF
:100FD0004C93DC011C921882DB011C9240814E7FF5
:100FE000408344E0D9014C93DC011C921882DB0160
:100FF0001C9240814E7F408345E0D9014C93DC0137
:101000001C921882DB011C9240814E7F408346E097
:10101000D9014C93DC011C921882DB011C92808167
:101020008E7F8083DF91CF9108952091A700109249
:10103000A7009091AC0097FD2FC091E09093A7007E
:101040009091AC0097FD37C092E09093A7009091EB
:10105000AC0097FD44C093E09093A7009091AC0042
:1010600097FD51C094E09093A7009091AC0097FD3C
:101070005EC095E09093A7009091AC0097FD6BC087
:1010800096E09093A7009091AC0097FD78C02F70E8
:101090002093A70080E008959091AA009F7030915E
:1010A000AA003073303109F479C030E0932B8917EE
:1010B00021F681E008959091AA009F703091AA00D6
:1010C0003073303109F46CC030E0932B891789F309
:1010D00092E09093A7009091AC0097FFBCCF9091C5
:1010E000AA009F703091AA003073303109F45AC0C1
:1010F00030E0932B8917E9F293E09093A700909149
:10110000AC0097FFAFCF9091AA009F703091AA00DA
:101110003073303109F448C030E0932B891749F21D
:1011200094E09093A7009091AC0097FFA2CF90918C
:10113000AA009F703091AA0030733031B9F130E0CD
:10114000932B891709F4B5CF95E09093A700909160
:10115000AC0097FF95CF9091AA009F703091AA00A4
:101160003073303129F130E0932B891709F4A1CF86
:1011700096E09093A7009091AC0097FF88CF909154
:10118000AA009F703091AA003073303199F030E09E
:10119000932B891709F07BCF81E0089530E886CF43
:1011A00030E893CF30E8A5CF30E8B7CF30E8C8CFEC
:1011B00030E8DACF30E8ECCF2091A2003091A300E4
:1011C00045E68091AA0080738031D9F08091A60015
:1011D00082FD1BC08091A60081FD19C08091690429
:1011E0008130B9F08091A2009091A30028173907AF
:1011F00041F3415081F09C018091AA0080738031BD
:1012000029F78091A60080FFE5CF80E0089581E076
:10121000089582E0089583E0089570D077D0E0EEDD
:10122000F0E0808181608083E8EDF0E080818F775D
:10123000808319BCA7EDB0E08C918E7F8C93808168
:101240008F7E808310926004089558D05FD0809183
:10125000D8008F778093D8008091D80080688093E1
:10126000D8008091D8008F7D8093D8008091D700DE
:101270008F778093D70084E189BD86E189BD09B469
:1012800000FEFDCF81E08093690410925F0480E44A
:10129000809324018091D80080648093D80080914D
:1012A000DD0081608093DD008091DD0084608093AB
:1012B000DD008091D7008F7E8093D7006F9A779A58
:1012C0008091DE0081608093DE008091DE0084608A
:1012D0008093DE008091E0008E7F8093E00080911B
:1012E000D80080618093D8000895E7EDF0E0808118
:1012F0008160808381E080936004A7CFE8EDF0E017
:1013000080818C7F80831092A00008951092DA0073
:1013100010929F0008951F920F920FB60F920BB676
:101320000F9211242F933F934F935F936F937F936B
:101330008F939F93AF93BF93EF93FF9380919F0001
:1013400085FF04C08091A00085FD52C080919F0060
:1013500081FF04C08091A00081FD51C08091DF0019
:1013600081FF04C08091DE0081FD5BC08091DF00C1
:1013700080FF04C08091DE0080FD26C08091DF00E8
:1013800082FF04C08091DE0082FD13C0FF91EF91C7
:10139000BF91AF919F918F917F916F915F914F918D
:1013A0003F912F910F900BBE0F900FBE0F901F908B
:1013B00018958091DF008B7F8093DF0082E060E0F2
:1013C000B7D778D742DFE2CF8091DF008E7F80935E
:1013D000DF008091DE008E7F8093DE0060D78091F9
:1013E000A00082608093A00082E080936904C6CF51
:1013F00080919F008F7D80939F00A1D1A7CF809186
:101400009F008D7F80939F0080919F008E7F8093AF
:101410009F008091A0008D7F8093A0004BD715DFA7
:101420009DCF8091DF008D7F8093DF007798809142
:10143000DD0081608093DD0080E077D73BD781E0DD
:101440008093690493CFAF92BF92DF92EF92FF92A5
:101450000F931F93DF93CF930F92CDB7DEB7082F73
:101460005B017A018091AA008F7C80628093AA0040
:101470009983A2DED82E9981882351F5192FE11482
:10148000F10439F0F70120813181A21AB30A020F69
:10149000131FA114B104E1F0E114F10461F024C0C0
:1014A000F80181918F018093AF000894A108B108E1
:1014B000A114B10469F08091A60085FDF1CF80915F
:1014C000A6008B778093A60077DE882389F3D82E39
:1014D0008D2D0F90CF91DF911F910F91FF90EF9085
:1014E000DF90BF90AF90089520E030E08091A6009B
:1014F00085FD0FC08091A6008B778093A600F70131
:1015000080819181820F931F9183808324E0D22E6A
:10151000DFCFF80181918F018093AF002F5F3F4FA4
:10152000A216B30619F7D4CFAF92BF92DF92EF9213
:10153000FF920F931F93DF93CF930F92CDB7DEB738
:10154000082F5B017A018091AA008F7C80618093D3
:10155000AA00998331DED82E9981882351F5192F5D
:10156000E114F10439F0F70120813181A21AB30AA4
:10157000020F131FA114B104E1F0E114F10461F0B2
:1015800024C08091AF00F80181938F010894A108D5
:10159000B108A114B10469F08091A60085FDF1CFD6
:1015A0008091A6008E778093A60006DE882389F3BB
:1015B000D82E8D2D0F90CF91DF911F910F91FF901D
:1015C000EF90DF90BF90AF90089520E030E08091E1
:1015D000A60085FD0FC08091A6008E778093A6009F
:1015E000F70180819181820F931F9183808344E072
:1015F000D42EDFCF8091AF00F80181938F012F5F50
:101600003F4FA216B30619F7D4CFCF92DF92EF92D5
:10161000FF920F931F93DF93CF93CDB7DEB7299738
:101620000FB6F894DEBF0FBECDBF8B016A01790102
:1016300090E89093610496E09093620490E00197A3
:1016400092609093640480936304109266041092F5
:10165000650489E090E09093680480936704109299
:10166000A700CE010196ABD0882349F48B819C81E1
:10167000F80191838083E816F90680F485E02996C5
:101680000FB6F894DEBF0FBECDBFCF91DF911F9193
:101690000F91FF90EF90DF90CF90089590936804A2
:1016A00080936704C6018BD0882349F7F6019181A6
:1016B000923029F386E0E3CFAF92BF92CF92DF92D0
:1016C000EF92FF920F931F93CF93DF938C01EB0167
:1016D0006A01F801E080F180E114F10441F1E88150
:1016E000F9815F01208130E0C7012E153F0508F424
:1016F000C901E80FF91FF983E883F80120813181DE
:10170000281B390B3183208388819981F601099543
:101710008230F9F2813069F0DF91CF911F910F9102
:10172000FF90EF90DF90CF90BF90AF90089582E050
:10173000F3CFA882B982F801F182E082EDCF08955B
:101740001F93CF93DF93182F8823B9F0823021F5B0
:10175000C9EED3E08091A60082FD0AC081E03BDBA8
:10176000882339F4219731F18091A60082FFF6CFCA
:1017700080E0DF91CF911F910895C9EED3E006C0BC
:1017800081E029DB8823A9F72197A1F08091A600A9
:1017900083FFF6CF80E0EDCFC9EED3E0113021F426
:1017A0008091A60080FDE4CF81E015DB882309F756
:1017B0002197A1F784E0DF91CF911F910895EF92D7
:1017C000FF920F931F93CF93DF938C01E0909E00C5
:1017D000FF2481E0E822FF24C0916704D0916804CF
:1017E00080919E00816080939E0081E0F4DA8823DE
:1017F000D1F58091AA008F7C8093AA001092F50009
:101800008091A6008F7E8093A6008091A9008F7B97
:101810008093A900809161048093AF00809162045D
:101820008093AF00809163048093AF008091640443
:101830008093AF00809165048093AF00809166042F
:101840008093AF00809167048093AF00809168041B
:101850008093AF008091A60087778093A60080E0F8
:101860006FDF8823C9F09091A90090649093A9003C
:10187000E114F10429F490919E009E7F90939E00C4
:1018800091E09093A8001092A800DF91CF911F9152
:101890000F91FF90EF9008958091A900806480934C
:1018A000A90081E098DA8823F1F68091610487FD30
:1018B00053C00115110589F18091AA008F7C8062C7
:1018C0008093AA008091A9008F7B8093A900209724
:1018D000D1F082E035DF882331F6F8012091240130
:1018E00030E08F018091F6009091F7008217930706
:1018F00050F581918093AF00219799F78091A600D0
:101900008B778093A60082E01BDF882309F0ABCFA2
:101910008091A90080648093A9008091AA008F7CA7
:1019200080618093AA008091A9008F7B8093A90099
:1019300081E006DF882309F096CF9091A6009E777C
:101940009093A60090CF8091A6008B778093A600FD
:10195000209709F0BECFD7CF8091AA008F7C8061FD
:101960008093AA000115110509F441C0209709F4DC
:101970003EC08091A9008F7B8093A90081E0E0DECA
:10198000882309F070CF8091F6009091F7000097BE
:1019900011F4C0E0D0E08091F6009091F70000973C
:1019A00089F02097D1F0F80102C02097B1F0809122
:1019B000AF0081938F0121978091F6009091F700FD
:1019C000009799F78091A90080648093A900809185
:1019D000A6008E778093A600C9CF8091A90080646D
:1019E0008093A9008091A6008E778093A6008091B5
:1019F000AA008F7C80628093AA008091A9008F7BCF
:101A00008093A90082E09CDE882309F02CCF80918E
:101A1000A6008B778093A60082E092DE24CF1F93EE
:101A2000182F1092610489E080936204109363047C
:101A30001092640410926604109265041092680477
:101A4000109267041092A70080E090E0B8DE88232F
:101A500039F410935F04112329F49AE090936904F8
:101A60001F9108959BE0FACF92E09093610491E07A
:101A7000909362041092640410926304809365044E
:101A80001092660410926804109267041092A700E6
:101A900080E090E094CE1F93CF93DF93C7EAD0E02D
:101AA00018811F70188208D81883DF91CF911F9179
:101AB0000895FC018181843011F082E008958581D0
:101AC0008630D9F786818130C1F787818130A9F7C7
:101AD00080E00895FC018181853021F0843069F037
:101AE00082E008958381837082508230C8F78281BA
:101AF0009CDA8823A9F780E0089581E008954F9249
:101B00005F926F927F928F929F92AF92BF92CF928D
:101B1000DF92EF92FF920F931F93DF93CF9300D04A
:101B200000D0CDB7DEB76C017A8369835C834B83C9
:101B30000696FC018DE0DF011D928A95E9F7EB81A5
:101B4000FC8181818230B1F081E00F900F900F9085
:101B50000F90CF91DF911F910F91FF90EF90DF9049
:101B6000CF90BF90AF909F908F907F906F905F903D
:101B70004F9008958824992466247724AA24BB24AE
:101B800044245524F3E0EF2EF12CEC0EFD1E8E01C3
:101B90000F5F1F4F8114910439F0C801B7014AE665
:101BA0005DE08ADD8823D1F0C801B70149E55DE039
:101BB00083DD882309F08EC08B809C806624772487
:101BC000AA24BB24442455248114910469F3C80138
:101BD000B7014AE65DE070DD882331F7EB81FC81D7
:101BE000828187FD79C05F014114510499F2A114EB
:101BF000B10481F26114710469F2F60180818130CF
:101C000009F472C0D60112969C911297913009F492
:101C100043C114969C911497913009F49EC182306F
:101C200009F480C0D60112969C911297923009F463
:101C300043C114969C911497923009F49DC183304E
:101C400009F490C0D60112969C911297933009F432
:101C500043C114969C911497933009F49CC184302D
:101C600009F4A0C0D60112969C911297943009F401
:101C700043C114969C911497943009F49BC185300C
:101C800009F4BAC0D60112969C911297953009F4C6
:101C900043C114969C911497953009F49AC18630EB
:101CA00009F4CEC0D60112968C911297863009F4B1
:101CB00045C1D60114968C911497863009F498C1C9
:101CC000D40112968C911297F601878381E0868366
:101CD00080E03BCF82E039CF83818370833011F085
:101CE0002F0182CF3F0180CFD20114960D911C911C
:101CF000159712962C911297F60181811187008712
:101D0000FF2440E162E0882359F1E4E0EE2E81E017
:101D1000BAD8882309F410C1FF2009F061C0D601A8
:101D20008C917DCFD20114960D911C91159712962E
:101D30002C911297F601818111870087FF2440E1E1
:101D400062E0882369F174E0E72E82E09CD8882362
:101D500009F4F2C0FF2009F04AC0D6018C916FCF80
:101D6000EE24D5CFD20114960D911C9115971296A1
:101D70002C911297F601818111870087FF2440E1A1
:101D800062E0882391F154E0E52E83E07CD888233B
:101D900009F4D2C0FF2009F04EC0D6018C915FCF6C
:101DA000EE24D3CFD20114960D911C911597129663
:101DB0002C911297F601818111870087FF2440E161
:101DC00062E08823B1F134E0E32E84E05CD888231C
:101DD00009F4B2C0FF2009F053C0D6018C914FCF57
:101DE000F092AD00F60180811ACFEE24CECFF092B2
:101DF000AD00F601808123CFD20114960D911C9184
:101E0000159712962C911297F60181811187008700
:101E1000FF2440E162E0882389F194E0E92E85E027
:101E200032D8882309F488C0FF2089F5D6018C9127
:101E300036CFEE24CACFF092AD00F60180810FCFED
:101E4000D20114960D911C91159712962C91129710
:101E5000F601818111870087FF2440E162E0882339
:101E6000A1F084E0E82E86E00ED8882309F464C04F
:101E7000FF2009F425CFF092AD0022CFEE24CFCF82
:101E8000F092AD00F6018081FACEEE24ECCFF09214
:101E9000AD00F601808103CFD50114960D911C9100
:101EA000159712962C911297F6018381138702875A
:101EB000FF2440E262E027CFD50114960D911C91DA
:101EC000159712962C911297F6018381138702873A
:101ED000FF2440E262E035CFD50114960D911C91AC
:101EE000159712962C911297F6018381138702871A
:101EF000FF2440E262E045CFD50114960D911C917C
:101F0000159712962C911297F601838113870287F9
:101F1000FF2440E262E055CFD50114960D911C914B
:101F2000159712962C911297F601838113870287D9
:101F3000FF2440E262E06FCF83E007CEF501048129
:101F40001581228113968C9113971B961C930E93E7
:101F50001A97FF2440E262E082CFF30104811581E9
:101F6000228115968C911597F6801D961C930E93E1
:101F70001C9740E163E0C7CEF30104811581228103
:101F800015968C911597F6801D961C930E931C97B1
:101F900040E163E0D6CEF3010481158122811596DC
:101FA0008C911597F6801D961C930E931C9740E11B
:101FB00063E0E7CEF30104811581228115968C91AF
:101FC0001597F6801D961C930E931C9740E163E0D5
:101FD000F8CEF30104811581228115968C91159715
:101FE000F6801D961C930E931C9740E163E013CF7F
:101FF000F30104811581228115968C911597F68045
:102000001D961C930E931C9740E163E028CF1F930D
:10201000CF93DF93FC01EB01809169048B3031F0A9
:1020200012E0812FDF91CF911F910895868188233F
:10203000B9F38685882381F02785308941895289C3
:10204000288739874A875B872F5F3F4F4F4F5F4F06
:102050002787308B418B528B82818093A7008091A0
:10206000A9008F7B8093A900CE016CE070E040E076
:1020700050E0E9D9182F8823A1F668816C5079F4D3
:102080008091A6008B778093A6008091A900806440
:102090008093A900812FDF91CF911F910895CE01E8
:1020A0000C9670E040E050E0CED9882349F3182F19
:1020B000B8CFCF93DF93FC01EB014091A200509188
:1020C000A300809169048B3021F082E0DF91CF91F1
:1020D000089586818823C9F380818093A700809129
:1020E000A9008F7B8093A90020E137E28091A600B0
:1020F00080FD44C08091A2009091A3004817590729
:1021000039F02115310509F44BC021503040AC01A4
:102110008091A90080648093A90082818093A700A8
:102120008091A9008F7B8093A9008091A60081FDFA
:1021300016C08091A90080648093A900808180935B
:10214000A7008091A9008F7B8093A9008091A600B1
:1021500081FD05C080916904813041F6B6CF809140
:10216000AA008F709091AA009073903129F090E0AE
:10217000892B7ADC81E0AACF90E8FACFCE016CE01F
:1021800070E040E050E0D0D98C819D818330910592
:1021900049F08091A90080648093A90080E096CFE7
:1021A00083E094CF68816C5031F48091A6008E77E3
:1021B0008093A600EECFCE010C9670E040E050E098
:1021C000B3D9F3CF209169042B3011F082E0089548
:1021D000FC012681222311F482E0089580818093FE
:1021E000A7008091A9008F7B8093A900CB01BA0141
:1021F00040E050E099D99091A90090649093A90093
:102200000895209169042B3011F080E00895FC01BD
:1022100026812223E9F084818093A7008091A90080
:102220008F7B8093A9002091F6003091F70081E028
:102230002115310531F09091A90090649093A90087
:10224000089580E09091A90090649093A90008956A
:1022500080E00895209169042B3011F082E0089508
:10226000FC012681222311F482E008958481809369
:10227000A7008091A9008F7B8093A900CB0168E122
:1022800070E040E050E050D99091A6009E77909386
:10229000A6009091A90090649093A900089581E010
:1022A0008093420110926D0180914B018160809377
:1022B0004B0108951092420110926D0180914B01E3
:1022C000826080934B0108950F931F93DF93CF9308
:1022D000CDB7DEB7C250D2400FB6F894DEBF0FBE06
:1022E000CDBF8E010D5F1F4F81E0BE016F5F7F4F3D
:1022F000A80120E032E089D9882361F0CE5FDD4F6C
:102300000FB6F894DEBF0FBECDBFCF91DF911F9106
:102310000F91089569817A8180E091E0A801EFDB57
:10232000882361F781E07BDBE9CF0E940D09FFCFB5
:102330000895CF93DF93EC0180911301882321F559
:1023400080E2C130D80761F100D000D088E797E083
:10235000EDB7FEB792838183D483C3830E9490201C
:102360000F900F900F900F90C150D042C032D10506
:1023700070F000D08CE393E0EDB7FEB792838183D9
:102380000E9490200F900F90DF91CF910895C45B31
:10239000DF4FFE01EE0FFF1F0590F491E02D099431
:1023A00000D000D08EE897E0EDB7FEB7928381832E
:1023B000D483C3830E9490200F900F900F900F90B2
:1023C00000D089E697E0EDB7FEB7928381830E9443
:1023D00090200F900F90D8CF00D085E693E0EDB716
:1023E000FEB7928381830E9490200F900F90CCCFF4
:1023F00000D080E197E0EDB7FEB7928381830E9421
:1024000090200F900F90C0CF00D08CEE96E0EDB7EB
:10241000FEB7928381830E9490200F900F90B4CFDB
:1024200000D08FE497E0EDB7FEB7928381830E94DE
:1024300090200F900F90A8CF00D082E397E0EDB7E7
:10244000FEB7928381830E9490200F900F909CCFC3
:1024500000D088EC96E0EDB7FEB7928381830E94AE
:1024600090200F900F9090CF00D088EA96E0EDB7C3
:10247000FEB7928381830E9490200F900F9084CFAB
:1024800000D08AE896E0EDB7FEB7928381830E9480
:1024900090200F900F9078CF00D089E696E0EDB7AE
:1024A000FEB7928381830E9490200F900F906CCF93
:1024B00000D084E496E0EDB7FEB7928381830E945A
:1024C00090200F900F9060CF00D08FE196E0EDB795
:1024D000FEB7928381830E9490200F900F9054CF7B
:1024E00000D088E096E0EDB7FEB7928381830E942A
:1024F00090200F900F9048CF00D086EE95E0EDB77A
:10250000FEB7928381830E9490200F900F903CCF62
:1025100000D08AEC95E0EDB7FEB7928381830E94EC
:1025200090200F900F9030CF00D080EB95E0EDB76A
:10253000FEB7928381830E9490200F900F9024CF4A
:1025400000D08FE895E0EDB7FEB7928381830E94BB
:1025500090200F900F9018CF00D083E795E0EDB753
:10256000FEB7928381830E9490200F900F900CCF32
:1025700000D086E595E0EDB7FEB7928381830E9497
:1025800090200F900F9000CF00D086E395E0EDB73C
:10259000FEB7928381830E9490200F900F90F4CE1B
:1025A00000D086E095E0EDB7FEB7928381830E946C
:1025B00090200F900F90E8CE00D086EE94E0EDB71B
:1025C000FEB7928381830E9490200F900F90DCCE03
:1025D00000D086EC94E0EDB7FEB7928381830E9431
:1025E00090200F900F90D0CE00D086EA94E0EDB707
:1025F000FEB7928381830E9490200F900F90C4CEEB
:1026000000D08FE794E0EDB7FEB7928381830E94FC
:1026100090200F900F90B8CE00D087E694E0EDB7F1
:10262000FEB7928381830E9490200F900F90ACCED2
:1026300000D086E494E0EDB7FEB7928381830E94D8
:1026400090200F900F90A0CE00D080E294E0EDB7E4
:10265000FEB7928381830E9490200F900F9094CEBA
:1026600000D08BEF93E0EDB7FEB7928381830E9499
:1026700090200F900F9088CE00D08DED93E0EDB7B5
:10268000FEB7928381830E9490200F900F907CCEA2
:1026900000D08CEB93E0EDB7FEB7928381830E946C
:1026A00090200F900F9070CE00D08AE993E0EDB7A4
:1026B000FEB7928381830E9490200F900F9064CE8A
:1026C0001F93182F80911301882311F01F910895F3
:1026D00000D000D0EDB7FEB731962AE233E0ADB7B7
:1026E000BEB712963C932E931197128313820E94C9
:1026F00090200F900F900F900F90133099F114309D
:1027000098F4113009F448C01230C1F100D080E5CE
:1027100091E0ADB7BEB712969C938E9311970E942D
:1027200090200F900F90D2CF143071F0103871F7C5
:1027300000D086E691E0EDB7FEB7928381830E94D8
:1027400090200F900F90C2CF00D087EC91E0ADB7F2
:10275000BEB712969C938E9311970E9490200F9073
:102760000F90B4CF00D089E392E0EDB7FEB792832B
:1027700081830E9490200F900F90A8CF00D08AEB09
:1027800092E0ADB7BEB712969C938E9311970E94BC
:1027900090200F900F909ACF00D087EF92E0EDB786
:1027A000FEB7928381830E9490200F900F908ECF6E
:1027B0001F93CF93DF93EB01FC0126812223D9F4F1
:1027C00080911301882331F010E0812FDF91CF91A8
:1027D0001F91089500D088E391E0EDB7FEB7928392
:1027E00081830E9490200F900F9010E0812FDF9145
:1027F000CF911F9108955DDC182F8823A9F48C8157
:102800009D818330910549F08E819F8192DD10E892
:10281000812FDF91CF911F9108958E819F81F0E2EA
:1028200081309F0799F7D0CF4BDF103871F6E7CF93
:10283000EF92FF920F931F93DF93CF930F92CDB739
:10284000DEB77C018B01FC018681882371F0C70112
:10285000DEDB282F8823E1F0822F0F90CF91DF91CC
:102860001F910F91FF90EF9008958091130188239D
:1028700011F020E0F1CF00D080E291E0EDB7FEB79B
:10288000928381830E9490200F900F9020E0E4CFEC
:10289000C701B80129830DDC082F29818823E1F2C3
:1028A0000FDF29810038C1F2202FD6CF0F931F935D
:1028B000DF93CF93CDB7DEB768970FB6F894DEBF3E
:1028C0000FBECDBF8C01FC018681882381F48091ED
:1028D00013018823D1F180E068960FB6F894DEBF2B
:1028E0000FBECDBFCF91DF911F910F910895F801D9
:1028F0001786108A118A128A1686BE016F5F7F4F73
:1029000088E1FB0111928A95E9F780E190E0A0E06F
:10291000B0E089839A83AB83BC8381E090E09E839F
:102920008D8382E090E198878F8381E090E0A0E042
:10293000B0E08D879E87AF87B88BC80179DF882389
:1029400059F691E0F8019687C7CF00D088E091E072
:10295000EDB7FEB7928381830E9490200F900F9075
:1029600080E0BACF0F931F93DF93CF93CDB7DEB73D
:1029700068970FB6F894DEBF0FBECDBF8C01FC0187
:102980008681882381F480911301882359F180E0A6
:1029900068960FB6F894DEBF0FBECDBFCF91DF9122
:1029A0001F910F910895BE016F5F7F4F88E1FB017A
:1029B00011928A95E9F78CE090E0A0E0B0E089837D
:1029C0009A83AB83BC8381E090E09E838D8383E018
:1029D00090E198878F83C8012BDF8823C9F6F8011F
:1029E0001686D6CF00D080EF90E0EDB7FEB7928389
:1029F00081830E9490200F900F9080E0C9CF4F926A
:102A00005F926F927F928F929F92AF92BF92CF927E
:102A1000DF92EF92FF920F931F93DF93CF93CDB787
:102A2000DEB7ED970FB6F894DEBF0FBECDBF3C0109
:102A300061969FAC6197FC0196819923E9F480919E
:102A40001301882309F484C080E0ED960FB6F89452
:102A5000DEBF0FBECDBFCF91DF911F910F91FF90D1
:102A6000EF90DF90CF90BF90AF909F908F907F902E
:102A70006F905F904F900895F3011786108A118A26
:102A8000128A882D90E00396880F991F880F991F4E
:102A9000A0E0B0E08E839F83A887B98781E090E0B3
:102AA0009B878A877D876C871E861F86188A198A6E
:102AB0002A8B3B8B4C8B5D8BEE8AFF8A088F198F9C
:102AC000AA8EBB8ECC8EDD8E26E0422E512C4C0E73
:102AD0005D1EC301B201ACDE0E811F810C5010409F
:102AE000992009F041C00115110549F158019EE1F5
:102AF000892E912C8C0E9D1E6501F1E2AF16B1045A
:102B000018F080E2C82ED12CC301B401A6015ADB13
:102B1000C114D10489F0740100E010E06091D00587
:102B20007091D105F70181917F010E94F21F0F5F23
:102B30001F4F0C151D0590F3AC18BD08E9F68091E8
:102B4000A6008E778093A600C301B20131DE7CCF50
:102B500000D088ED90E0EDB7FEB7928381830E94AC
:102B600090200F900F9070CF1B830A8363968EADD9
:102B70009FAD63979D838C839982CE0101964CD241
:102B8000B2CF8F92AF92BF92CF92DF92EF92FF922D
:102B90000F931F9300D00F9221EAEDB7FEB7218368
:102BA0007383628361E070E120E030E0A901EE24EC
:102BB000FF248701AA24BB246501882420DF0F900D
:102BC0000F900F901F910F91FF90EF90DF90CF909B
:102BD000BF90AF908F90089580E008958F92AF924C
:102BE000BF92CF92DF92EF92FF920F931F93DA0181
:102BF00020910402621758F080E81F910F91FF9016
:102C0000EF90DF90CF90BF90AF908F900895E62F18
:102C1000F0E0EE0FFF1FEE0FFF1FE659FB4F208184
:102C200031814281538100D00F9263EAEDB7FEB744
:102C30006183B383A28365E070E1EE24FF24870102
:102C4000AA24BB24650188248394D9DE0F900F90B9
:102C50000F90D3CF8F92AF92BF92CF92DF92EF922D
:102C6000FF920F931F93FA0100D00F929B0140E057
:102C700050E069EAADB7BEB711966C931197139601
:102C8000FC93EE93129764E170E1EE24FF24870138
:102C9000AA24BB24650188248394B1DE0F900F9091
:102CA0000F9090E01F910F91FF90EF90DF90CF90E9
:102CB000BF90AF908F9008958F92AF92BF92CF92B6
:102CC000DF92EF92FF920F931F93FA0100D00F92C1
:102CD0009B0140E050E06AEAADB7BEB711966C9335
:102CE00011971396FC93EE93129765E170E1EE2431
:102CF000FF248701AA24BB246501882483947FDEF6
:102D00000F900F900F9090E01F910F91FF90EF9018
:102D1000DF90CF90BF90AF908F900895AF92BF9209
:102D2000CF92DF92EF92FF920F931F93DF93CF9397
:102D3000CDB7DEB7A8970FB6F894DEBF0FBECDBFF4
:102D40008C016A017E010894E11CF11C80E1F7010D
:102D500011928A95E9F7F80186818823C1F4809160
:102D60001301882309F458C080E090E0A8960FB6BC
:102D7000F894DEBF0FBECDBFCF91DF911F910F91B1
:102D8000FF90EF90DF90CF90BF90AF900895F80143
:102D90001786108A118A128A81E1A82EB12CAC0EF6
:102DA000BD1E88E1F50111928A95E9F780E190E076
:102DB000A0E0B0E0898B9A8BAB8BBC8B81E090E07C
:102DC0009E8B8D8B85E190E1988F8F8B80E090E0DA
:102DD0006D8F7E8F8F8F98A3C801B50129DD29895A
:102DE0003A892C5030402131310510F5C801B70126
:102DF000A901E8D98091A6008E778093A600F601FC
:102E0000898180838A8181838B8182838C81838382
:102E1000C801B501CDDCA8CF00D08CEB97E0EDB7B1
:102E2000FEB7928381830E9490200F900F909CCFD9
:102E300020E130E0DBCFCF92DF92EF92FF920F9351
:102E40001F93DF93CF93CDB7DEB76C970FB6F8948F
:102E5000DEBF0FBECDBF8C01298F3A8F4B8F5C8FA9
:102E6000FC0186818823B1F480911301882309F441
:102E700054C080E090E06C960FB6F894DEBF0FBEB1
:102E8000CDBFCF91DF911F910F91FF90EF90DF9019
:102E9000CF900895F8011786108A118A128AF2E0FD
:102EA00060307F0791F16031710579F182E190E046
:102EB000A0E0B0E022E0C22ED12C7E010894E11CFB
:102EC000F11C28E1F70111922A95E9F789839A8389
:102ED000AB83BC8381E090E09E838D8386E190E1AB
:102EE00098878F8380E090E06D877E878F87988BAF
:102EF000C801B7019DDCC801BE01675E7F4FA60116
:102F000061D9C801B70154DCB4CF84E190E0A0E0FE
:102F1000B0E034E0C32ED12CD0CF00D084EA97E0CB
:102F2000EDB7FEB7928381830E9490200F900F909F
:102F3000A0CF0F931F93DF93CF93CDB7DEB76897E2
:102F40000FB6F894DEBF0FBECDBF8C01FC018681A9
:102F5000882361F480E068960FB6F894DEBF0FBE58
:102F6000CDBFCF91DF911F910F910895C80149D92D
:102F7000882381F3C801BE016F5F7F4F6BD988231F
:102F800051F72D813E812430310511F08FEFE3CFD1
:102F90002F813885F0E426303F07D1F090E42D30C2
:102FA000390741F1E0E422303E07A9F690914B0148
:102FB000906190934B012D853E854F8558892093D4
:102FC0005C0130935D0140935E0150935F01C3CF7C
:102FD00090914B01906290934B012D853E854F85DA
:102FE00058892093600130936101409362015093AE
:102FF0006301B1CF90914B01986090934B012D8567
:103000003E854F855889209358013093590140934C
:103010005A0150935B019FCFEF92FF920F931F9342
:10302000CF93DF93E82EE7017E01F92EE7018701B8
:103030000F5F1F4F6091D0057091D1058881D2D765
:1030400078010894E11CF11C6091D0057091D105C4
:103050008981C8D7E70121966091D0057091D1058B
:10306000F8018181BFD76091D0057091D105F7013A
:103070008181B8D76091D0057091D1058981B2D78F
:10308000DF91CF911F910F91FF90EF9008952F92B4
:103090003F924F925F926F927F928F929F92AF92E8
:1030A000BF92CF92DF92EF92FF920F931F93DF9325
:1030B000CF9300D000D00F92CDB7DEB7A1E0CA2EDB
:1030C000D12CF4EA5F2E7E010894E11CF11CE1EAA8
:1030D0002E2E72EA472E63E0662E712C5BEA352EA7
:1030E0000E948720882309F491C000910D028091ED
:1030F000CE059091CF0566D7E02FF0E0EE59FA4F5C
:10310000808380910D02813158F4E0910D0280910D
:103110000E02F0E0EE59FA4F9081890F80930E0273
:1031200080910D028F5F80930D0280910D0282319C
:10313000B9F69091730580910E02981709F0C6C1F7
:1031400010920E0210920D02609165057091660555
:103150007D836C8380916205853009F49BC1863044
:1031600008F06CC0823009F488C1833008F42FC1A4
:10317000833009F462C1843009F0B2CF80E091E07D
:1031800095DB80E091E028DD80E091E0EBDB809151
:10319000040290E0880F991F880F991F9B838A83F0
:1031A0004982C70139DF80910402882309F498CF4E
:1031B0008824082D10E0000F111F000F111F065961
:1031C0001B4F6091D0057091D105F80180810AD71D
:1031D0006091D0057091D105F801818103D760918C
:1031E000D0057091D105F8018281FCD66091D0059F
:1031F0007091D105F8018381F5D683948091040202
:103200008816B8F284D7882309F06FCF0F900F90FB
:103210000F900F900F90CF91DF911F910F91FF9022
:10322000EF90DF90CF90BF90AF909F908F907F9066
:103230006F905F904F903F902F9008958C3009F4DD
:1032400007C18D3008F4ABC08D3009F4DBC08E307F
:1032500009F046CF8091670590916805A0916905B6
:10326000B0916A05909313028093120280916B05CE
:1032700090916C05A0916D05B0916E05909315022B
:103280008093140280916F0590917005A091710553
:10329000B0917205909317028093160210921A0251
:1032A00010921B0210921C0210921D0210921E021C
:1032B00010921F02109220021092210210922202FC
:1032C00010922302109224021092250210922602DC
:1032D00010922702109228021092290210922A02BC
:1032E00010922B0210922C0210922D0210922E029C
:1032F00010922F021092300210923102109232027C
:10330000109233021092340210923502109236025B
:1033100010923702109238021092390210923A023B
:1033200010923B0210923C0210923D0210923E021B
:1033300010923F02109240021092410210924202FB
:1033400010924302109244021092450210924602DB
:1033500010924702109248021092490210924A02BB
:1033600010924B0210924C0210924D0210924E029B
:1033700010924F021092500210925102109252027B
:10338000109253021092540210925502109256025B
:10339000109257021092580210925902A1CE8B300F
:1033A00009F09ECE80E091E081DA009167051091EE
:1033B00068052091690530916A054C815D8180E046
:1033C00091E0B80147DC80E091E0CCDA89CE813031
:1033D00009F086CE7B826A823982C7011DDE609148
:1033E000D0057091D10581E0FDD56091D005709137
:1033F000D10580E0F7D56091D0057091D10580E1CD
:10340000F1D56ECE80E091E051DA80906705909022
:103410006805A0906905B0906A0520916B05309110
:103420006C0540916D0550916E0580E091E0B4010E
:1034300002DD80E091E096DA53CE8091420188234C
:1034400009F040C01B821A822982C701E5DD48CEFF
:1034500080E091E02BDA00916705109168052091DA
:10346000690530916A054C815D8180E091E0B80189
:1034700023DC80E091E076DA33CEDB82CA825982A7
:10348000C701CADD809142016091D0057091D105DC
:10349000A9D526CE80E091E009DA80E091E09CDBBE
:1034A00000916705109168052091690530916A05C2
:1034B0004C815D8180E091E0602F90DB80E091E0C5
:1034C00051DA0ECE80E091E05CDB0ACE81E09ECE48
:1034D000DC01809111028A3009F44AC080910F0208
:1034E00090E011962D913C911297FC01EE0FFF1F79
:1034F000EE0FFF1FEE0FFF1FE80FF91FEC58FA4FFA
:10350000328321838C9180832091050230910602C1
:103510004091070250910802348323832F5F3F4F6D
:103520004F4F5F4F209305023093060240930702EE
:103530005093080215968D919D910D90BC91A02DF0
:1035400085839683A783B087809111028F5F8093D4
:10355000110280910F028F5F80930F0280910F0202
:103560008A3020F010920F0280E0089580E00895E4
:1035700081E0089580911002909111029923F9F051
:10358000909110029F5F90931002909110029A30D8
:1035900098F49091110291509093110290E09C0147
:1035A000220F331F220F331F220F331F280F391F03
:1035B0002C583A4FC901089510921002EACF20E02A
:1035C00030E0C90108950F931F93CF93DF9380914B
:1035D0001102882331F480E0DF91CF911F910F9188
:1035E0000895C8DF8C01009711F116DDE8012596DA
:1035F0006091D0057091D105F8018581F3D4609177
:10360000D0057091D1058981EDD46091D00570917C
:10361000D1058A81E7D46091D0057091D1058B8165
:10362000E1D480E0DF91CF911F910F91089581E067
:10363000D3CF1F93DF93CF93CDB7DEB729970FB6C4
:10364000F894DEBF0FBECDBF80914B01882371F08F
:1036500010914B0184E090E09B838A831E821F823D
:103660001886198610FD17C011FD0AC029960FB6DD
:10367000F894DEBF0FBECDBFCF91DF911F910895AB
:1036800082E3898380914B018D7F80934B01CE0132
:1036900001961EDFEBCF81E3898380914B018E7F02
:1036A00080934B01CE01019613DF11FFDFCFE8CFEE
:1036B000AF92BF92CF92DF92EF92FF920F931F9340
:1036C000DF93CF93CDB7DEB72D970FB6F894DEBF5B
:1036D0000FBECDBF8091180290911902009789F416
:1036E0002D960FB6F894DEBF0FBECDBFCF91DF9100
:1036F0001F910F91FF90EF90DF90CF90BF90AF9010
:103700000895009118021091190219821A821B82E1
:103710001C8280E091E0CAD800FD9EC2AA24A39436
:10372000E2E0CE2ED12CEE24FF24BB2401FD6FC29B
:1037300002FD45C203FD1BC204FDF1C105FDC7C169
:1037400006FD9DC107FD73C110FD49C111FD1FC1DB
:1037500012FDF5C013FDCBC014FD9EC080E091E0CA
:1037600001D9E114F10409F4BBCF8CEA8D83809177
:10377000050290910602A0910702B0910802998774
:1037800088870196A11DB11D8093050290930602C2
:10379000A0930702B09308028B2D90E00196880F4A
:1037A000991F880F991F9F838E83CE01059634DC65
:1037B000C701A0E0B0E08A879B87AC87BD878E01F8
:1037C000065F1F4F6091D0057091D1050BD46091B9
:1037D000D0057091D105F801818104D46091D005A4
:1037E0007091D105F8018281FDD36091D00570916F
:1037F000D105F8018381F6D3E0FC9AC387011695C1
:10380000079500FD78C31695079500FD57C31695DB
:10381000079500FD36C31695079500FD15C316954F
:10382000079500FDF4C21695079500FDD3C21695C5
:10383000079500FDB2C21695079500FD91C2169539
:10384000079500FD70C21695079500FD4FC21695AD
:10385000079500FD2EC21695079500FF41CF609198
:10386000D0057091D10580914A02BCD36091D005FA
:103870007091D10580914B02B5D36091D0057091C4
:10388000D10580914C02AED36091D0057091D105E5
:1038900080914D02A7D324CF80E091E060E170E5F4
:1038A000AE014F5F5F4F3ADA20914A0230914B02EE
:1038B00040914C0250914D0289819A81AB81BC812B
:1038C000281739074A075B0709F448CF80934A0253
:1038D00090934B02A0934C02B0934D0280E090E194
:1038E000E82AF92AB39480E091E03CD83ECF80E00A
:1038F00091E06FE070E5AE014F5F5F4F0FDA20910E
:103900004602309147024091480250914902898114
:103910009A81AB81BC81281739074A075B0709F4F4
:103920001BCF8093460290934702A0934802B09326
:103930004902E0E0F8E0EE2AFF2AB3940DCF80E0E0
:1039400091E06EE070E5AE014F5F5F4FE7D92091E7
:1039500042023091430240914402509145028981D4
:103960009A81AB81BC81281739074A075B0709F4A4
:10397000F1CE8093420290934302A0934402B0930D
:10398000450280E094E0E82AF92AB394E3CE80E08F
:1039900091E06DE070E5AE014F5F5F4FBFD92091C0
:1039A0003E0230913F024091400250914102898194
:1039B0009A81AB81BC81281739074A075B0709F454
:1039C000C7CE80933E0290933F02A0934002B093F3
:1039D0004102E0E0F2E0EE2AFF2AB394B9CE80E0A3
:1039E00091E06CE070E5AE014F5F5F4F97D9209199
:1039F0003A0230913B0240913C0250913D02898154
:103A00009A81AB81BC81281739074A075B0709F403
:103A10009DCE80933A0290933B02A0933C02B093D8
:103A20003D0280E091E0E82AF92AB3948FCE80E04D
:103A300091E06BE070E5AE014F5F5F4F6FD9209171
:103A40003602309137024091380250913902898113
:103A50009A81AB81BC81281739074A075B0709F4B3
:103A600073CE8093360290933702A0933802B093BE
:103A70003902E0E8F0E0EE2AFF2AB39465CE80E058
:103A800091E06AE070E5AE014F5F5F4F47D920914A
:103A900032023091330240913402509135028981D3
:103AA0009A81AB81BC81281739074A075B0709F463
:103AB00049CE8093320290933302A0933402B093A4
:103AC000350280E490E0E82AF92AB3943BCE80E006
:103AD00091E069E070E5AE014F5F5F4F1FD9209123
:103AE0002E0230912F024091300250913102898193
:103AF0009A81AB81BC81281739074A075B0709F413
:103B00001FCE80932E0290932F02A0933002B09389
:103B10003102E0E2F0E0EE2AFF2AB39411CE80E019
:103B200091E068E070E5AE014F5F5F4FF7D82091FC
:103B30002A0230912B0240912C0250912D02898152
:103B40009A81AB81BC81281739074A075B0709F4C2
:103B5000F5CD80932A0290932B02A0932C02B09370
:103B60002D0280E190E0E82AF92AB394E7CD80E0C5
:103B700091E067E070E5AE014F5F5F4FCFD82091D5
:103B80002602309127024091280250912902898112
:103B90009A81AB81BC81281739074A075B0709F472
:103BA000CBCD8093260290932702A0932802B09356
:103BB0002902E8E0F0E0EE2AFF2AB394BDCD80E0D0
:103BC00091E065E070E5AE014F5F5F4FA7D82091AF
:103BD00022023091230240912402509125028981D2
:103BE0009A81AB81BC81281739074A075B0709F422
:103BF000A1CD8093220290932302A0932402B0933C
:103C0000250284E090E0E82AF92AB39493CD80E07D
:103C100091E062E070E5AE014F5F5F4F7FD8209189
:103C20001E0230911F024091200250912102898191
:103C30009A81AB81BC81281739074A075B0709F4D1
:103C400077CD80931E0290931F02A0932002B09321
:103C500021027601BA2C6CCD80E091E061E070E544
:103C6000AE014F5F5F4F5AD820911A0230911B026C
:103C700040911C0250911D0289819A81AB81BC81C7
:103C8000281739074A075B0709F448CD80931A02C1
:103C900090931B02A0931C02B0931D02B2E0AB2EC6
:103CA000A3E0CA2ED12CF1E0EF2EF12CBB24B3946B
:103CB0003DCD6091D0057091D1058091460292D1A1
:103CC0006091D0057091D105809147028BD16091B0
:103CD000D0057091D1058091480284D16091D005C2
:103CE0007091D105809149027DD1B5CD6091D0050B
:103CF0007091D1058091420275D16091D00570918B
:103D0000D105809143026ED16091D0057091D105AB
:103D10008091440267D16091D0057091D105809166
:103D2000450260D194CD6091D0057091D10580910C
:103D30003E0258D16091D0057091D10580913F022B
:103D400051D16091D0057091D105809140024AD146
:103D50006091D0057091D1058091410243D173CD1E
:103D60006091D0057091D10580913A023BD160916C
:103D7000D0057091D10580913B0234D16091D0057E
:103D80007091D10580913C022DD16091D005709148
:103D9000D10580913D0226D152CD6091D005709120
:103DA000D105809136021ED16091D0057091D10568
:103DB0008091370217D16091D0057091D105809123
:103DC000380210D16091D0057091D10580913902EF
:103DD00009D131CD6091D0057091D1058091320229
:103DE00001D16091D0057091D10580913302FAD054
:103DF0006091D0057091D10580913402F3D060912B
:103E0000D0057091D10580913502ECD010CD609134
:103E1000D0057091D10580912E02E4D06091D0053B
:103E20007091D10580912F02DDD06091D005709105
:103E3000D10580913002D6D06091D0057091D10526
:103E400080913102CFD0EFCC6091D0057091D10537
:103E500080912A02C7D06091D0057091D1058091E0
:103E60002B02C0D06091D0057091D10580912C02B9
:103E7000B9D06091D0057091D10580912D02B2D05A
:103E8000CECC6091D0057091D10580912602AAD048
:103E90006091D0057091D10580912702A3D06091E7
:103EA000D0057091D105809128029CD06091D005F9
:103EB0007091D1058091290295D0ADCC6091D0054B
:103EC0007091D105809122028DD06091D0057091C2
:103ED000D1058091230286D06091D0057091D105E3
:103EE000809124027FD06091D0057091D10580919E
:103EF000250278D08CCC6091D0057091D10580914D
:103F00001E0270D06091D0057091D10580911F0282
:103F100069D06091D0057091D1058091200262D066
:103F20006091D0057091D105809121025BD06BCC5E
:103F30006091D0057091D10580911A0253D06091A3
:103F4000D0057091D10580911B024CD06091D005B5
:103F50007091D10580911C0245D06091D00570917F
:103F6000D10580911D023ED049CCDF93CF9300D084
:103F700000D0CDB7DEB78EED89838DEA8A838EEBD4
:103F80008B838FEE8C836091D0057091D1058EED7F
:103F900029D06091D0057091D1058A8123D060919C
:103FA000D0057091D1058B811DD06091D0057091A5
:103FB000D1058C8117D00F900F900F900F90CF915B
:103FC000DF91089590915D0280915C029817D1F382
:103FD000E0915C02EF5FE0935C02F0E0E25AFC4F9C
:103FE0008081089520915B022F5F90915A022917DA
:103FF000E1F3E22FF0E0E25AFD4F808320935B0271
:104000008091C90080628093C90008951F920F9229
:104010000FB60F920BB60F9211242F938F939F938D
:10402000EF93FF932091C8009091CE00E0915D0244
:10403000EF5F80915C02E817B1F0822F8871E09306
:104040005D02F0E0E25AFC4F908380935E04FF91A2
:10405000EF919F918F912F910F900BBE0F900FBEFC
:104060000F901F90189582E0F0CF1F920F920FB61D
:104070000F920BB60F9211248F939F93EF93FF93A0
:1040800090915B0280915A029817B1F0E0915A0228
:10409000EF5FE0935A02F0E0E25AFD4F8081809397
:1040A000CE00FF91EF919F918F910F900BBE0F90DB
:1040B0000FBE0F901F9018958091C9008F7D80933F
:1040C000C900EFCF10925B0210925A0210925D026B
:1040D00010925C0297FF04C022E02093C8009F77F3
:1040E0009093CD008093CC0088E98093C90086E04E
:1040F0008093CA0085E291E09093D1058093D0052A
:1041000083E391E09093CF058093CE0508952091AD
:104110005D0290915C0281E02913089580E008958A
:10412000DF93CF93CDB7DEB7FE01359661917191E4
:104130008091D0059091D105DC0113962C911397B5
:10414000286013962C93AF010AD0E091D005F0912E
:10415000D1052381277F2383CF91DF9108952F926B
:104160003F924F925F926F927F928F929F92AF9207
:10417000BF92CF92DF92EF92FF920F931F93DF9344
:10418000CF93CDB7DEB72C970FB6F894DEBF0FBE36
:10419000CDBF6C011B018A01FC011782168283814D
:1041A00081FFC4C12E010894411C511CF60193816A
:1041B000F10193FD859193FF81911F01882309F4FB
:1041C000B1C1853239F493FD859193FF81911F012F
:1041D000853221F490E0B601DBD1E8CFEE24FF2454
:1041E00020E02032B0F48B3269F08C3228F4803237
:1041F00051F0833271F40BC08D3239F0803349F4C1
:1042000021602CC02260246029C0286027C0206162
:1042100025C027FD2CC0382F30533A3098F426FFA4
:1042200008C08E2D880FE82EEE0CEE0CE80EE30E83
:1042300015C08F2D880FF82EFF0CFF0CF80EF30E13
:1042400020620CC08E3221F426FD6CC1206406C0B1
:104250008C3611F4206802C0883649F4F10193FDD0
:10426000859193FF81911F01882309F0BACF982F80
:104270009554933018F09052933028F40C5F1F4FF0
:10428000FFE3F9830DC0833631F0833771F0833556
:1042900009F05CC021C0F801808189830E5F1F4F47
:1042A000420171E0A72EB12C15C062E0662E712C80
:1042B000600E711EF8018080918026FF03C06E2D74
:1042C00070E002C06FEF7FEFC4012C8756D15C0114
:1042D00083012C852F7716C052E0652E712C600E5D
:1042E000711EF8018080918026FF03C06E2D70E062
:1042F00002C06FEF7FEFC4012C8734D15C012C85A5
:104300002068830123FD1EC007C080E290E0B60153
:104310002C873ED1FA942C858F2D90E0A816B906F3
:10432000A0F310C0F40127FD859127FF81914F0173
:1043300090E0B6012C872CD12C85F110FA940894CA
:10434000A108B108A114B10469F7E9C0843611F0DD
:10435000893641F527FF08C0F801608171818281AB
:1043600093810C5F1F4F09C0F8016081718188271C
:1043700077FD8095982F0E5F1F4F4FE6B42EB22227
:1043800097FF09C090958095709561957F4F8F4FED
:104390009F4FF0E8BF2AA2012AE030E025D1782E15
:1043A000741844C0853731F43FEEB32EB2222AE0B0
:1043B00030E025C099EFB92EB2228F36C1F0803798
:1043C00020F4883509F0AEC00DC0803721F0883761
:1043D00009F0A8C002C020E1B22AB4FE0BC084E0FC
:1043E000B82A08C0B4FE09C0E6E0BE2A06C028E02C
:1043F00030E005C020E130E002C020E132E0B7FE4D
:1044000008C0F80160817181828193810C5F1F4F28
:1044100007C0F8016081718180E090E00E5F1F4F5E
:10442000A201E2D0782E7418FFE7BF22B6FE0BC0BF
:104430002EEFB2227E1438F4B4FE07C0B2FC05C0E1
:104440008FEEB82202C0A72C01C0AE2C8B2D90E0BD
:10445000B4FE0DC0FE01E70DF11D2081203319F4DB
:10446000E9EEBE2209C0A394B2FE06C004C086785D
:104470009070009709F0A3948B2C9924B3FC13C07F
:10448000B0FE0EC0AF1428F4E72CEF0CEA18AF2CE6
:1044900007C0E72C05C080E290E0B60179D0A39474
:1044A000AF14C8F304C0AF1410F4FA1801C0FF240D
:1044B00084FE0EC080E390E0B6016AD082FE1DC08B
:1044C00081FE03C088E590E010C088E790E00DC051
:1044D000C40186789070009781F081FC02C080E270
:1044E00001C08BE2B7FC8DE290E0B60151D005C06F
:1044F00080E390E0B6014CD0EA947E14C8F37A943D
:10450000F201E70DF11D808190E0B60141D07720E6
:10451000B1F705C080E290E0B6013AD0FA94FF20EE
:10452000C9F744CEF6012681378102C02FEF3FEF55
:10453000C9012C960FB6F894DEBF0FBECDBFCF9148
:10454000DF911F910F91FF90EF90DF90CF90BF9080
:10455000AF909F908F907F906F905F904F903F9023
:104560002F900895FC010590615070400110D8F71C
:10457000809590958E0F9F1F0895FC0161507040AB
:1045800001900110D8F7809590958E0F9F1F089588
:104590000F931F93CF93DF938C01EB018B8181FFEE
:1045A0001BC082FF0DC02E813F818C819D81281709
:1045B000390764F4E881F9810193F983E88306C03F
:1045C000E885F985802F0995009731F48E819F81C8
:1045D00001969F838E8302C00FEF1FEFC801DF910A
:1045E000CF911F910F910895FA01AA27283051F118
:1045F000203181F1E8946F936E7F6E5F7F4F8F4F14
:104600009F4FAF4FB1E03ED0B4E03CD0670F781F72
:10461000891F9A1FA11D680F791F8A1F911DA11D57
:104620006A0F711D811D911DA11D20D009F4689490
:104630003F912AE0269F11243019305D3193DEF638
:10464000CF010895462F4770405D4193B3E00FD0EE
:10465000C9F7F6CF462F4F70405D4A3318F0495DD9
:1046600031FD4052419302D0A9F7EACFB4E0A695BC
:104670009795879577956795BA95C9F700976105DE
:10468000710508959B01AC010A2E06945795479534
:1046900037952795BA95C9F7620F731F841F951F29
:0846A000A01D0895F894FFCF5E
:1046A80001000200030000000000000000000000FC
:1046B8000000000100050100000000008006000164
:1046C80000000800400000000200000000F21F0087
:1046D80000000000000001000000000000E21F00D0
:0246E8000000D0
:00000001FF
